{
  "address": "0x152a943eB7fd392891D42e8143443De44E3FF8B1",
  "abi": [
    {
      "inputs": [
        {
          "internalType": "bytes",
          "name": "_preBytes",
          "type": "bytes"
        },
        {
          "internalType": "bytes",
          "name": "_postBytes",
          "type": "bytes"
        }
      ],
      "name": "equal",
      "outputs": [
        {
          "internalType": "bool",
          "name": "",
          "type": "bool"
        }
      ],
      "stateMutability": "pure",
      "type": "function"
    },
    {
      "inputs": [
        {
          "internalType": "bytes",
          "name": "_bytes",
          "type": "bytes"
        },
        {
          "internalType": "uint256",
          "name": "_start",
          "type": "uint256"
        },
        {
          "internalType": "uint256",
          "name": "_length",
          "type": "uint256"
        }
      ],
      "name": "slice",
      "outputs": [
        {
          "internalType": "bytes",
          "name": "",
          "type": "bytes"
        }
      ],
      "stateMutability": "pure",
      "type": "function"
    },
    {
      "inputs": [
        {
          "internalType": "bytes",
          "name": "_bytes",
          "type": "bytes"
        },
        {
          "internalType": "uint256",
          "name": "_start",
          "type": "uint256"
        }
      ],
      "name": "toAddress",
      "outputs": [
        {
          "internalType": "address",
          "name": "tmp",
          "type": "address"
        }
      ],
      "stateMutability": "pure",
      "type": "function"
    },
    {
      "inputs": [
        {
          "internalType": "bytes",
          "name": "_bytes",
          "type": "bytes"
        },
        {
          "internalType": "uint256",
          "name": "_start",
          "type": "uint256"
        }
      ],
      "name": "toByes7",
      "outputs": [
        {
          "internalType": "bytes7",
          "name": "tmp",
          "type": "bytes7"
        }
      ],
      "stateMutability": "pure",
      "type": "function"
    },
    {
      "inputs": [
        {
          "internalType": "bytes",
          "name": "_bytes",
          "type": "bytes"
        },
        {
          "internalType": "uint256",
          "name": "_start",
          "type": "uint256"
        }
      ],
      "name": "toBytes1",
      "outputs": [
        {
          "internalType": "bytes1",
          "name": "tmp",
          "type": "bytes1"
        }
      ],
      "stateMutability": "pure",
      "type": "function"
    },
    {
      "inputs": [
        {
          "internalType": "bytes",
          "name": "_bytes",
          "type": "bytes"
        },
        {
          "internalType": "uint256",
          "name": "_start",
          "type": "uint256"
        }
      ],
      "name": "toBytes12",
      "outputs": [
        {
          "internalType": "bytes12",
          "name": "tmp",
          "type": "bytes12"
        }
      ],
      "stateMutability": "pure",
      "type": "function"
    },
    {
      "inputs": [
        {
          "internalType": "bytes",
          "name": "_bytes",
          "type": "bytes"
        },
        {
          "internalType": "uint256",
          "name": "_start",
          "type": "uint256"
        }
      ],
      "name": "toBytes16",
      "outputs": [
        {
          "internalType": "bytes12",
          "name": "tmp",
          "type": "bytes12"
        }
      ],
      "stateMutability": "pure",
      "type": "function"
    },
    {
      "inputs": [
        {
          "internalType": "bytes",
          "name": "_bytes",
          "type": "bytes"
        },
        {
          "internalType": "uint256",
          "name": "_start",
          "type": "uint256"
        }
      ],
      "name": "toBytes32",
      "outputs": [
        {
          "internalType": "bytes32",
          "name": "tmp",
          "type": "bytes32"
        }
      ],
      "stateMutability": "pure",
      "type": "function"
    },
    {
      "inputs": [
        {
          "internalType": "bytes",
          "name": "_bytes",
          "type": "bytes"
        },
        {
          "internalType": "uint256",
          "name": "_start",
          "type": "uint256"
        }
      ],
      "name": "toBytes5",
      "outputs": [
        {
          "internalType": "bytes5",
          "name": "tmp",
          "type": "bytes5"
        }
      ],
      "stateMutability": "pure",
      "type": "function"
    },
    {
      "inputs": [
        {
          "internalType": "bytes",
          "name": "_bytes",
          "type": "bytes"
        },
        {
          "internalType": "uint256",
          "name": "_start",
          "type": "uint256"
        }
      ],
      "name": "toBytes6",
      "outputs": [
        {
          "internalType": "bytes6",
          "name": "tmp",
          "type": "bytes6"
        }
      ],
      "stateMutability": "pure",
      "type": "function"
    },
    {
      "inputs": [
        {
          "internalType": "bytes",
          "name": "_bytes",
          "type": "bytes"
        },
        {
          "internalType": "uint256",
          "name": "_start",
          "type": "uint256"
        }
      ],
      "name": "toBytes8",
      "outputs": [
        {
          "internalType": "uint64",
          "name": "tmp",
          "type": "uint64"
        }
      ],
      "stateMutability": "pure",
      "type": "function"
    },
    {
      "inputs": [
        {
          "internalType": "bytes",
          "name": "_bytes",
          "type": "bytes"
        },
        {
          "internalType": "uint256",
          "name": "_start",
          "type": "uint256"
        }
      ],
      "name": "toUint128",
      "outputs": [
        {
          "internalType": "uint128",
          "name": "tmp",
          "type": "uint128"
        }
      ],
      "stateMutability": "pure",
      "type": "function"
    },
    {
      "inputs": [
        {
          "internalType": "bytes",
          "name": "_bytes",
          "type": "bytes"
        }
      ],
      "name": "toUint16",
      "outputs": [
        {
          "internalType": "uint16",
          "name": "tmp",
          "type": "uint16"
        }
      ],
      "stateMutability": "pure",
      "type": "function"
    },
    {
      "inputs": [
        {
          "internalType": "bytes",
          "name": "_bytes",
          "type": "bytes"
        },
        {
          "internalType": "uint256",
          "name": "_start",
          "type": "uint256"
        }
      ],
      "name": "toUint16",
      "outputs": [
        {
          "internalType": "uint16",
          "name": "tmp",
          "type": "uint16"
        }
      ],
      "stateMutability": "pure",
      "type": "function"
    },
    {
      "inputs": [
        {
          "internalType": "bytes",
          "name": "_bytes",
          "type": "bytes"
        },
        {
          "internalType": "uint256",
          "name": "_start",
          "type": "uint256"
        }
      ],
      "name": "toUint24",
      "outputs": [
        {
          "internalType": "uint24",
          "name": "tmp",
          "type": "uint24"
        }
      ],
      "stateMutability": "pure",
      "type": "function"
    },
    {
      "inputs": [
        {
          "internalType": "bytes",
          "name": "_bytes",
          "type": "bytes"
        },
        {
          "internalType": "uint256",
          "name": "_start",
          "type": "uint256"
        }
      ],
      "name": "toUint256",
      "outputs": [
        {
          "internalType": "uint256",
          "name": "tmp",
          "type": "uint256"
        }
      ],
      "stateMutability": "pure",
      "type": "function"
    },
    {
      "inputs": [
        {
          "internalType": "bytes",
          "name": "_bytes",
          "type": "bytes"
        },
        {
          "internalType": "uint256",
          "name": "_start",
          "type": "uint256"
        }
      ],
      "name": "toUint32",
      "outputs": [
        {
          "internalType": "uint32",
          "name": "tmp",
          "type": "uint32"
        }
      ],
      "stateMutability": "pure",
      "type": "function"
    },
    {
      "inputs": [
        {
          "internalType": "bytes",
          "name": "_bytes",
          "type": "bytes"
        },
        {
          "internalType": "uint256",
          "name": "_start",
          "type": "uint256"
        }
      ],
      "name": "toUint40",
      "outputs": [
        {
          "internalType": "uint40",
          "name": "tmp",
          "type": "uint40"
        }
      ],
      "stateMutability": "pure",
      "type": "function"
    },
    {
      "inputs": [
        {
          "internalType": "bytes",
          "name": "_bytes",
          "type": "bytes"
        },
        {
          "internalType": "uint256",
          "name": "_start",
          "type": "uint256"
        }
      ],
      "name": "toUint48",
      "outputs": [
        {
          "internalType": "uint48",
          "name": "tmp",
          "type": "uint48"
        }
      ],
      "stateMutability": "pure",
      "type": "function"
    },
    {
      "inputs": [
        {
          "internalType": "bytes",
          "name": "_bytes",
          "type": "bytes"
        },
        {
          "internalType": "uint256",
          "name": "_start",
          "type": "uint256"
        }
      ],
      "name": "toUint56",
      "outputs": [
        {
          "internalType": "uint56",
          "name": "tmp",
          "type": "uint56"
        }
      ],
      "stateMutability": "pure",
      "type": "function"
    },
    {
      "inputs": [
        {
          "internalType": "bytes",
          "name": "_bytes",
          "type": "bytes"
        },
        {
          "internalType": "uint256",
          "name": "_start",
          "type": "uint256"
        }
      ],
      "name": "toUint64",
      "outputs": [
        {
          "internalType": "uint64",
          "name": "tmp",
          "type": "uint64"
        }
      ],
      "stateMutability": "pure",
      "type": "function"
    },
    {
      "inputs": [
        {
          "internalType": "bytes",
          "name": "_bytes",
          "type": "bytes"
        },
        {
          "internalType": "uint256",
          "name": "_start",
          "type": "uint256"
        }
      ],
      "name": "toUint8",
      "outputs": [
        {
          "internalType": "uint8",
          "name": "tmp",
          "type": "uint8"
        }
      ],
      "stateMutability": "pure",
      "type": "function"
    },
    {
      "inputs": [
        {
          "internalType": "bytes",
          "name": "_bytes",
          "type": "bytes"
        },
        {
          "internalType": "uint256",
          "name": "_start",
          "type": "uint256"
        }
      ],
      "name": "toUint96",
      "outputs": [
        {
          "internalType": "uint96",
          "name": "tmp",
          "type": "uint96"
        }
      ],
      "stateMutability": "pure",
      "type": "function"
    }
  ],
  "transactionHash": "0x9fcf1e0eb5636d72aea08893cf10ed54b6b7cbe1c4ff32f08df8e6d34736bfce",
  "args": [],
  "numDeployments": 1,
  "solcInputHash": "cf4062d6e14cbd44f5db31ab6a3c9f76",
  "bytecode": "0x61164061003a600b82828239805160001a60731461002d57634e487b7160e01b600052600060045260246000fd5b30600052607381538281f3fe73000000000000000000000000000000000000000030146080604052600436106101a25760003560e01c8063a5eb31ee116100ed578063d1ffb56111610096578063f1142fb311610070578063f1142fb31461041c578063f647f8fb1461042f578063f83b670f1461044f57600080fd5b8063d1ffb561146103bc578063d442584f146103dc578063e0041396146103fc57600080fd5b8063b63711df116100c7578063b63711df14610376578063be8b343014610389578063c29616bd1461039c57600080fd5b8063a5eb31ee14610323578063a8d8f00f14610343578063b5cdf9241461036357600080fd5b80635ef849301161014f57806399dd9bd71161012957806399dd9bd7146102c35780639ae4c3d1146102e35780639cee499e1461030357600080fd5b80635ef8493014610263578063913c97b41461028357806397e6175c146102a357600080fd5b8063235266d211610180578063235266d21461021057806348137709146102235780634d66a2ae1461024357600080fd5b8063042aa084146101a757806305d3bb74146101d05780631a7431ef146101f0575b600080fd5b6101ba6101b5366004610b8a565b61046f565b6040516101c79190610c0b565b60405180910390f35b6101e36101de366004610b8a565b6104ae565b6040516101c79190610c25565b6102036101fe366004610c33565b6104e4565b6040516101c79190610c89565b61020361021e366004610c97565b61059a565b610236610231366004610b8a565b6105fe565b6040516101c79190610cdc565b610256610251366004610cea565b610634565b6040516101c79190610d2f565b610276610271366004610b8a565b610641565b6040516101c79190610d4b565b610296610291366004610b8a565b61066e565b6040516101c79190610d71565b6102b66102b1366004610b8a565b6106a4565b6040516101c79190610da7565b6102d66102d1366004610b8a565b6106da565b6040516101c79190610dbb565b6102f66102f1366004610b8a565b610710565b6040516101c79190610dd9565b610316610311366004610b8a565b610746565b6040516101c79190610e0f565b610336610331366004610b8a565b61077c565b6040516101c79190610e28565b610356610351366004610b8a565b6107b2565b6040516101c79190610e45565b6102d6610371366004610b8a565b6107e8565b6102f6610384366004610b8a565b610815565b610256610397366004610b8a565b610842565b6103af6103aa366004610b8a565b610878565b6040516101c79190610e7b565b6103cf6103ca366004610b8a565b6108a5565b6040516101c79190610e9d565b6103ef6103ea366004610b8a565b6108d2565b6040516101c79190610eb8565b61040f61040a366004610ec6565b6108ff565b6040516101c79190610f92565b6102b661042a366004610b8a565b6109c7565b61044261043d366004610b8a565b6109f4565b6040516101c79190610fd1565b61046261045d366004610b8a565b610a3a565b6040516101c79190611007565b600061047c826006611044565b835110156104a55760405162461bcd60e51b815260040161049c90611090565b60405180910390fd5b50016006015190565b60006104bb826004611044565b835110156104db5760405162461bcd60e51b815260040161049c906110d2565b50016004015190565b60008060019050835460026001808316156101000203821604845180821460018114610513576000945061058c565b821561058c57602083106001811461057157600189600052602060002060208a018581015b6002848284100114156105685781518354146105575760009950600093505b600183019250602082019150610538565b5050505061058a565b6101008086040294506020880151851461058a57600095505b505b509293505050505b92915050565b8151815160009160019181148083146105b657600092506105f4565b600160208701838101602088015b6002848385100114156105ef5780518351146105e35760009650600093505b602092830192016105c4565b505050505b5090949350505050565b600061060b826001611044565b8351101561062b5760405162461bcd60e51b815260040161049c90611114565b50016001015190565b6000610594826000610842565b600061064e826006611044565b835110156104a55760405162461bcd60e51b815260040161049c90611156565b600061067b826010611044565b8351101561069b5760405162461bcd60e51b815260040161049c90611198565b50016010015190565b60006106b182600c611044565b835110156106d15760405162461bcd60e51b815260040161049c906111da565b5001600c015190565b60006106e7826020611044565b835110156107075760405162461bcd60e51b815260040161049c9061121c565b50016020015190565b600061071d826008611044565b8351101561073d5760405162461bcd60e51b815260040161049c9061125e565b50016008015190565b6000610753826005611044565b835110156107735760405162461bcd60e51b815260040161049c906112a0565b50016005015190565b6000610789826003611044565b835110156107a95760405162461bcd60e51b815260040161049c906112e2565b50016003015190565b60006107bf826007611044565b835110156107df5760405162461bcd60e51b815260040161049c90611324565b50016007015190565b60006107f5826020611044565b835110156107075760405162461bcd60e51b815260040161049c90611366565b6000610822826008611044565b8351101561073d5760405162461bcd60e51b815260040161049c906113a8565b600061084f826002611044565b8351101561086f5760405162461bcd60e51b815260040161049c906113ea565b50016002015190565b6000610885826007611044565b835110156107df5760405162461bcd60e51b815260040161049c9061142c565b60006108b282600c611044565b835110156106d15760405162461bcd60e51b815260040161049c9061146e565b60006108df826005611044565b835110156107735760405162461bcd60e51b815260040161049c906114b0565b60608161090d81601f611044565b101561092b5760405162461bcd60e51b815260040161049c906114f2565b6109358284611044565b845110156109555760405162461bcd60e51b815260040161049c90611534565b60608215801561097457604051915060008252602082016040526109be565b6040519150601f8416801560200281840101858101878315602002848b0101015b818310156109ad578051835260209283019201610995565b5050858452601f01601f1916604052505b50949350505050565b60006109d4826010611044565b8351101561069b5760405162461bcd60e51b815260040161049c90611576565b6000610a01826014611044565b83511015610a215760405162461bcd60e51b815260040161049c906115b8565b5001602001516c01000000000000000000000000900490565b6000610a47826001611044565b8351101561062b5760405162461bcd60e51b815260040161049c906115fa565b7f4e487b7100000000000000000000000000000000000000000000000000000000600052604160045260246000fd5b601f19601f830116810181811067ffffffffffffffff82111715610abc57610abc610a67565b6040525050565b6000610ace60405190565b9050610ada8282610a96565b919050565b600067ffffffffffffffff821115610af957610af9610a67565b601f19601f83011660200192915050565b82818337506000910152565b6000610b29610b2484610adf565b610ac3565b905082815260208101848484011115610b4457610b44600080fd5b610b4f848285610b0a565b509392505050565b600082601f830112610b6b57610b6b600080fd5b8135610b7b848260208601610b16565b949350505050565b8035610594565b60008060408385031215610ba057610ba0600080fd5b823567ffffffffffffffff811115610bba57610bba600080fd5b610bc685828601610b57565b9250506020610bd785828601610b83565b9150509250929050565b7fffffffffffff000000000000000000000000000000000000000000000000000081165b82525050565b602081016105948284610be1565b63ffffffff8116610c05565b602081016105948284610c19565b60008060408385031215610c4957610c49600080fd5b6000610c558585610b83565b925050602083013567ffffffffffffffff811115610c7557610c75600080fd5b610bd785828601610b57565b801515610c05565b602081016105948284610c81565b60008060408385031215610cad57610cad600080fd5b823567ffffffffffffffff811115610cc757610cc7600080fd5b610c5585828601610b57565b60ff8116610c05565b602081016105948284610cd3565b600060208284031215610cff57610cff600080fd5b813567ffffffffffffffff811115610d1957610d19600080fd5b610b7b84828501610b57565b61ffff8116610c05565b602081016105948284610d25565b65ffffffffffff8116610c05565b602081016105948284610d3d565b6fffffffffffffffffffffffffffffffff8116610c05565b602081016105948284610d59565b7fffffffffffffffffffffffff00000000000000000000000000000000000000008116610c05565b602081016105948284610d7f565b80610c05565b602081016105948284610db5565b67ffffffffffffffff8116610c05565b602081016105948284610dc9565b7fffffffffff0000000000000000000000000000000000000000000000000000008116610c05565b602081016105948284610de7565b62ffffff8116610c05565b602081016105948284610e1d565b66ffffffffffffff8116610c05565b602081016105948284610e36565b7fffffffffffffff000000000000000000000000000000000000000000000000008116610c05565b602081016105948284610e53565b6bffffffffffffffffffffffff8116610c05565b602081016105948284610e89565b64ffffffffff8116610c05565b602081016105948284610eab565b600080600060608486031215610ede57610ede600080fd5b833567ffffffffffffffff811115610ef857610ef8600080fd5b610f0486828701610b57565b9350506020610f1586828701610b83565b9250506040610f2686828701610b83565b9150509250925092565b60005b83811015610f4b578181015183820152602001610f33565b83811115610f5a576000848401525b50505050565b6000610f6a825190565b808452602084019350610f81818560208601610f30565b601f01601f19169290920192915050565b60208082528101610fa38184610f60565b9392505050565b600073ffffffffffffffffffffffffffffffffffffffff8216610594565b610c0581610faa565b602081016105948284610fc8565b7fff000000000000000000000000000000000000000000000000000000000000008116610c05565b602081016105948284610fdf565b7f4e487b7100000000000000000000000000000000000000000000000000000000600052601160045260246000fd5b6000821982111561105757611057611015565b500190565b60148152602081017f746f4279746573365f6f75744f66426f756e6473000000000000000000000000815290505b60200190565b602080825281016105948161105c565b60148152602081017f746f55696e7433325f6f75744f66426f756e64730000000000000000000000008152905061108a565b60208082528101610594816110a0565b60138152602081017f746f55696e74385f6f75744f66426f756e6473000000000000000000000000008152905061108a565b60208082528101610594816110e2565b60148152602081017f746f55696e7434385f6f75744f66426f756e64730000000000000000000000008152905061108a565b6020808252810161059481611124565b60158152602081017f746f55696e743132385f6f75744f66426f756e647300000000000000000000008152905061108a565b6020808252810161059481611166565b60158152602081017f746f427974657331325f6f75744f66426f756e647300000000000000000000008152905061108a565b60208082528101610594816111a8565b60158152602081017f746f427974657333325f6f75744f66426f756e647300000000000000000000008152905061108a565b60208082528101610594816111ea565b60148152602081017f746f55696e7436345f6f75744f66426f756e64730000000000000000000000008152905061108a565b602080825281016105948161122c565b60148152602081017f746f4279746573355f6f75744f66426f756e64730000000000000000000000008152905061108a565b602080825281016105948161126e565b60148152602081017f746f55696e7432345f6f75744f66426f756e64730000000000000000000000008152905061108a565b60208082528101610594816112b0565b60148152602081017f746f55696e7435365f6f75744f66426f756e64730000000000000000000000008152905061108a565b60208082528101610594816112f2565b60158152602081017f746f55696e743235365f6f75744f66426f756e647300000000000000000000008152905061108a565b6020808252810161059481611334565b60148152602081017f746f4279746573385f6f75744f66426f756e64730000000000000000000000008152905061108a565b6020808252810161059481611376565b60148152602081017f746f55696e7431365f6f75744f66426f756e64730000000000000000000000008152905061108a565b60208082528101610594816113b8565b60148152602081017f746f4279746573375f6f75744f66426f756e64730000000000000000000000008152905061108a565b60208082528101610594816113fa565b60148152602081017f746f55696e7439365f6f75744f66426f756e64730000000000000000000000008152905061108a565b602080825281016105948161143c565b60148152602081017f746f55696e7434305f6f75744f66426f756e64730000000000000000000000008152905061108a565b602080825281016105948161147e565b600e8152602081017f736c6963655f6f766572666c6f770000000000000000000000000000000000008152905061108a565b60208082528101610594816114c0565b60118152602081017f736c6963655f6f75744f66426f756e64730000000000000000000000000000008152905061108a565b6020808252810161059481611502565b60158152602081017f746f427974657331365f6f75744f66426f756e647300000000000000000000008152905061108a565b6020808252810161059481611544565b60158152602081017f746f416464726573735f6f75744f66426f756e647300000000000000000000008152905061108a565b6020808252810161059481611586565b60148152602081017f746f4279746573315f6f75744f66426f756e64730000000000000000000000008152905061108a565b60208082528101610594816115c856fea2646970667358221220a86f706df737567a92408e3d07101e1e47f74fddaef240e6bb4a9f0e9c238e2464736f6c634300080c0033",
  "devdoc": {
    "kind": "dev",
    "methods": {},
    "version": 1
  },
  "userdoc": {
    "kind": "user",
    "methods": {},
    "version": 1
  },
  "storageLayout": {
    "storage": [],
    "types": null
  }
}