{
  "address": "0x5f97B42D6dd85a32AD84406154cCDbCFd1701E26",
  "abi": [
    {
      "inputs": [
        {
          "internalType": "uint256",
          "name": "characteristic",
          "type": "uint256"
        }
      ],
      "name": "CharacteristicOutOfRange",
      "type": "error"
    },
    {
      "inputs": [
        {
          "internalType": "uint256",
          "name": "_size",
          "type": "uint256"
        },
        {
          "internalType": "uint256",
          "name": "_start",
          "type": "uint256"
        },
        {
          "internalType": "uint256",
          "name": "_end",
          "type": "uint256"
        }
      ],
      "name": "InvalidCodeAtRange",
      "type": "error"
    },
    {
      "inputs": [
        {
          "internalType": "uint256",
          "name": "length",
          "type": "uint256"
        }
      ],
      "name": "InvalidLength",
      "type": "error"
    },
    {
      "inputs": [
        {
          "internalType": "uint256",
          "name": "trait",
          "type": "uint256"
        }
      ],
      "name": "TraitOutOfRange",
      "type": "error"
    },
    {
      "inputs": [],
      "name": "FILL_TAG",
      "outputs": [
        {
          "internalType": "string",
          "name": "",
          "type": "string"
        }
      ],
      "stateMutability": "view",
      "type": "function"
    },
    {
      "inputs": [],
      "name": "HEIGHT_TAG",
      "outputs": [
        {
          "internalType": "string",
          "name": "",
          "type": "string"
        }
      ],
      "stateMutability": "view",
      "type": "function"
    },
    {
      "inputs": [],
      "name": "RECT_TAG_END",
      "outputs": [
        {
          "internalType": "string",
          "name": "",
          "type": "string"
        }
      ],
      "stateMutability": "view",
      "type": "function"
    },
    {
      "inputs": [],
      "name": "RECT_TAG_START",
      "outputs": [
        {
          "internalType": "string",
          "name": "",
          "type": "string"
        }
      ],
      "stateMutability": "view",
      "type": "function"
    },
    {
      "inputs": [],
      "name": "WIDTH_TAG",
      "outputs": [
        {
          "internalType": "string",
          "name": "",
          "type": "string"
        }
      ],
      "stateMutability": "view",
      "type": "function"
    },
    {
      "inputs": [],
      "name": "Y_TAG",
      "outputs": [
        {
          "internalType": "string",
          "name": "",
          "type": "string"
        }
      ],
      "stateMutability": "view",
      "type": "function"
    },
    {
      "inputs": [
        {
          "internalType": "bytes4",
          "name": "rectBytes",
          "type": "bytes4"
        },
        {
          "internalType": "string[]",
          "name": "palette",
          "type": "string[]"
        },
        {
          "internalType": "uint256",
          "name": "offsetX",
          "type": "uint256"
        },
        {
          "internalType": "uint256",
          "name": "offsetY",
          "type": "uint256"
        }
      ],
      "name": "decodeBytes4ToRect",
      "outputs": [
        {
          "internalType": "string",
          "name": "",
          "type": "string"
        }
      ],
      "stateMutability": "pure",
      "type": "function"
    },
    {
      "inputs": [
        {
          "internalType": "bytes4",
          "name": "rectBytes",
          "type": "bytes4"
        },
        {
          "internalType": "string[]",
          "name": "palette",
          "type": "string[]"
        }
      ],
      "name": "decodeBytes4ToRect",
      "outputs": [
        {
          "internalType": "string",
          "name": "",
          "type": "string"
        }
      ],
      "stateMutability": "pure",
      "type": "function"
    },
    {
      "inputs": [
        {
          "internalType": "bytes",
          "name": "rectsBytes",
          "type": "bytes"
        },
        {
          "internalType": "string[]",
          "name": "palette",
          "type": "string[]"
        }
      ],
      "name": "decodeBytesMemoryToRects",
      "outputs": [
        {
          "internalType": "string",
          "name": "",
          "type": "string"
        }
      ],
      "stateMutability": "pure",
      "type": "function"
    },
    {
      "inputs": [
        {
          "internalType": "address",
          "name": "collectionPointer",
          "type": "address"
        },
        {
          "internalType": "address",
          "name": "palettePointer",
          "type": "address"
        },
        {
          "internalType": "uint256[]",
          "name": "items",
          "type": "uint256[]"
        }
      ],
      "name": "decodeImage",
      "outputs": [
        {
          "internalType": "string",
          "name": "",
          "type": "string"
        }
      ],
      "stateMutability": "view",
      "type": "function"
    },
    {
      "inputs": [
        {
          "internalType": "address",
          "name": "pointer",
          "type": "address"
        },
        {
          "internalType": "uint256",
          "name": "characteristicIndex",
          "type": "uint256"
        },
        {
          "internalType": "uint256",
          "name": "traitIndex",
          "type": "uint256"
        }
      ],
      "name": "getTraitBytes",
      "outputs": [
        {
          "internalType": "bytes",
          "name": "",
          "type": "bytes"
        }
      ],
      "stateMutability": "view",
      "type": "function"
    },
    {
      "inputs": [
        {
          "internalType": "address",
          "name": "pointer",
          "type": "address"
        },
        {
          "internalType": "uint256[]",
          "name": "items",
          "type": "uint256[]"
        }
      ],
      "name": "imageBytes",
      "outputs": [
        {
          "internalType": "bytes",
          "name": "",
          "type": "bytes"
        }
      ],
      "stateMutability": "view",
      "type": "function"
    }
  ],
  "transactionHash": "0xf4d795706d5a4b7c01ff01d8320625c0049d2b29382d2ea88a0a9d40c399ed86",
  "args": [],
  "numDeployments": 1,
  "solcInputHash": "cf4062d6e14cbd44f5db31ab6a3c9f76",
  "bytecode": "0x611a4461003a600b82828239805160001a60731461002d57634e487b7160e01b600052600060045260246000fd5b30600052607381538281f3fe73000000000000000000000000000000000000000030146080604052600436106100de5760003560e01c80635e99a6301161008b578063b674b76111610065578063b674b76114610271578063f258feb1146102ad578063f3ab4be7146102c057600080fd5b80635e99a6301461020f57806369db9ed014610222578063999086e31461025e57600080fd5b80634239abe4116100bc5780634239abe41461018457806343c8ecbe146101975780634d32bd7d146101d357600080fd5b8063146f9480146100e35780632bc4c43014610135578063407134de14610148575b600080fd5b61011f6040518060400160405280601081526020017f2532372532306865696768743d2532370000000000000000000000000000000081525081565b60405161012c9190611021565b60405180910390f35b61011f610143366004611188565b6102d3565b61011f6040518060400160405280600781526020017f2532372f2533650000000000000000000000000000000000000000000000000081525081565b61011f6101923660046111f3565b610381565b61011f6040518060400160405280600f81526020017f25323725323077696474683d253237000000000000000000000000000000000081525081565b61011f6040518060400160405280600b81526020017f253237253230793d25323700000000000000000000000000000000000000000081525081565b61011f61021d366004611393565b61079e565b61011f6040518060400160405280600f81526020017f25336372656374253230783d253237000000000000000000000000000000000081525081565b61011f61026c366004611412565b610b71565b61011f6040518060400160405280601181526020017f25323725323066696c6c3d25323725323300000000000000000000000000000081525081565b61011f6102bb366004611484565b610d8b565b61011f6102ce3660046114a6565b610d9a565b60606103776102e28584610d9a565b6040517f657fb2e10000000000000000000000000000000000000000000000000000000081527365cE0d8c7f13F821508201B1434b1e726C172c1E9063657fb2e190610332908890600401611503565b600060405180830381865af415801561034f573d6000803e3d6000fd5b505050506040513d6000823e601f3d908101601f1916820160405261026c91908101906115f9565b90505b9392505050565b606060006103928560006002610ee4565b6040516326b3515760e11b815273f4B0EbA794Ab6A7803686398a782c909E45c0bD891634d66a2ae916103c89190600401611021565b602060405180830381865af41580156103e5573d6000803e3d6000fd5b505050506040513d601f19601f820116820180604052508101906104099190611649565b905083610417600183611680565b61ffff16101561045e57836040517f475e819200000000000000000000000000000000000000000000000000000000815260040161045591906116a5565b60405180910390fd5b60006104a08661046f8760026116b3565b61047a9060026116d2565b6104858860026116b3565b6104909060026116d2565b61049b9060026116d2565b610ee4565b6040516326b3515760e11b815273f4B0EbA794Ab6A7803686398a782c909E45c0bD891634d66a2ae916104d69190600401611021565b602060405180830381865af41580156104f3573d6000803e3d6000fd5b505050506040513d601f19601f820116820180604052508101906105179190611649565b90506000600161053a8861ffff85166105318660026116ea565b61ffff16610ee4565b6040516326b3515760e11b815273f4B0EbA794Ab6A7803686398a782c909E45c0bD891634d66a2ae916105709190600401611021565b602060405180830381865af415801561058d573d6000803e3d6000fd5b505050506040513d601f19601f820116820180604052508101906105b19190611649565b6105bb9190611680565b9050846105c9600183611680565b61ffff16101561060757846040517fab074d5200000000000000000000000000000000000000000000000000000000815260040161045591906116a5565b6000610660886106188860026116b3565b6106238660026116ea565b61ffff1661063191906116d2565b61063c8960026116b3565b6106478760026116ea565b61ffff1661065591906116d2565b61049b9060046116d2565b6040517fbe8b343000000000000000000000000000000000000000000000000000000000815290915061079290899073f4B0EbA794Ab6A7803686398a782c909E45c0bD89063be8b3430906106bc908690600090600401611726565b602060405180830381865af41580156106d9573d6000803e3d6000fd5b505050506040513d601f19601f820116820180604052508101906106fd9190611649565b61070790866116ea565b61ffff168373f4B0EbA794Ab6A7803686398a782c909E45c0bD863be8b3430909160026040518363ffffffff1660e01b8152600401610747929190611726565b602060405180830381865af4158015610764573d6000803e3d6000fd5b505050506040513d601f19601f820116820180604052508101906107889190611649565b61053190876116ea565b98975050505050505050565b60408051808201909152600f81527f25336372656374253230783d253237000000000000000000000000000000000060208201526060906107e38460fa88901c6116d2565b60405163348051d760e11b8152739F04Fa4a9e2acFd40569E344A6A84408140D239591636900a3ae9161081991906004016116a5565b600060405180830381865af4158015610836573d6000803e3d6000fd5b505050506040513d6000823e601f3d908101601f1916820160405261085e9190810190611746565b60408051808201909152600b81527f253237253230793d25323700000000000000000000000000000000000000000060208201526108a385603f60f48b901c166116d2565b60405163348051d760e11b8152739F04Fa4a9e2acFd40569E344A6A84408140D239591636900a3ae916108d991906004016116a5565b600060405180830381865af41580156108f6573d6000803e3d6000fd5b505050506040513d6000823e601f3d908101601f1916820160405261091e9190810190611746565b604080518082018252600f81527f25323725323077696474683d25323700000000000000000000000000000000006020820152905163348051d760e11b8152739F04Fa4a9e2acFd40569E344A6A84408140D239590636900a3ae9061098e90603f60ee8f901c16906004016116a5565b600060405180830381865af41580156109ab573d6000803e3d6000fd5b505050506040513d6000823e601f3d908101601f191682016040526109d39190810190611746565b6040518060400160405280601081526020017f2532372532306865696768743d2532370000000000000000000000000000000081525060088c7bffffffffffffffffffffffffffffffffffffffffffffffffffffffff1916901c60e01c603f1660ff16739F04Fa4a9e2acFd40569E344A6A84408140D2395636900a3ae90916040518263ffffffff1660e01b8152600401610a6e91906116a5565b600060405180830381865af4158015610a8b573d6000803e3d6000fd5b505050506040513d6000823e601f3d908101601f19168201604052610ab39190810190611746565b60408051808201909152601181527f25323725323066696c6c3d25323725323300000000000000000000000000000060208201528c8e6003825191901a908110610aff57610aff611781565b60200260200101516040518060400160405280600781526020017f2532372f25336500000000000000000000000000000000000000000000000000815250604051602001610b579b9a999897969594939291906117b9565b60405160208183030381529060405290505b949350505050565b606060048351610b819190611861565b15610bbb5782516040517fc67eee4b00000000000000000000000000000000000000000000000000000000815260040161045591906116a5565b600060048451610bcb9190611875565b905060008167ffffffffffffffff811115610be857610be8611072565b604051908082528060200260200182016040528015610c1b57816020015b6060815260200190600190039081610c065790505b50905060005b8151811015610cea57610cba73f4B0EbA794Ab6A7803686398a782c909E45c0bD86305d3bb7488610c538560046116b3565b6040518363ffffffff1660e01b8152600401610c70929190611889565b602060405180830381865af4158015610c8d573d6000803e3d6000fd5b505050506040513d601f19601f82011682018060405250810190610cb191906118c0565b60e01b86610d8b565b828281518110610ccc57610ccc611781565b60200260200101819052508080610ce2906118e1565b915050610c21565b506040517f9bce4e14000000000000000000000000000000000000000000000000000000008152732eFa2743B863F3Bd6f624Ac0d58445bC5fB62bf690639bce4e1490610d3b90849060040161196c565b600060405180830381865af4158015610d58573d6000803e3d6000fd5b505050506040513d6000823e601f3d908101601f19168201604052610d809190810190611746565b925050505b92915050565b606061037a838360008061079e565b60606000825167ffffffffffffffff811115610db857610db8611072565b604051908082528060200260200182016040528015610deb57816020015b6060815260200190600190039081610dd65790505b50905060005b8351811015610e4e57610e1e8582868481518110610e1157610e11611781565b6020026020010151610381565b828281518110610e3057610e30611781565b60200260200101819052508080610e46906118e1565b915050610df1565b506040517f2a7f1c04000000000000000000000000000000000000000000000000000000008152732eFa2743B863F3Bd6f624Ac0d58445bC5fB62bf690632a7f1c0490610e9f9084906004016119d5565b600060405180830381865af4158015610ebc573d6000803e3d6000fd5b505050506040513d6000823e601f3d908101601f19168201604052610b699190810190611746565b606061037784610ef58560016116d2565b610f008560016116d2565b6060833b80610f1f57505060408051602081019091526000815261037a565b80841115610f3d57505060408051602081019091526000815261037a565b83831015610f7d578084846040517f2c4a89fa000000000000000000000000000000000000000000000000000000008152600401610455939291906119e6565b8383038482036000828210610f925782610f94565b815b60408051603f8301601f19168101909152818152955090508087602087018a3c505050509392505050565b60005b83811015610fda578181015183820152602001610fc2565b83811115610fe9576000848401525b50505050565b6000610ff9825190565b808452602084019350611010818560208601610fbf565b601f01601f19169290920192915050565b6020808252810161037a8184610fef565b600073ffffffffffffffffffffffffffffffffffffffff8216610d85565b61105981611032565b811461106457600080fd5b50565b8035610d8581611050565b634e487b7160e01b600052604160045260246000fd5b601f19601f830116810181811067ffffffffffffffff821117156110ae576110ae611072565b6040525050565b60006110c060405190565b90506110cc8282611088565b919050565b600067ffffffffffffffff8211156110eb576110eb611072565b5060209081020190565b80611059565b8035610d85816110f5565b6000611119611114846110d1565b6110b5565b8381529050602080820190840283018581111561113857611138600080fd5b835b8181101561115a5761114c87826110fb565b83526020928301920161113a565b5050509392505050565b600082601f83011261117857611178600080fd5b8135610b69848260208601611106565b6000806000606084860312156111a0576111a0600080fd5b60006111ac8686611067565b93505060206111bd86828701611067565b925050604084013567ffffffffffffffff8111156111dd576111dd600080fd5b6111e986828701611164565b9150509250925092565b60008060006060848603121561120b5761120b600080fd5b60006112178686611067565b9350506020611228868287016110fb565b92505060406111e9868287016110fb565b7fffffffff000000000000000000000000000000000000000000000000000000008116611059565b8035610d8581611239565b600067ffffffffffffffff82111561128657611286611072565b601f19601f83011660200192915050565b82818337506000910152565b60006112b16111148461126c565b9050828152602081018484840111156112cc576112cc600080fd5b6112d7848285611297565b509392505050565b600082601f8301126112f3576112f3600080fd5b8135610b698482602086016112a3565b6000611311611114846110d1565b8381529050602080820190840283018581111561133057611330600080fd5b835b8181101561115a57803567ffffffffffffffff81111561135457611354600080fd5b850161136088826112df565b84525060209283019201611332565b600082601f83011261138357611383600080fd5b8135610b69848260208601611303565b600080600080608085870312156113ac576113ac600080fd5b60006113b88787611261565b945050602085013567ffffffffffffffff8111156113d8576113d8600080fd5b6113e48782880161136f565b93505060406113f5878288016110fb565b9250506060611406878288016110fb565b91505092959194509250565b6000806040838503121561142857611428600080fd5b823567ffffffffffffffff81111561144257611442600080fd5b61144e858286016112df565b925050602083013567ffffffffffffffff81111561146e5761146e600080fd5b61147a8582860161136f565b9150509250929050565b6000806040838503121561149a5761149a600080fd5b600061144e8585611261565b600080604083850312156114bc576114bc600080fd5b60006114c88585611067565b925050602083013567ffffffffffffffff8111156114e8576114e8600080fd5b61147a85828601611164565b6114fd81611032565b82525050565b60208101610d8582846114f4565b600061151f6111148461126c565b90508281526020810184848401111561153a5761153a600080fd5b6112d7848285610fbf565b600082601f83011261155957611559600080fd5b8151610b69848260208601611511565b6000611577611114846110d1565b8381529050602080820190840283018581111561159657611596600080fd5b835b8181101561115a57805167ffffffffffffffff8111156115ba576115ba600080fd5b85016115c68882611545565b84525060209283019201611598565b600082601f8301126115e9576115e9600080fd5b8151610b69848260208601611569565b60006020828403121561160e5761160e600080fd5b815167ffffffffffffffff81111561162857611628600080fd5b610b69848285016115d5565b61ffff8116611059565b8051610d8581611634565b60006020828403121561165e5761165e600080fd5b6000610b69848461163e565b634e487b7160e01b600052601160045260246000fd5b61ffff918216911660008282101561169a5761169a61166a565b500390565b806114fd565b60208101610d85828461169f565b60008160001904831182151516156116cd576116cd61166a565b500290565b600082198211156116e5576116e561166a565b500190565b61ffff8116905061ffff8216915060008261ffff038211156116e5576116e561166a565b6000610d8561171a8381565b90565b6114fd8161170e565b604080825281016117378185610fef565b905061037a602083018461171d565b60006020828403121561175b5761175b600080fd5b815167ffffffffffffffff81111561177557611775600080fd5b610b6984828501611545565b634e487b7160e01b600052603260045260246000fd5b60006117a1825190565b6117af818560208601610fbf565b9290920192915050565b6117c3818d611797565b90506117cf818c611797565b90506117db818b611797565b90506117e7818a611797565b90506117f38189611797565b90506117ff8188611797565b905061180b8187611797565b90506118178186611797565b90506118238185611797565b905061182f8184611797565b905061183b8183611797565b9c9b505050505050505050505050565b634e487b7160e01b600052601260045260246000fd5b6000826118705761187061184b565b500690565b6000826118845761188461184b565b500490565b6040808252810161189a8185610fef565b905061037a602083018461169f565b63ffffffff8116611059565b8051610d85816118a9565b6000602082840312156118d5576118d5600080fd5b6000610b6984846118b5565b60006000198214156118f5576118f561166a565b5060010190565b600061037a8383610fef565b6000611912825190565b8084526020840193508360208202850161192c8560200190565b60005b84811015611960578383038852815161194884826118fc565b9350506020820160209890980197915060010161192f565b50909695505050505050565b6020808252810161037a8184611908565b6000611987825190565b808452602084019350836020820285016119a18560200190565b60005b8481101561196057838303885281516119bd84826118fc565b935050602082016020989098019791506001016119a4565b6020808252810161037a818461197d565b606081016119f4828661169f565b611a01602083018561169f565b610b69604083018461169f56fea264697066735822122061abfb172bfb092147f7839412d9a96bf825899e3a27d82bcfd628fdfd3cd5b964736f6c634300080c0033",
  "deployedBytecode": "0x73000000000000000000000000000000000000000030146080604052600436106100de5760003560e01c80635e99a6301161008b578063b674b76111610065578063b674b76114610271578063f258feb1146102ad578063f3ab4be7146102c057600080fd5b80635e99a6301461020f57806369db9ed014610222578063999086e31461025e57600080fd5b80634239abe4116100bc5780634239abe41461018457806343c8ecbe146101975780634d32bd7d146101d357600080fd5b8063146f9480146100e35780632bc4c43014610135578063407134de14610148575b600080fd5b61011f6040518060400160405280601081526020017f2532372532306865696768743d2532370000000000000000000000000000000081525081565b60405161012c9190611021565b60405180910390f35b61011f610143366004611188565b6102d3565b61011f6040518060400160405280600781526020017f2532372f2533650000000000000000000000000000000000000000000000000081525081565b61011f6101923660046111f3565b610381565b61011f6040518060400160405280600f81526020017f25323725323077696474683d253237000000000000000000000000000000000081525081565b61011f6040518060400160405280600b81526020017f253237253230793d25323700000000000000000000000000000000000000000081525081565b61011f61021d366004611393565b61079e565b61011f6040518060400160405280600f81526020017f25336372656374253230783d253237000000000000000000000000000000000081525081565b61011f61026c366004611412565b610b71565b61011f6040518060400160405280601181526020017f25323725323066696c6c3d25323725323300000000000000000000000000000081525081565b61011f6102bb366004611484565b610d8b565b61011f6102ce3660046114a6565b610d9a565b60606103776102e28584610d9a565b6040517f657fb2e100000000000000000000000000000000000000000000000000000000815273__$a3a071aacdae8c5bfe97b14bed70ff3096$__9063657fb2e190610332908890600401611503565b600060405180830381865af415801561034f573d6000803e3d6000fd5b505050506040513d6000823e601f3d908101601f1916820160405261026c91908101906115f9565b90505b9392505050565b606060006103928560006002610ee4565b6040516326b3515760e11b815273__$dcaad1777d2b99f53d9a752b008027c0a6$__91634d66a2ae916103c89190600401611021565b602060405180830381865af41580156103e5573d6000803e3d6000fd5b505050506040513d601f19601f820116820180604052508101906104099190611649565b905083610417600183611680565b61ffff16101561045e57836040517f475e819200000000000000000000000000000000000000000000000000000000815260040161045591906116a5565b60405180910390fd5b60006104a08661046f8760026116b3565b61047a9060026116d2565b6104858860026116b3565b6104909060026116d2565b61049b9060026116d2565b610ee4565b6040516326b3515760e11b815273__$dcaad1777d2b99f53d9a752b008027c0a6$__91634d66a2ae916104d69190600401611021565b602060405180830381865af41580156104f3573d6000803e3d6000fd5b505050506040513d601f19601f820116820180604052508101906105179190611649565b90506000600161053a8861ffff85166105318660026116ea565b61ffff16610ee4565b6040516326b3515760e11b815273__$dcaad1777d2b99f53d9a752b008027c0a6$__91634d66a2ae916105709190600401611021565b602060405180830381865af415801561058d573d6000803e3d6000fd5b505050506040513d601f19601f820116820180604052508101906105b19190611649565b6105bb9190611680565b9050846105c9600183611680565b61ffff16101561060757846040517fab074d5200000000000000000000000000000000000000000000000000000000815260040161045591906116a5565b6000610660886106188860026116b3565b6106238660026116ea565b61ffff1661063191906116d2565b61063c8960026116b3565b6106478760026116ea565b61ffff1661065591906116d2565b61049b9060046116d2565b6040517fbe8b343000000000000000000000000000000000000000000000000000000000815290915061079290899073__$dcaad1777d2b99f53d9a752b008027c0a6$__9063be8b3430906106bc908690600090600401611726565b602060405180830381865af41580156106d9573d6000803e3d6000fd5b505050506040513d601f19601f820116820180604052508101906106fd9190611649565b61070790866116ea565b61ffff168373__$dcaad1777d2b99f53d9a752b008027c0a6$__63be8b3430909160026040518363ffffffff1660e01b8152600401610747929190611726565b602060405180830381865af4158015610764573d6000803e3d6000fd5b505050506040513d601f19601f820116820180604052508101906107889190611649565b61053190876116ea565b98975050505050505050565b60408051808201909152600f81527f25336372656374253230783d253237000000000000000000000000000000000060208201526060906107e38460fa88901c6116d2565b60405163348051d760e11b815273__$bddea793ab3ab242e0f42fcbbce9ecfcb5$__91636900a3ae9161081991906004016116a5565b600060405180830381865af4158015610836573d6000803e3d6000fd5b505050506040513d6000823e601f3d908101601f1916820160405261085e9190810190611746565b60408051808201909152600b81527f253237253230793d25323700000000000000000000000000000000000000000060208201526108a385603f60f48b901c166116d2565b60405163348051d760e11b815273__$bddea793ab3ab242e0f42fcbbce9ecfcb5$__91636900a3ae916108d991906004016116a5565b600060405180830381865af41580156108f6573d6000803e3d6000fd5b505050506040513d6000823e601f3d908101601f1916820160405261091e9190810190611746565b604080518082018252600f81527f25323725323077696474683d25323700000000000000000000000000000000006020820152905163348051d760e11b815273__$bddea793ab3ab242e0f42fcbbce9ecfcb5$__90636900a3ae9061098e90603f60ee8f901c16906004016116a5565b600060405180830381865af41580156109ab573d6000803e3d6000fd5b505050506040513d6000823e601f3d908101601f191682016040526109d39190810190611746565b6040518060400160405280601081526020017f2532372532306865696768743d2532370000000000000000000000000000000081525060088c7bffffffffffffffffffffffffffffffffffffffffffffffffffffffff1916901c60e01c603f1660ff1673__$bddea793ab3ab242e0f42fcbbce9ecfcb5$__636900a3ae90916040518263ffffffff1660e01b8152600401610a6e91906116a5565b600060405180830381865af4158015610a8b573d6000803e3d6000fd5b505050506040513d6000823e601f3d908101601f19168201604052610ab39190810190611746565b60408051808201909152601181527f25323725323066696c6c3d25323725323300000000000000000000000000000060208201528c8e6003825191901a908110610aff57610aff611781565b60200260200101516040518060400160405280600781526020017f2532372f25336500000000000000000000000000000000000000000000000000815250604051602001610b579b9a999897969594939291906117b9565b60405160208183030381529060405290505b949350505050565b606060048351610b819190611861565b15610bbb5782516040517fc67eee4b00000000000000000000000000000000000000000000000000000000815260040161045591906116a5565b600060048451610bcb9190611875565b905060008167ffffffffffffffff811115610be857610be8611072565b604051908082528060200260200182016040528015610c1b57816020015b6060815260200190600190039081610c065790505b50905060005b8151811015610cea57610cba73__$dcaad1777d2b99f53d9a752b008027c0a6$__6305d3bb7488610c538560046116b3565b6040518363ffffffff1660e01b8152600401610c70929190611889565b602060405180830381865af4158015610c8d573d6000803e3d6000fd5b505050506040513d601f19601f82011682018060405250810190610cb191906118c0565b60e01b86610d8b565b828281518110610ccc57610ccc611781565b60200260200101819052508080610ce2906118e1565b915050610c21565b506040517f9bce4e1400000000000000000000000000000000000000000000000000000000815273__$3d939fd680257e7df63fc3436eced304ff$__90639bce4e1490610d3b90849060040161196c565b600060405180830381865af4158015610d58573d6000803e3d6000fd5b505050506040513d6000823e601f3d908101601f19168201604052610d809190810190611746565b925050505b92915050565b606061037a838360008061079e565b60606000825167ffffffffffffffff811115610db857610db8611072565b604051908082528060200260200182016040528015610deb57816020015b6060815260200190600190039081610dd65790505b50905060005b8351811015610e4e57610e1e8582868481518110610e1157610e11611781565b6020026020010151610381565b828281518110610e3057610e30611781565b60200260200101819052508080610e46906118e1565b915050610df1565b506040517f2a7f1c0400000000000000000000000000000000000000000000000000000000815273__$3d939fd680257e7df63fc3436eced304ff$__90632a7f1c0490610e9f9084906004016119d5565b600060405180830381865af4158015610ebc573d6000803e3d6000fd5b505050506040513d6000823e601f3d908101601f19168201604052610b699190810190611746565b606061037784610ef58560016116d2565b610f008560016116d2565b6060833b80610f1f57505060408051602081019091526000815261037a565b80841115610f3d57505060408051602081019091526000815261037a565b83831015610f7d578084846040517f2c4a89fa000000000000000000000000000000000000000000000000000000008152600401610455939291906119e6565b8383038482036000828210610f925782610f94565b815b60408051603f8301601f19168101909152818152955090508087602087018a3c505050509392505050565b60005b83811015610fda578181015183820152602001610fc2565b83811115610fe9576000848401525b50505050565b6000610ff9825190565b808452602084019350611010818560208601610fbf565b601f01601f19169290920192915050565b6020808252810161037a8184610fef565b600073ffffffffffffffffffffffffffffffffffffffff8216610d85565b61105981611032565b811461106457600080fd5b50565b8035610d8581611050565b634e487b7160e01b600052604160045260246000fd5b601f19601f830116810181811067ffffffffffffffff821117156110ae576110ae611072565b6040525050565b60006110c060405190565b90506110cc8282611088565b919050565b600067ffffffffffffffff8211156110eb576110eb611072565b5060209081020190565b80611059565b8035610d85816110f5565b6000611119611114846110d1565b6110b5565b8381529050602080820190840283018581111561113857611138600080fd5b835b8181101561115a5761114c87826110fb565b83526020928301920161113a565b5050509392505050565b600082601f83011261117857611178600080fd5b8135610b69848260208601611106565b6000806000606084860312156111a0576111a0600080fd5b60006111ac8686611067565b93505060206111bd86828701611067565b925050604084013567ffffffffffffffff8111156111dd576111dd600080fd5b6111e986828701611164565b9150509250925092565b60008060006060848603121561120b5761120b600080fd5b60006112178686611067565b9350506020611228868287016110fb565b92505060406111e9868287016110fb565b7fffffffff000000000000000000000000000000000000000000000000000000008116611059565b8035610d8581611239565b600067ffffffffffffffff82111561128657611286611072565b601f19601f83011660200192915050565b82818337506000910152565b60006112b16111148461126c565b9050828152602081018484840111156112cc576112cc600080fd5b6112d7848285611297565b509392505050565b600082601f8301126112f3576112f3600080fd5b8135610b698482602086016112a3565b6000611311611114846110d1565b8381529050602080820190840283018581111561133057611330600080fd5b835b8181101561115a57803567ffffffffffffffff81111561135457611354600080fd5b850161136088826112df565b84525060209283019201611332565b600082601f83011261138357611383600080fd5b8135610b69848260208601611303565b600080600080608085870312156113ac576113ac600080fd5b60006113b88787611261565b945050602085013567ffffffffffffffff8111156113d8576113d8600080fd5b6113e48782880161136f565b93505060406113f5878288016110fb565b9250506060611406878288016110fb565b91505092959194509250565b6000806040838503121561142857611428600080fd5b823567ffffffffffffffff81111561144257611442600080fd5b61144e858286016112df565b925050602083013567ffffffffffffffff81111561146e5761146e600080fd5b61147a8582860161136f565b9150509250929050565b6000806040838503121561149a5761149a600080fd5b600061144e8585611261565b600080604083850312156114bc576114bc600080fd5b60006114c88585611067565b925050602083013567ffffffffffffffff8111156114e8576114e8600080fd5b61147a85828601611164565b6114fd81611032565b82525050565b60208101610d8582846114f4565b600061151f6111148461126c565b90508281526020810184848401111561153a5761153a600080fd5b6112d7848285610fbf565b600082601f83011261155957611559600080fd5b8151610b69848260208601611511565b6000611577611114846110d1565b8381529050602080820190840283018581111561159657611596600080fd5b835b8181101561115a57805167ffffffffffffffff8111156115ba576115ba600080fd5b85016115c68882611545565b84525060209283019201611598565b600082601f8301126115e9576115e9600080fd5b8151610b69848260208601611569565b60006020828403121561160e5761160e600080fd5b815167ffffffffffffffff81111561162857611628600080fd5b610b69848285016115d5565b61ffff8116611059565b8051610d8581611634565b60006020828403121561165e5761165e600080fd5b6000610b69848461163e565b634e487b7160e01b600052601160045260246000fd5b61ffff918216911660008282101561169a5761169a61166a565b500390565b806114fd565b60208101610d85828461169f565b60008160001904831182151516156116cd576116cd61166a565b500290565b600082198211156116e5576116e561166a565b500190565b61ffff8116905061ffff8216915060008261ffff038211156116e5576116e561166a565b6000610d8561171a8381565b90565b6114fd8161170e565b604080825281016117378185610fef565b905061037a602083018461171d565b60006020828403121561175b5761175b600080fd5b815167ffffffffffffffff81111561177557611775600080fd5b610b6984828501611545565b634e487b7160e01b600052603260045260246000fd5b60006117a1825190565b6117af818560208601610fbf565b9290920192915050565b6117c3818d611797565b90506117cf818c611797565b90506117db818b611797565b90506117e7818a611797565b90506117f38189611797565b90506117ff8188611797565b905061180b8187611797565b90506118178186611797565b90506118238185611797565b905061182f8184611797565b905061183b8183611797565b9c9b505050505050505050505050565b634e487b7160e01b600052601260045260246000fd5b6000826118705761187061184b565b500690565b6000826118845761188461184b565b500490565b6040808252810161189a8185610fef565b905061037a602083018461169f565b63ffffffff8116611059565b8051610d85816118a9565b6000602082840312156118d5576118d5600080fd5b6000610b6984846118b5565b60006000198214156118f5576118f561166a565b5060010190565b600061037a8383610fef565b6000611912825190565b8084526020840193508360208202850161192c8560200190565b60005b84811015611960578383038852815161194884826118fc565b9350506020820160209890980197915060010161192f565b50909695505050505050565b6020808252810161037a8184611908565b6000611987825190565b808452602084019350836020820285016119a18560200190565b60005b8481101561196057838303885281516119bd84826118fc565b935050602082016020989098019791506001016119a4565b6020808252810161037a818461197d565b606081016119f4828661169f565b611a01602083018561169f565b610b69604083018461169f56fea264697066735822122061abfb172bfb092147f7839412d9a96bf825899e3a27d82bcfd628fdfd3cd5b964736f6c634300080c0033",
  "libraries": {
    "Array": "0x2eFa2743B863F3Bd6f624Ac0d58445bC5fB62bf6",
    "Bytes": "0xf4B0EbA794Ab6A7803686398a782c909E45c0bD8",
    "Integers": "0x9F04Fa4a9e2acFd40569E344A6A84408140D2395",
    "RendererCommons": "0x65cE0d8c7f13F821508201B1434b1e726C172c1E"
  },
  "devdoc": {
    "author": "Clement Walter <clement0walter@gmail.com>",
    "kind": "dev",
    "methods": {
      "decodeBytesMemoryToRects(bytes,string[])": {
        "details": "Decode a bytes array.",
        "params": {
          "palette": "The image palette.",
          "rectsBytes": "The bytes concatenating several rects, typically from getTraitsBytes"
        },
        "returns": {
          "_0": "A string of all the decoded rects."
        }
      },
      "decodeImage(address,address,uint256[])": {
        "details": "Get the inner part (without the header) of an image, ie the concatenated list of <rect>s.",
        "params": {
          "collectionPointer": "The address of the SSTORE2 contract for the traits.",
          "items": "A list of trait indexes, should be of the same length as the number of characteristics.",
          "palettePointer": "The address of the SSTORE2 contract for the palette."
        },
        "returns": {
          "_0": "The inner part of the svg as a string."
        }
      },
      "getTraitBytes(address,uint256,uint256)": {
        "details": "Retrieve the bytes for the given trait from the traits storage.",
        "params": {
          "characteristicIndex": "The index of the characteristic in the collection.",
          "pointer": "The pointer to the traits stored with SSTORE2.",
          "traitIndex": "The index of the trait in the characteristic."
        },
        "returns": {
          "_0": "The bytes of the trait."
        }
      },
      "imageBytes(address,uint256[])": {
        "details": "Usually, an image is made of a selection of one trait in each characteristic. This function can then be  used to get the single bytes array containing all the data for a given token (set of traits).",
        "params": {
          "items": "A list of trait indexes, should be of the same length as the number of characteristics.",
          "pointer": "The address of the SSTORE2 contract."
        },
        "returns": {
          "_0": "The bytes array for the whole image."
        }
      }
    },
    "title": "RectRenderer   This library can be used to render on-chain images stored as a layering of rectangles.   The returned images is an url safe encoded image uri.",
    "version": 1
  },
  "userdoc": {
    "kind": "user",
    "methods": {},
    "version": 1
  },
  "storageLayout": {
    "storage": [],
    "types": null
  }
}