{
  "address": "0x1FA6A2152871D5A4D1f56511110C9a353CA48339",
  "abi": [
    {
      "inputs": [
        {
          "internalType": "uint256",
          "name": "inputPointer",
          "type": "uint256"
        },
        {
          "internalType": "uint256",
          "name": "gluePointer",
          "type": "uint256"
        }
      ],
      "name": "_joinReferenceType",
      "outputs": [
        {
          "internalType": "bytes",
          "name": "tempBytes",
          "type": "bytes"
        }
      ],
      "stateMutability": "pure",
      "type": "function"
    },
    {
      "inputs": [
        {
          "internalType": "bytes16[]",
          "name": "a",
          "type": "bytes16[]"
        }
      ],
      "name": "join",
      "outputs": [
        {
          "internalType": "bytes",
          "name": "",
          "type": "bytes"
        }
      ],
      "stateMutability": "pure",
      "type": "function"
    },
    {
      "inputs": [
        {
          "internalType": "bytes[]",
          "name": "a",
          "type": "bytes[]"
        }
      ],
      "name": "join",
      "outputs": [
        {
          "internalType": "bytes",
          "name": "",
          "type": "bytes"
        }
      ],
      "stateMutability": "pure",
      "type": "function"
    },
    {
      "inputs": [
        {
          "internalType": "bytes4[]",
          "name": "a",
          "type": "bytes4[]"
        }
      ],
      "name": "join",
      "outputs": [
        {
          "internalType": "bytes",
          "name": "",
          "type": "bytes"
        }
      ],
      "stateMutability": "pure",
      "type": "function"
    },
    {
      "inputs": [
        {
          "internalType": "bytes[]",
          "name": "a",
          "type": "bytes[]"
        },
        {
          "internalType": "bytes",
          "name": "glue",
          "type": "bytes"
        }
      ],
      "name": "join",
      "outputs": [
        {
          "internalType": "bytes",
          "name": "",
          "type": "bytes"
        }
      ],
      "stateMutability": "pure",
      "type": "function"
    },
    {
      "inputs": [
        {
          "internalType": "bytes32[]",
          "name": "a",
          "type": "bytes32[]"
        }
      ],
      "name": "join",
      "outputs": [
        {
          "internalType": "bytes",
          "name": "",
          "type": "bytes"
        }
      ],
      "stateMutability": "pure",
      "type": "function"
    },
    {
      "inputs": [
        {
          "internalType": "bytes3[]",
          "name": "a",
          "type": "bytes3[]"
        }
      ],
      "name": "join",
      "outputs": [
        {
          "internalType": "bytes",
          "name": "",
          "type": "bytes"
        }
      ],
      "stateMutability": "pure",
      "type": "function"
    },
    {
      "inputs": [
        {
          "internalType": "bytes8[]",
          "name": "a",
          "type": "bytes8[]"
        }
      ],
      "name": "join",
      "outputs": [
        {
          "internalType": "bytes",
          "name": "",
          "type": "bytes"
        }
      ],
      "stateMutability": "pure",
      "type": "function"
    },
    {
      "inputs": [
        {
          "internalType": "string[]",
          "name": "a",
          "type": "string[]"
        }
      ],
      "name": "join",
      "outputs": [
        {
          "internalType": "string",
          "name": "",
          "type": "string"
        }
      ],
      "stateMutability": "pure",
      "type": "function"
    },
    {
      "inputs": [
        {
          "internalType": "bytes2[]",
          "name": "a",
          "type": "bytes2[]"
        }
      ],
      "name": "join",
      "outputs": [
        {
          "internalType": "bytes",
          "name": "",
          "type": "bytes"
        }
      ],
      "stateMutability": "pure",
      "type": "function"
    },
    {
      "inputs": [
        {
          "internalType": "uint16[]",
          "name": "a",
          "type": "uint16[]"
        }
      ],
      "name": "join",
      "outputs": [
        {
          "internalType": "bytes",
          "name": "",
          "type": "bytes"
        }
      ],
      "stateMutability": "pure",
      "type": "function"
    },
    {
      "inputs": [
        {
          "internalType": "string[]",
          "name": "a",
          "type": "string[]"
        },
        {
          "internalType": "string",
          "name": "glue",
          "type": "string"
        }
      ],
      "name": "join",
      "outputs": [
        {
          "internalType": "string",
          "name": "",
          "type": "string"
        }
      ],
      "stateMutability": "pure",
      "type": "function"
    }
  ],
  "transactionHash": "0xa9b8357a7ebcd3933daf698ff194ec0fcbfbc4e51b43cee48cd235962fe206f0",
  "args": [],
  "numDeployments": 3,
  "solcInputHash": "0fd3b178f799d37966303d712e8cb795",
  "bytecode": "0x610df161003a600b82828239805160001a60731461002d57634e487b7160e01b600052600060045260246000fd5b30600052607381538281f3fe73000000000000000000000000000000000000000030146080604052600436106100de5760003560e01c8063754536da1161008b578063c9fa24d411610065578063c9fa24d41461019f578063f25f142d146101b2578063fca1c0b9146101c557600080fd5b8063754536da1461016b5780638af7caa91461017e5780639bce4e141461019157600080fd5b806339ec8870116100bc57806339ec8870146101325780633e815a6414610145578063597fc09f1461015857600080fd5b80632a2b9e11146100e35780632a7f1c041461010c5780632fdc8c201461011f575b600080fd5b6100f66100f13660046104f9565b6101d3565b6040516101039190610596565b60405180910390f35b6100f661011a3660046106ce565b6101ea565b6100f661012d3660046107af565b61020b565b6100f66101403660046107ea565b61021b565b6100f66101533660046108e0565b610232565b6100f661016636600461091b565b610242565b6100f66101793660046109f4565b610309565b6100f661018c366004610ad5565b610319565b6100f661011a366004610ba0565b6100f66101ad366004610c81565b610329565b6100f66101c0366004610d44565b610339565b6100f6610140366004610d7f565b6060816101e38160106000610345565b9392505050565b6060610205826040518060200160405280600081525061021b565b92915050565b6060816101e38160046000610345565b606082826102298282610242565b95945050505050565b6060816101e38160206000610345565b60405181516020808301919081111561025a57602084fd5b60208401518551602087016020820281016000825b828110156102c85780518051928301926020918201918104601f821615150160005b818110156102b3578351602082028d0152602084019350600181019050610291565b5050989098018681528701975060200161026f565b507fffffffffffffffffffffffffffffffffffffffffffffffffffffffffffffffff909301909402919091018552505050601f01601f191660405292915050565b6060816101e38160036000610345565b6060816101e38160086000610345565b6060816101e38160026000610345565b6060816101e381600260f05b60608084516020860160208202810160405193508683028452602084019250815b81811015610380578051871b845292870192602001610366565b505050601f01601f191660405290509392505050565b7f4e487b7100000000000000000000000000000000000000000000000000000000600052604160045260246000fd5b601f19601f830116810181811067ffffffffffffffff821117156103eb576103eb610396565b6040525050565b60006103fd60405190565b905061040982826103c5565b919050565b600067ffffffffffffffff82111561042857610428610396565b5060209081020190565b7fffffffffffffffffffffffffffffffff0000000000000000000000000000000081165b811461046157600080fd5b50565b803561020581610432565b600061048261047d8461040e565b6103f2565b838152905060208082019084028301858111156104a1576104a1600080fd5b835b818110156104c3576104b58782610464565b8352602092830192016104a3565b5050509392505050565b600082601f8301126104e1576104e1600080fd5b81356104f184826020860161046f565b949350505050565b60006020828403121561050e5761050e600080fd5b813567ffffffffffffffff81111561052857610528600080fd5b6104f1848285016104cd565b60005b8381101561054f578181015183820152602001610537565b8381111561055e576000848401525b50505050565b600061056e825190565b808452602084019350610585818560208601610534565b601f01601f19169290920192915050565b602080825281016101e38184610564565b600067ffffffffffffffff8211156105c1576105c1610396565b601f19601f83011660200192915050565b82818337506000910152565b60006105ec61047d846105a7565b90508281526020810184848401111561060757610607600080fd5b6106128482856105d2565b509392505050565b600082601f83011261062e5761062e600080fd5b81356104f18482602086016105de565b600061064c61047d8461040e565b8381529050602080820190840283018581111561066b5761066b600080fd5b835b818110156104c357803567ffffffffffffffff81111561068f5761068f600080fd5b850161069b888261061a565b8452506020928301920161066d565b600082601f8301126106be576106be600080fd5b81356104f184826020860161063e565b6000602082840312156106e3576106e3600080fd5b813567ffffffffffffffff8111156106fd576106fd600080fd5b6104f1848285016106aa565b7fffffffff000000000000000000000000000000000000000000000000000000008116610456565b803561020581610709565b600061074a61047d8461040e565b8381529050602080820190840283018581111561076957610769600080fd5b835b818110156104c35761077d8782610731565b83526020928301920161076b565b600082601f83011261079f5761079f600080fd5b81356104f184826020860161073c565b6000602082840312156107c4576107c4600080fd5b813567ffffffffffffffff8111156107de576107de600080fd5b6104f18482850161078b565b6000806040838503121561080057610800600080fd5b823567ffffffffffffffff81111561081a5761081a600080fd5b610826858286016106aa565b925050602083013567ffffffffffffffff81111561084657610846600080fd5b6108528582860161061a565b9150509250929050565b80610456565b80356102058161085c565b600061087b61047d8461040e565b8381529050602080820190840283018581111561089a5761089a600080fd5b835b818110156104c3576108ae8782610862565b83526020928301920161089c565b600082601f8301126108d0576108d0600080fd5b81356104f184826020860161086d565b6000602082840312156108f5576108f5600080fd5b813567ffffffffffffffff81111561090f5761090f600080fd5b6104f1848285016108bc565b6000806040838503121561093157610931600080fd5b600061093d8585610862565b925050602061085285828601610862565b7fffffff00000000000000000000000000000000000000000000000000000000008116610456565b80356102058161094e565b600061098f61047d8461040e565b838152905060208082019084028301858111156109ae576109ae600080fd5b835b818110156104c3576109c28782610976565b8352602092830192016109b0565b600082601f8301126109e4576109e4600080fd5b81356104f1848260208601610981565b600060208284031215610a0957610a09600080fd5b813567ffffffffffffffff811115610a2357610a23600080fd5b6104f1848285016109d0565b7fffffffffffffffff0000000000000000000000000000000000000000000000008116610456565b803561020581610a2f565b6000610a7061047d8461040e565b83815290506020808201908402830185811115610a8f57610a8f600080fd5b835b818110156104c357610aa38782610a57565b835260209283019201610a91565b600082601f830112610ac557610ac5600080fd5b81356104f1848260208601610a62565b600060208284031215610aea57610aea600080fd5b813567ffffffffffffffff811115610b0457610b04600080fd5b6104f184828501610ab1565b6000610b1e61047d8461040e565b83815290506020808201908402830185811115610b3d57610b3d600080fd5b835b818110156104c357803567ffffffffffffffff811115610b6157610b61600080fd5b8501610b6d888261061a565b84525060209283019201610b3f565b600082601f830112610b9057610b90600080fd5b81356104f1848260208601610b10565b600060208284031215610bb557610bb5600080fd5b813567ffffffffffffffff811115610bcf57610bcf600080fd5b6104f184828501610b7c565b7fffff0000000000000000000000000000000000000000000000000000000000008116610456565b803561020581610bdb565b6000610c1c61047d8461040e565b83815290506020808201908402830185811115610c3b57610c3b600080fd5b835b818110156104c357610c4f8782610c03565b835260209283019201610c3d565b600082601f830112610c7157610c71600080fd5b81356104f1848260208601610c0e565b600060208284031215610c9657610c96600080fd5b813567ffffffffffffffff811115610cb057610cb0600080fd5b6104f184828501610c5d565b61ffff8116610456565b803561020581610cbc565b6000610cdf61047d8461040e565b83815290506020808201908402830185811115610cfe57610cfe600080fd5b835b818110156104c357610d128782610cc6565b835260209283019201610d00565b600082601f830112610d3457610d34600080fd5b81356104f1848260208601610cd1565b600060208284031215610d5957610d59600080fd5b813567ffffffffffffffff811115610d7357610d73600080fd5b6104f184828501610d20565b60008060408385031215610d9557610d95600080fd5b823567ffffffffffffffff811115610daf57610daf600080fd5b61082685828601610b7c56fea26469706673582212207f049ea3ac7c58e04eb90b3f0b0451024fb7317f66eb823d4f947a5f3e55151164736f6c634300080c0033",
  "devdoc": {
    "kind": "dev",
    "methods": {
      "join(uint16[])": {
        "details": "Join the underlying array of bytes2 to a string."
      }
    },
    "version": 1
  },
  "userdoc": {
    "kind": "user",
    "methods": {},
    "version": 1
  },
  "storageLayout": {
    "storage": [],
    "types": null
  }
}