{
  "address": "0xc1694e1FA02247DEB49C9BDA378aFbd0190fC9b2",
  "abi": [
    {
      "inputs": [
        {
          "internalType": "string[]",
          "name": "a",
          "type": "string[]"
        }
      ],
      "name": "join",
      "outputs": [
        {
          "internalType": "string",
          "name": "",
          "type": "string"
        }
      ],
      "stateMutability": "pure",
      "type": "function"
    }
  ],
  "transactionHash": "0x765543ea5eca39dd7ea7d5501e0800ca97e208ffc251da6f37e0ccb466b608b6",
  "args": [],
  "numDeployments": 1,
  "solcInputHash": "a729ebf854c20c760b44a22dc9354a8f",
  "bytecode": "0x6103af61003a600b82828239805160001a60731461002d57634e487b7160e01b600052600060045260246000fd5b30600052607381538281f3fe73000000000000000000000000000000000000000030146080604052600436106100355760003560e01c80639bce4e141461003a575b600080fd5b61004d6100483660046102c4565b610063565b60405161005a9190610361565b60405180910390f35b60608060405190506020810183516020850160208202810191506000815b838110156100d55780518051928301926020918201918104601f821615150160005b818110156100c5578351602082028a01526020840193506001810190506100a3565b5050959095019450602001610081565b5084525050601f01601f191660405292915050565b7f4e487b7100000000000000000000000000000000000000000000000000000000600052604160045260246000fd5b601f19601f830116810181811067ffffffffffffffff8211171561013f5761013f6100ea565b6040525050565b600061015160405190565b905061015d8282610119565b919050565b600067ffffffffffffffff82111561017c5761017c6100ea565b5060209081020190565b600067ffffffffffffffff8211156101a0576101a06100ea565b601f19601f83011660200192915050565b82818337506000910152565b60006101d06101cb84610186565b610146565b9050828152602081018484840111156101eb576101eb600080fd5b6101f68482856101b1565b509392505050565b600082601f83011261021257610212600080fd5b81356102228482602086016101bd565b949350505050565b60006102386101cb84610162565b8381529050602080820190840283018581111561025757610257600080fd5b835b8181101561029657803567ffffffffffffffff81111561027b5761027b600080fd5b850161028788826101fe565b84525060209283019201610259565b5050509392505050565b600082601f8301126102b4576102b4600080fd5b813561022284826020860161022a565b6000602082840312156102d9576102d9600080fd5b813567ffffffffffffffff8111156102f3576102f3600080fd5b610222848285016102a0565b60005b8381101561031a578181015183820152602001610302565b83811115610329576000848401525b50505050565b6000610339825190565b8084526020840193506103508185602086016102ff565b601f01601f19169290920192915050565b60208082528101610372818461032f565b939250505056fea2646970667358221220160cbc09ed6f801ce0ce640ce6f9058868814e9fc531227619d045f17a601a0664736f6c634300080c0033",
  "devdoc": {
    "kind": "dev",
    "methods": {},
    "version": 1
  },
  "userdoc": {
    "kind": "user",
    "methods": {},
    "version": 1
  },
  "storageLayout": {
    "storage": [],
    "types": null
  }
}