{
  "address": "0x101FD37102769C7a57d0A1b55DF347C662C14B7d",
  "abi": [
    {
      "inputs": [
        {
          "internalType": "bytes",
          "name": "_preBytes",
          "type": "bytes"
        },
        {
          "internalType": "bytes",
          "name": "_postBytes",
          "type": "bytes"
        }
      ],
      "name": "equal",
      "outputs": [
        {
          "internalType": "bool",
          "name": "",
          "type": "bool"
        }
      ],
      "stateMutability": "pure",
      "type": "function"
    },
    {
      "inputs": [
        {
          "internalType": "bytes",
          "name": "_bytes",
          "type": "bytes"
        },
        {
          "internalType": "uint256",
          "name": "_start",
          "type": "uint256"
        },
        {
          "internalType": "uint256",
          "name": "_length",
          "type": "uint256"
        }
      ],
      "name": "slice",
      "outputs": [
        {
          "internalType": "bytes",
          "name": "",
          "type": "bytes"
        }
      ],
      "stateMutability": "pure",
      "type": "function"
    },
    {
      "inputs": [
        {
          "internalType": "bytes",
          "name": "_bytes",
          "type": "bytes"
        },
        {
          "internalType": "uint256",
          "name": "_start",
          "type": "uint256"
        }
      ],
      "name": "toAddress",
      "outputs": [
        {
          "internalType": "address",
          "name": "",
          "type": "address"
        }
      ],
      "stateMutability": "pure",
      "type": "function"
    },
    {
      "inputs": [
        {
          "internalType": "bytes",
          "name": "_bytes",
          "type": "bytes"
        },
        {
          "internalType": "uint256",
          "name": "_start",
          "type": "uint256"
        }
      ],
      "name": "toBytes32",
      "outputs": [
        {
          "internalType": "bytes32",
          "name": "",
          "type": "bytes32"
        }
      ],
      "stateMutability": "pure",
      "type": "function"
    },
    {
      "inputs": [
        {
          "internalType": "bytes",
          "name": "_bytes",
          "type": "bytes"
        },
        {
          "internalType": "uint256",
          "name": "_start",
          "type": "uint256"
        }
      ],
      "name": "toUint128",
      "outputs": [
        {
          "internalType": "uint128",
          "name": "",
          "type": "uint128"
        }
      ],
      "stateMutability": "pure",
      "type": "function"
    },
    {
      "inputs": [
        {
          "internalType": "bytes",
          "name": "_bytes",
          "type": "bytes"
        },
        {
          "internalType": "uint256",
          "name": "_start",
          "type": "uint256"
        }
      ],
      "name": "toUint16",
      "outputs": [
        {
          "internalType": "uint16",
          "name": "",
          "type": "uint16"
        }
      ],
      "stateMutability": "pure",
      "type": "function"
    },
    {
      "inputs": [
        {
          "internalType": "bytes",
          "name": "_bytes",
          "type": "bytes"
        },
        {
          "internalType": "uint256",
          "name": "_start",
          "type": "uint256"
        }
      ],
      "name": "toUint24",
      "outputs": [
        {
          "internalType": "uint24",
          "name": "",
          "type": "uint24"
        }
      ],
      "stateMutability": "pure",
      "type": "function"
    },
    {
      "inputs": [
        {
          "internalType": "bytes",
          "name": "_bytes",
          "type": "bytes"
        },
        {
          "internalType": "uint256",
          "name": "_start",
          "type": "uint256"
        }
      ],
      "name": "toUint256",
      "outputs": [
        {
          "internalType": "uint256",
          "name": "",
          "type": "uint256"
        }
      ],
      "stateMutability": "pure",
      "type": "function"
    },
    {
      "inputs": [
        {
          "internalType": "bytes",
          "name": "_bytes",
          "type": "bytes"
        },
        {
          "internalType": "uint256",
          "name": "_start",
          "type": "uint256"
        }
      ],
      "name": "toUint32",
      "outputs": [
        {
          "internalType": "uint32",
          "name": "",
          "type": "uint32"
        }
      ],
      "stateMutability": "pure",
      "type": "function"
    },
    {
      "inputs": [
        {
          "internalType": "bytes",
          "name": "_bytes",
          "type": "bytes"
        },
        {
          "internalType": "uint256",
          "name": "_start",
          "type": "uint256"
        }
      ],
      "name": "toUint40",
      "outputs": [
        {
          "internalType": "uint40",
          "name": "",
          "type": "uint40"
        }
      ],
      "stateMutability": "pure",
      "type": "function"
    },
    {
      "inputs": [
        {
          "internalType": "bytes",
          "name": "_bytes",
          "type": "bytes"
        },
        {
          "internalType": "uint256",
          "name": "_start",
          "type": "uint256"
        }
      ],
      "name": "toUint48",
      "outputs": [
        {
          "internalType": "uint48",
          "name": "",
          "type": "uint48"
        }
      ],
      "stateMutability": "pure",
      "type": "function"
    },
    {
      "inputs": [
        {
          "internalType": "bytes",
          "name": "_bytes",
          "type": "bytes"
        },
        {
          "internalType": "uint256",
          "name": "_start",
          "type": "uint256"
        }
      ],
      "name": "toUint56",
      "outputs": [
        {
          "internalType": "uint56",
          "name": "",
          "type": "uint56"
        }
      ],
      "stateMutability": "pure",
      "type": "function"
    },
    {
      "inputs": [
        {
          "internalType": "bytes",
          "name": "_bytes",
          "type": "bytes"
        },
        {
          "internalType": "uint256",
          "name": "_start",
          "type": "uint256"
        }
      ],
      "name": "toUint64",
      "outputs": [
        {
          "internalType": "uint64",
          "name": "",
          "type": "uint64"
        }
      ],
      "stateMutability": "pure",
      "type": "function"
    },
    {
      "inputs": [
        {
          "internalType": "bytes",
          "name": "_bytes",
          "type": "bytes"
        },
        {
          "internalType": "uint256",
          "name": "_start",
          "type": "uint256"
        }
      ],
      "name": "toUint8",
      "outputs": [
        {
          "internalType": "uint8",
          "name": "",
          "type": "uint8"
        }
      ],
      "stateMutability": "pure",
      "type": "function"
    },
    {
      "inputs": [
        {
          "internalType": "bytes",
          "name": "_bytes",
          "type": "bytes"
        },
        {
          "internalType": "uint256",
          "name": "_start",
          "type": "uint256"
        }
      ],
      "name": "toUint96",
      "outputs": [
        {
          "internalType": "uint96",
          "name": "",
          "type": "uint96"
        }
      ],
      "stateMutability": "pure",
      "type": "function"
    }
  ],
  "transactionHash": "0x5b8ba89feb036feff97395cfbd9b1fb38c669e04e6cbdb6ce310fa2d1bcb5240",
  "args": [],
  "numDeployments": 1,
  "solcInputHash": "a729ebf854c20c760b44a22dc9354a8f",
  "bytecode": "0x61108a61003a600b82828239805160001a60731461002d57634e487b7160e01b600052600060045260246000fd5b30600052607381538281f3fe730000000000000000000000000000000000000000301460806040526004361061010a5760003560e01c8063a5eb31ee116100a1578063d1ffb56111610070578063d1ffb5611461027e578063d442584f1461029e578063e0041396146102be578063f647f8fb146102de57600080fd5b8063a5eb31ee1461020b578063a8d8f00f1461022b578063b5cdf9241461024b578063be8b34301461025e57600080fd5b80635ef84930116100dd5780635ef849301461018b578063913c97b4146101ab57806399dd9bd7146101cb5780639ae4c3d1146101eb57600080fd5b806305d3bb741461010f5780631a7431ef14610138578063235266d214610158578063481377091461016b575b600080fd5b61012261011d3660046108eb565b6102fe565b60405161012f9190610950565b60405180910390f35b61014b61014636600461095e565b610343565b60405161012f91906109b4565b61014b6101663660046109c2565b6103f7565b61017e6101793660046108eb565b61045b565b60405161012f9190610a07565b61019e6101993660046108eb565b610491565b60405161012f9190610a23565b6101be6101b93660046108eb565b6104cd565b60405161012f9190610a49565b6101de6101d93660046108eb565b610503565b60405161012f9190610a5d565b6101fe6101f93660046108eb565b610539565b60405161012f9190610a7b565b61021e6102193660046108eb565b61056f565b60405161012f9190610a94565b61023e6102393660046108eb565b6105a9565b60405161012f9190610ab1565b6101de6102593660046108eb565b6105e5565b61027161026c3660046108eb565b610612565b60405161012f9190610ac9565b61029161028c3660046108eb565b610648565b60405161012f9190610aeb565b6102b16102ac3660046108eb565b61067e565b60405161012f9190610b06565b6102d16102cc366004610b14565b6106ba565b60405161012f9190610be0565b6102f16102ec3660046108eb565b610782565b60405161012f9190610c1f565b600061030b826004610c5c565b835110156103345760405162461bcd60e51b815260040161032b90610ca8565b60405180910390fd5b50818101600401515b92915050565b6000806001905083546002600180831615610100020382160484518082146001811461037257600094506103eb565b82156103eb5760208310600181146103d057600189600052602060002060208a018581015b6002848284100114156103c75781518354146103b65760009950600093505b600183019250602082019150610397565b505050506103e9565b610100808604029450602088015185146103e957600095505b505b50929695505050505050565b8151815160009160019181148083146104135760009250610451565b600160208701838101602088015b60028483851001141561044c5780518351146104405760009650600093505b60209283019201610421565b505050505b5090949350505050565b6000610468826001610c5c565b835110156104885760405162461bcd60e51b815260040161032b90610cea565b50016001015190565b600061049e826006610c5c565b835110156104be5760405162461bcd60e51b815260040161032b90610d2c565b50016006015163ffffffff1690565b60006104da826010610c5c565b835110156104fa5760405162461bcd60e51b815260040161032b90610d6e565b50016010015190565b6000610510826020610c5c565b835110156105305760405162461bcd60e51b815260040161032b90610db0565b50016020015190565b6000610546826008610c5c565b835110156105665760405162461bcd60e51b815260040161032b90610df2565b50016008015190565b600061057c826003610c5c565b8351101561059c5760405162461bcd60e51b815260040161032b90610e34565b50016003015161ffff1690565b60006105b6826007610c5c565b835110156105d65760405162461bcd60e51b815260040161032b90610e76565b50016007015163ffffffff1690565b60006105f2826020610c5c565b835110156105305760405162461bcd60e51b815260040161032b90610eb8565b600061061f826002610c5c565b8351101561063f5760405162461bcd60e51b815260040161032b90610efa565b50016002015190565b600061065582600c610c5c565b835110156106755760405162461bcd60e51b815260040161032b90610f3c565b5001600c015190565b600061068b826005610c5c565b835110156106ab5760405162461bcd60e51b815260040161032b90610f7e565b50016005015163ffffffff1690565b6060816106c881601f610c5c565b10156106e65760405162461bcd60e51b815260040161032b90610fc0565b6106f08284610c5c565b845110156107105760405162461bcd60e51b815260040161032b90611002565b60608215801561072f5760405191506000825260208201604052610779565b6040519150601f8416801560200281840101858101878315602002848b0101015b81831015610768578051835260209283019201610750565b5050858452601f01601f1916604052505b50949350505050565b600061078f826014610c5c565b835110156107af5760405162461bcd60e51b815260040161032b90611044565b5001602001516c01000000000000000000000000900490565b7f4e487b7100000000000000000000000000000000000000000000000000000000600052604160045260246000fd5b601f19601f830116810181811067ffffffffffffffff8211171561081d5761081d6107c8565b6040525050565b600061082f60405190565b905061083b82826107f7565b919050565b600067ffffffffffffffff82111561085a5761085a6107c8565b601f19601f83011660200192915050565b82818337506000910152565b600061088a61088584610840565b610824565b9050828152602081018484840111156108a5576108a5600080fd5b6108b084828561086b565b509392505050565b600082601f8301126108cc576108cc600080fd5b81356108dc848260208601610877565b949350505050565b803561033d565b6000806040838503121561090157610901600080fd5b823567ffffffffffffffff81111561091b5761091b600080fd5b610927858286016108b8565b9250506020610938858286016108e4565b9150509250929050565b63ffffffff81165b82525050565b6020810161033d8284610942565b6000806040838503121561097457610974600080fd5b600061098085856108e4565b925050602083013567ffffffffffffffff8111156109a0576109a0600080fd5b610938858286016108b8565b80151561094a565b6020810161033d82846109ac565b600080604083850312156109d8576109d8600080fd5b823567ffffffffffffffff8111156109f2576109f2600080fd5b610980858286016108b8565b60ff811661094a565b6020810161033d82846109fe565b65ffffffffffff811661094a565b6020810161033d8284610a15565b6fffffffffffffffffffffffffffffffff811661094a565b6020810161033d8284610a31565b8061094a565b6020810161033d8284610a57565b67ffffffffffffffff811661094a565b6020810161033d8284610a6b565b62ffffff811661094a565b6020810161033d8284610a89565b66ffffffffffffff811661094a565b6020810161033d8284610aa2565b61ffff811661094a565b6020810161033d8284610abf565b6bffffffffffffffffffffffff811661094a565b6020810161033d8284610ad7565b64ffffffffff811661094a565b6020810161033d8284610af9565b600080600060608486031215610b2c57610b2c600080fd5b833567ffffffffffffffff811115610b4657610b46600080fd5b610b52868287016108b8565b9350506020610b63868287016108e4565b9250506040610b74868287016108e4565b9150509250925092565b60005b83811015610b99578181015183820152602001610b81565b83811115610ba8576000848401525b50505050565b6000610bb8825190565b808452602084019350610bcf818560208601610b7e565b601f01601f19169290920192915050565b60208082528101610bf18184610bae565b9392505050565b600073ffffffffffffffffffffffffffffffffffffffff821661033d565b61094a81610bf8565b6020810161033d8284610c16565b7f4e487b7100000000000000000000000000000000000000000000000000000000600052601160045260246000fd5b60008219821115610c6f57610c6f610c2d565b500190565b60148152602081017f746f55696e7433325f6f75744f66426f756e6473000000000000000000000000815290505b60200190565b6020808252810161033d81610c74565b60138152602081017f746f55696e74385f6f75744f66426f756e64730000000000000000000000000081529050610ca2565b6020808252810161033d81610cb8565b60148152602081017f746f55696e7434385f6f75744f66426f756e647300000000000000000000000081529050610ca2565b6020808252810161033d81610cfa565b60158152602081017f746f55696e743132385f6f75744f66426f756e6473000000000000000000000081529050610ca2565b6020808252810161033d81610d3c565b60158152602081017f746f427974657333325f6f75744f66426f756e6473000000000000000000000081529050610ca2565b6020808252810161033d81610d7e565b60148152602081017f746f55696e7436345f6f75744f66426f756e647300000000000000000000000081529050610ca2565b6020808252810161033d81610dc0565b60148152602081017f746f55696e7432345f6f75744f66426f756e647300000000000000000000000081529050610ca2565b6020808252810161033d81610e02565b60148152602081017f746f55696e7435365f6f75744f66426f756e647300000000000000000000000081529050610ca2565b6020808252810161033d81610e44565b60158152602081017f746f55696e743235365f6f75744f66426f756e6473000000000000000000000081529050610ca2565b6020808252810161033d81610e86565b60148152602081017f746f55696e7431365f6f75744f66426f756e647300000000000000000000000081529050610ca2565b6020808252810161033d81610ec8565b60148152602081017f746f55696e7439365f6f75744f66426f756e647300000000000000000000000081529050610ca2565b6020808252810161033d81610f0a565b60148152602081017f746f55696e7434305f6f75744f66426f756e647300000000000000000000000081529050610ca2565b6020808252810161033d81610f4c565b600e8152602081017f736c6963655f6f766572666c6f7700000000000000000000000000000000000081529050610ca2565b6020808252810161033d81610f8e565b60118152602081017f736c6963655f6f75744f66426f756e647300000000000000000000000000000081529050610ca2565b6020808252810161033d81610fd0565b60158152602081017f746f416464726573735f6f75744f66426f756e6473000000000000000000000081529050610ca2565b6020808252810161033d8161101256fea26469706673582212207a750cda0cfcfa6766447cc6afc060d9686fffcb0fc8ffb3a7ee8842c0d1ebec64736f6c634300080c0033",
  "devdoc": {
    "kind": "dev",
    "methods": {},
    "version": 1
  },
  "userdoc": {
    "kind": "user",
    "methods": {},
    "version": 1
  },
  "storageLayout": {
    "storage": [],
    "types": null
  }
}