{
  "address": "0xFD60cDD345feB6011fDeb4Dc3d69aD2319f8508C",
  "abi": [
    {
      "inputs": [
        {
          "internalType": "uint256",
          "name": "_number",
          "type": "uint256"
        },
        {
          "internalType": "uint8",
          "name": "_base",
          "type": "uint8"
        }
      ],
      "name": "toString",
      "outputs": [
        {
          "internalType": "string",
          "name": "",
          "type": "string"
        }
      ],
      "stateMutability": "pure",
      "type": "function"
    },
    {
      "inputs": [
        {
          "internalType": "uint256",
          "name": "_number",
          "type": "uint256"
        }
      ],
      "name": "toString",
      "outputs": [
        {
          "internalType": "string",
          "name": "",
          "type": "string"
        }
      ],
      "stateMutability": "pure",
      "type": "function"
    },
    {
      "inputs": [
        {
          "internalType": "uint256",
          "name": "_number",
          "type": "uint256"
        },
        {
          "internalType": "uint8",
          "name": "_base",
          "type": "uint8"
        },
        {
          "internalType": "uint8",
          "name": "_padding",
          "type": "uint8"
        }
      ],
      "name": "toString",
      "outputs": [
        {
          "internalType": "string",
          "name": "",
          "type": "string"
        }
      ],
      "stateMutability": "pure",
      "type": "function"
    }
  ],
  "transactionHash": "0xf69364b37995e7a0953d69430133884b0547b10d04a4466217478e38c11ef5d9",
  "args": [],
  "numDeployments": 2,
  "solcInputHash": "4c80fdd4b4cf08bfe6dcd9fd338bcaa7",
  "bytecode": "0x6105fa61003a600b82828239805160001a60731461002d57634e487b7160e01b600052600060045260246000fd5b30600052607381538281f3fe730000000000000000000000000000000000000000301460806040526004361061004b5760003560e01c8063338dc7fd146100505780636900a3ae14610079578063c1338a691461008c575b600080fd5b61006361005e366004610395565b61009f565b6040516100709190610452565b60405180910390f35b610063610087366004610463565b6100b6565b61006361009a36600461048c565b6100c1565b60606100ad838360006100c1565b90505b92915050565b60606100b082600a60005b60606000845b80156100ef57816100d7816104f2565b92506100e8905060ff861682610541565b90506100c7565b8561010257816100fe816104f2565b9250505b606060ff8516610157578267ffffffffffffffff81111561012557610125610555565b6040519080825280601f01601f19166020018201604052801561014f576020820181803683370190505b5090506101a1565b8460ff1667ffffffffffffffff81111561017357610173610555565b6040519080825280601f01601f19166020018201604052801561019d576020820181803683370190505b5090505b60005b81518110156102c3576101ba60ff88168961056b565b9250600a831015610231576101d083603061057f565b60f81b8260018385516101e39190610597565b6101ed9190610597565b815181106101fd576101fd6105ae565b60200101907effffffffffffffffffffffffffffffffffffffffffffffffffffffffffffff1916908160001a9053506102a4565b61023c600a8461056b565b61024790604161057f565b60f81b82600183855161025a9190610597565b6102649190610597565b81518110610274576102746105ae565b60200101907effffffffffffffffffffffffffffffffffffffffffffffffffffffffffffff1916908160001a9053505b6102b160ff881689610541565b97506102bc816104f2565b90506101a4565b50825b8560ff1681101561035b577f30000000000000000000000000000000000000000000000000000000000000008260018385516103029190610597565b61030c9190610597565b8151811061031c5761031c6105ae565b60200101907effffffffffffffffffffffffffffffffffffffffffffffffffffffffffffff1916908160001a905350610354816104f2565b90506102c6565b509695505050505050565b805b811461037357600080fd5b50565b80356100b081610366565b60ff8116610368565b80356100b081610381565b600080604083850312156103ab576103ab600080fd5b60006103b78585610376565b92505060206103c88582860161038a565b9150509250929050565b60005b838110156103ed5781810151838201526020016103d5565b838111156103fc576000848401525b50505050565b600061040c825190565b8084526020840193506104238185602086016103d2565b601f017fffffffffffffffffffffffffffffffffffffffffffffffffffffffffffffffe0169290920192915050565b602080825281016100ad8184610402565b60006020828403121561047857610478600080fd5b60006104848484610376565b949350505050565b6000806000606084860312156104a4576104a4600080fd5b60006104b08686610376565b93505060206104c18682870161038a565b92505060406104d28682870161038a565b9150509250925092565b634e487b7160e01b600052601160045260246000fd5b60007fffffffffffffffffffffffffffffffffffffffffffffffffffffffffffffffff821415610524576105246104dc565b5060010190565b634e487b7160e01b600052601260045260246000fd5b6000826105505761055061052b565b500490565b634e487b7160e01b600052604160045260246000fd5b60008261057a5761057a61052b565b500690565b60008219821115610592576105926104dc565b500190565b6000828210156105a9576105a96104dc565b500390565b634e487b7160e01b600052603260045260246000fdfea26469706673582212203e67b46de4242d0dd957f6eb8992cf95eeb241ba682b51bbd4fa18b0dc71195464736f6c634300080c0033",
  "devdoc": {
    "author": "Clement Walter <clement0walter@gmail.com>",
    "kind": "dev",
    "methods": {
      "toString(uint256,uint8,uint8)": {
        "params": {
          "_base": "The base to convert the number to",
          "_number": "The unsigned integer to be converted to a string",
          "_padding": "The target length of the string; result will be padded with 0 to reach this length while padding         of 0 means no padding"
        },
        "returns": {
          "_0": "bytes The resulting ASCII string value"
        }
      }
    },
    "version": 1
  },
  "userdoc": {
    "kind": "user",
    "methods": {
      "toString(uint256,uint8,uint8)": {
        "notice": "To String Converts an unsigned integer to the string equivalent value, returned as bytes Equivalent to javascript's toString(base)"
      }
    },
    "notice": "Integers Library updated from https://github.com/willitscale/solidity-util In summary this is a simple library of integer functions which allow a simple conversion to and from strings",
    "version": 1
  },
  "storageLayout": {
    "storage": [],
    "types": null
  }
}