{
  "address": "0xfaE147127d2956b50cD2c331113cbb7DC73B8614",
  "abi": [
    {
      "inputs": [
        {
          "internalType": "bytes1",
          "name": "first",
          "type": "bytes1"
        },
        {
          "internalType": "bytes1",
          "name": "second",
          "type": "bytes1"
        },
        {
          "internalType": "bytes1",
          "name": "third",
          "type": "bytes1"
        }
      ],
      "name": "load12x2",
      "outputs": [
        {
          "internalType": "uint16",
          "name": "",
          "type": "uint16"
        },
        {
          "internalType": "uint16",
          "name": "",
          "type": "uint16"
        }
      ],
      "stateMutability": "pure",
      "type": "function"
    },
    {
      "inputs": [
        {
          "internalType": "bytes1",
          "name": "_leadingBytes",
          "type": "bytes1"
        },
        {
          "internalType": "bytes1",
          "name": "_endingBytes",
          "type": "bytes1"
        }
      ],
      "name": "load16",
      "outputs": [
        {
          "internalType": "uint16",
          "name": "",
          "type": "uint16"
        }
      ],
      "stateMutability": "pure",
      "type": "function"
    },
    {
      "inputs": [
        {
          "internalType": "uint256",
          "name": "_number",
          "type": "uint256"
        },
        {
          "internalType": "uint8",
          "name": "_base",
          "type": "uint8"
        }
      ],
      "name": "toString",
      "outputs": [
        {
          "internalType": "string",
          "name": "",
          "type": "string"
        }
      ],
      "stateMutability": "pure",
      "type": "function"
    },
    {
      "inputs": [
        {
          "internalType": "uint256",
          "name": "_number",
          "type": "uint256"
        }
      ],
      "name": "toString",
      "outputs": [
        {
          "internalType": "string",
          "name": "",
          "type": "string"
        }
      ],
      "stateMutability": "pure",
      "type": "function"
    },
    {
      "inputs": [
        {
          "internalType": "uint256",
          "name": "_number",
          "type": "uint256"
        },
        {
          "internalType": "uint8",
          "name": "_base",
          "type": "uint8"
        },
        {
          "internalType": "uint8",
          "name": "_padding",
          "type": "uint8"
        }
      ],
      "name": "toString",
      "outputs": [
        {
          "internalType": "string",
          "name": "",
          "type": "string"
        }
      ],
      "stateMutability": "pure",
      "type": "function"
    }
  ],
  "transactionHash": "0xb71d67d3062c46743e6edaf5f5e5678b36bf28a5f18d5d14c90a2157599076d2",
  "args": [],
  "numDeployments": 1,
  "solcInputHash": "a729ebf854c20c760b44a22dc9354a8f",
  "bytecode": "0x6107b061003a600b82828239805160001a60731461002d57634e487b7160e01b600052600060045260246000fd5b30600052607381538281f3fe73000000000000000000000000000000000000000030146080604052600436106100715760003560e01c80636900a3ae1161005a5780636900a3ae146100c0578063c1338a69146100d3578063c44e8fec146100e657600080fd5b8063338dc7fd146100765780635dfb512c1461009f575b600080fd5b610089610084366004610451565b610106565b604051610096919061050e565b60405180910390f35b6100b26100ad366004610552565b61011d565b6040516100969291906105a2565b6100896100ce3660046105bc565b610158565b6100896100e13660046105e5565b610163565b6100f96100f436600461062b565b61040a565b604051610096919061065e565b606061011483836000610163565b90505b92915050565b60008061013660fc85901c610ff060f488901c16610684565b61014c60f885901c610f0060f088901c16610684565b91509150935093915050565b606061011782600a60005b60606000845b80156101915781610179816106ad565b925061018a905060ff8616826106fc565b9050610169565b856101a457816101a0816106ad565b9250505b606060ff85166101f9578267ffffffffffffffff8111156101c7576101c7610710565b6040519080825280601f01601f1916602001820160405280156101f1576020820181803683370190505b509050610243565b8460ff1667ffffffffffffffff81111561021557610215610710565b6040519080825280601f01601f19166020018201604052801561023f576020820181803683370190505b5090505b60005b81518110156103655761025c60ff881689610726565b9250600a8310156102d35761027283603061073a565b60f81b826001838551610285919061074d565b61028f919061074d565b8151811061029f5761029f610764565b60200101907effffffffffffffffffffffffffffffffffffffffffffffffffffffffffffff1916908160001a905350610346565b6102de600a84610726565b6102e990604161073a565b60f81b8260018385516102fc919061074d565b610306919061074d565b8151811061031657610316610764565b60200101907effffffffffffffffffffffffffffffffffffffffffffffffffffffffffffff1916908160001a9053505b61035360ff8816896106fc565b975061035e816106ad565b9050610246565b50825b8560ff168110156103fd577f30000000000000000000000000000000000000000000000000000000000000008260018385516103a4919061074d565b6103ae919061074d565b815181106103be576103be610764565b60200101907effffffffffffffffffffffffffffffffffffffffffffffffffffffffffffff1916908160001a9053506103f6816106ad565b9050610368565b50925050505b9392505050565b600061011460f883901c61ff0060f086901c16610684565b805b811461042f57600080fd5b50565b803561011781610422565b60ff8116610424565b80356101178161043d565b6000806040838503121561046757610467600080fd5b60006104738585610432565b925050602061048485828601610446565b9150509250929050565b60005b838110156104a9578181015183820152602001610491565b838111156104b8576000848401525b50505050565b60006104c8825190565b8084526020840193506104df81856020860161048e565b601f017fffffffffffffffffffffffffffffffffffffffffffffffffffffffffffffffe0169290920192915050565b6020808252810161011481846104be565b7fff000000000000000000000000000000000000000000000000000000000000008116610424565b80356101178161051f565b60008060006060848603121561056a5761056a600080fd5b60006105768686610547565b935050602061058786828701610547565b925050604061059886828701610547565b9150509250925092565b61ffff831681526040810161ffff83166020830152610403565b6000602082840312156105d1576105d1600080fd5b60006105dd8484610432565b949350505050565b6000806000606084860312156105fd576105fd600080fd5b60006106098686610432565b935050602061061a86828701610446565b925050604061059886828701610446565b6000806040838503121561064157610641600080fd5b600061064d8585610547565b925050602061048485828601610547565b61ffff8216815260208101610117565b634e487b7160e01b600052601160045260246000fd5b61ffff8116905061ffff8216915060008261ffff038211156106a8576106a861066e565b500190565b60007fffffffffffffffffffffffffffffffffffffffffffffffffffffffffffffffff8214156106df576106df61066e565b5060010190565b634e487b7160e01b600052601260045260246000fd5b60008261070b5761070b6106e6565b500490565b634e487b7160e01b600052604160045260246000fd5b600082610735576107356106e6565b500690565b600082198211156106a8576106a861066e565b60008282101561075f5761075f61066e565b500390565b634e487b7160e01b600052603260045260246000fdfea2646970667358221220fa3f3ba05cbcda89900d4dba86489c87115c06e27ee2b4a7200ce8d14b91211364736f6c634300080c0033",
  "devdoc": {
    "author": "Clement Walter <clement0walter@gmail.com>",
    "kind": "dev",
    "methods": {
      "load12x2(bytes1,bytes1,bytes1)": {
        "returns": {
          "_0": "(uint16, uint16) The two uint16 values up to 2^12 each"
        }
      },
      "load16(bytes1,bytes1)": {
        "params": {
          "_endingBytes": "the second byte of the unsigned integer in [0, 255]",
          "_leadingBytes": "the first byte of the unsigned integer in [256, 65536]"
        },
        "returns": {
          "_0": "uint16 The resulting integer value"
        }
      },
      "toString(uint256,uint8,uint8)": {
        "params": {
          "_base": "The base to convert the number to",
          "_number": "The unsigned integer to be converted to a string",
          "_padding": "The target length of the string; result will be padded with 0 to reach this length while padding         of 0 means no padding"
        },
        "returns": {
          "_0": "bytes The resulting ASCII string value"
        }
      }
    },
    "version": 1
  },
  "userdoc": {
    "kind": "user",
    "methods": {
      "load12x2(bytes1,bytes1,bytes1)": {
        "notice": "Load 12 Converts three bytes into two uint12 integers"
      },
      "load16(bytes1,bytes1)": {
        "notice": "Load 16 Converts two bytes to a 16 bit unsigned integer"
      },
      "toString(uint256,uint8,uint8)": {
        "notice": "To String Converts an unsigned integer to the string equivalent value, returned as bytes Equivalent to javascript's toString(base)"
      }
    },
    "notice": "Integers Library updated from https://github.com/willitscale/solidity-util In summary this is a simple library of integer functions which allow a simple conversion to and from strings",
    "version": 1
  },
  "storageLayout": {
    "storage": [],
    "types": null
  }
}