{
  "address": "0x064AAc5B34D7848F6638d9e689048CCE2c857BAf",
  "abi": [
    {
      "inputs": [
        {
          "internalType": "uint256",
          "name": "characteristic",
          "type": "uint256"
        }
      ],
      "name": "CharacteristicOutOfRange",
      "type": "error"
    },
    {
      "inputs": [
        {
          "internalType": "uint256",
          "name": "_size",
          "type": "uint256"
        },
        {
          "internalType": "uint256",
          "name": "_start",
          "type": "uint256"
        },
        {
          "internalType": "uint256",
          "name": "_end",
          "type": "uint256"
        }
      ],
      "name": "InvalidCodeAtRange",
      "type": "error"
    },
    {
      "inputs": [
        {
          "internalType": "uint256",
          "name": "length",
          "type": "uint256"
        }
      ],
      "name": "InvalidLength",
      "type": "error"
    },
    {
      "inputs": [
        {
          "internalType": "uint256",
          "name": "trait",
          "type": "uint256"
        }
      ],
      "name": "TraitOutOfRange",
      "type": "error"
    },
    {
      "inputs": [],
      "name": "FILL_TAG",
      "outputs": [
        {
          "internalType": "string",
          "name": "",
          "type": "string"
        }
      ],
      "stateMutability": "view",
      "type": "function"
    },
    {
      "inputs": [],
      "name": "HEIGHT_TAG",
      "outputs": [
        {
          "internalType": "string",
          "name": "",
          "type": "string"
        }
      ],
      "stateMutability": "view",
      "type": "function"
    },
    {
      "inputs": [],
      "name": "RECT_TAG_END",
      "outputs": [
        {
          "internalType": "string",
          "name": "",
          "type": "string"
        }
      ],
      "stateMutability": "view",
      "type": "function"
    },
    {
      "inputs": [],
      "name": "RECT_TAG_START",
      "outputs": [
        {
          "internalType": "string",
          "name": "",
          "type": "string"
        }
      ],
      "stateMutability": "view",
      "type": "function"
    },
    {
      "inputs": [],
      "name": "WIDTH_TAG",
      "outputs": [
        {
          "internalType": "string",
          "name": "",
          "type": "string"
        }
      ],
      "stateMutability": "view",
      "type": "function"
    },
    {
      "inputs": [],
      "name": "Y_TAG",
      "outputs": [
        {
          "internalType": "string",
          "name": "",
          "type": "string"
        }
      ],
      "stateMutability": "view",
      "type": "function"
    },
    {
      "inputs": [
        {
          "internalType": "bytes4",
          "name": "rectBytes",
          "type": "bytes4"
        },
        {
          "internalType": "string[]",
          "name": "palette",
          "type": "string[]"
        },
        {
          "internalType": "uint256",
          "name": "offsetX",
          "type": "uint256"
        },
        {
          "internalType": "uint256",
          "name": "offsetY",
          "type": "uint256"
        }
      ],
      "name": "decodeBytes4ToRect",
      "outputs": [
        {
          "internalType": "string",
          "name": "",
          "type": "string"
        }
      ],
      "stateMutability": "pure",
      "type": "function"
    },
    {
      "inputs": [
        {
          "internalType": "bytes4",
          "name": "rectBytes",
          "type": "bytes4"
        },
        {
          "internalType": "string[]",
          "name": "palette",
          "type": "string[]"
        }
      ],
      "name": "decodeBytes4ToRect",
      "outputs": [
        {
          "internalType": "string",
          "name": "",
          "type": "string"
        }
      ],
      "stateMutability": "pure",
      "type": "function"
    },
    {
      "inputs": [
        {
          "internalType": "bytes",
          "name": "rectsBytes",
          "type": "bytes"
        },
        {
          "internalType": "string[]",
          "name": "palette",
          "type": "string[]"
        }
      ],
      "name": "decodeBytesMemoryToRects",
      "outputs": [
        {
          "internalType": "string",
          "name": "",
          "type": "string"
        }
      ],
      "stateMutability": "pure",
      "type": "function"
    },
    {
      "inputs": [
        {
          "internalType": "address",
          "name": "pointer",
          "type": "address"
        },
        {
          "internalType": "uint256",
          "name": "characteristicIndex",
          "type": "uint256"
        },
        {
          "internalType": "uint256",
          "name": "traitIndex",
          "type": "uint256"
        }
      ],
      "name": "getTraitBytes",
      "outputs": [
        {
          "internalType": "bytes",
          "name": "",
          "type": "bytes"
        }
      ],
      "stateMutability": "view",
      "type": "function"
    }
  ],
  "transactionHash": "0xf82444a31c066acdda38e772f03ce2de5322dc409184306b4c10113ef788d866",
  "args": [],
  "numDeployments": 5,
  "solcInputHash": "82c6b098a4f0621a5460cab49df5785b",
  "bytecode": "0x6115a161003a600b82828239805160001a60731461002d57634e487b7160e01b600052600060045260246000fd5b30600052607381538281f3fe73000000000000000000000000000000000000000030146080604052600436106100c85760003560e01c80635e99a63011610080578063999086e311610065578063999086e314610235578063b674b76114610248578063f258feb11461028457600080fd5b80635e99a630146101e657806369db9ed0146101f957600080fd5b80634239abe4116100b15780634239abe41461015b57806343c8ecbe1461016e5780634d32bd7d146101aa57600080fd5b8063146f9480146100cd578063407134de1461011f575b600080fd5b6101096040518060400160405280601081526020017f2532372532306865696768743d2532370000000000000000000000000000000081525081565b6040516101169190610def565b60405180910390f35b6101096040518060400160405280600781526020017f2532372f2533650000000000000000000000000000000000000000000000000081525081565b610109610169366004610e51565b610297565b6101096040518060400160405280600f81526020017f25323725323077696474683d253237000000000000000000000000000000000081525081565b6101096040518060400160405280600b81526020017f253237253230793d25323700000000000000000000000000000000000000000081525081565b6101096101f436600461108d565b6106b6565b6101096040518060400160405280600f81526020017f25336372656374253230783d253237000000000000000000000000000000000081525081565b61010961024336600461110c565b610a89565b6101096040518060400160405280601181526020017f25323725323066696c6c3d25323725323300000000000000000000000000000081525081565b61010961029236600461117e565b610ca3565b606060006102a88560006002610cb2565b6040516326b3515760e11b815273B0464EBF65D8F453a9056eEFE11167411B1d185591634d66a2ae916102de9190600401610def565b602060405180830381865af41580156102fb573d6000803e3d6000fd5b505050506040513d601f19601f8201168201806040525081019061031f91906111b5565b90508361032d6001836111ec565b61ffff16101561037457836040517f475e819200000000000000000000000000000000000000000000000000000000815260040161036b9190611213565b60405180910390fd5b60006103b686610385876002611221565b610390906002611240565b61039b886002611221565b6103a6906002611240565b6103b1906002611240565b610cb2565b6040516326b3515760e11b815273B0464EBF65D8F453a9056eEFE11167411B1d185591634d66a2ae916103ec9190600401610def565b602060405180830381865af4158015610409573d6000803e3d6000fd5b505050506040513d601f19601f8201168201806040525081019061042d91906111b5565b9050600060016104508861ffff8516610447866002611258565b61ffff16610cb2565b6040516326b3515760e11b815273B0464EBF65D8F453a9056eEFE11167411B1d185591634d66a2ae916104869190600401610def565b602060405180830381865af41580156104a3573d6000803e3d6000fd5b505050506040513d601f19601f820116820180604052508101906104c791906111b5565b6104d191906111ec565b9050846104df6001836111ec565b61ffff16101561051d57846040517fab074d5200000000000000000000000000000000000000000000000000000000815260040161036b9190611213565b60006105768861052e886002611221565b610539866002611258565b61ffff166105479190611240565b610552896002611221565b61055d876002611258565b61ffff1661056b9190611240565b6103b1906004611240565b6040517fbe8b34300000000000000000000000000000000000000000000000000000000081529091506106a890899073B0464EBF65D8F453a9056eEFE11167411B1d18559063be8b3430906105d2908690600090600401611294565b602060405180830381865af41580156105ef573d6000803e3d6000fd5b505050506040513d601f19601f8201168201806040525081019061061391906111b5565b61061d9086611258565b61ffff168373B0464EBF65D8F453a9056eEFE11167411B1d185563be8b3430909160026040518363ffffffff1660e01b815260040161065d929190611294565b602060405180830381865af415801561067a573d6000803e3d6000fd5b505050506040513d601f19601f8201168201806040525081019061069e91906111b5565b6104479087611258565b9450505050505b9392505050565b60408051808201909152600f81527f25336372656374253230783d253237000000000000000000000000000000000060208201526060906106fb8460fa88901c611240565b60405163348051d760e11b815273FD60cDD345feB6011fDeb4Dc3d69aD2319f8508C91636900a3ae916107319190600401611213565b600060405180830381865af415801561074e573d6000803e3d6000fd5b505050506040513d6000823e601f3d908101601f19168201604052610776919081019061130c565b60408051808201909152600b81527f253237253230793d25323700000000000000000000000000000000000000000060208201526107bb85603f60f48b901c16611240565b60405163348051d760e11b815273FD60cDD345feB6011fDeb4Dc3d69aD2319f8508C91636900a3ae916107f19190600401611213565b600060405180830381865af415801561080e573d6000803e3d6000fd5b505050506040513d6000823e601f3d908101601f19168201604052610836919081019061130c565b604080518082018252600f81527f25323725323077696474683d25323700000000000000000000000000000000006020820152905163348051d760e11b815273FD60cDD345feB6011fDeb4Dc3d69aD2319f8508C90636900a3ae906108a690603f60ee8f901c1690600401611213565b600060405180830381865af41580156108c3573d6000803e3d6000fd5b505050506040513d6000823e601f3d908101601f191682016040526108eb919081019061130c565b6040518060400160405280601081526020017f2532372532306865696768743d2532370000000000000000000000000000000081525060088c7bffffffffffffffffffffffffffffffffffffffffffffffffffffffff1916901c60e01c603f1660ff1673FD60cDD345feB6011fDeb4Dc3d69aD2319f8508C636900a3ae90916040518263ffffffff1660e01b81526004016109869190611213565b600060405180830381865af41580156109a3573d6000803e3d6000fd5b505050506040513d6000823e601f3d908101601f191682016040526109cb919081019061130c565b60408051808201909152601181527f25323725323066696c6c3d25323725323300000000000000000000000000000060208201528c8e6003825191901a908110610a1757610a17611347565b60200260200101516040518060400160405280600781526020017f2532372f25336500000000000000000000000000000000000000000000000000815250604051602001610a6f9b9a9998979695949392919061137f565b60405160208183030381529060405290505b949350505050565b606060048351610a999190611427565b15610ad35782516040517fc67eee4b00000000000000000000000000000000000000000000000000000000815260040161036b9190611213565b600060048451610ae3919061143b565b905060008167ffffffffffffffff811115610b0057610b00610ed4565b604051908082528060200260200182016040528015610b3357816020015b6060815260200190600190039081610b1e5790505b50905060005b8151811015610c0257610bd273B0464EBF65D8F453a9056eEFE11167411B1d18556305d3bb7488610b6b856004611221565b6040518363ffffffff1660e01b8152600401610b8892919061144f565b602060405180830381865af4158015610ba5573d6000803e3d6000fd5b505050506040513d601f19601f82011682018060405250810190610bc99190611486565b60e01b86610ca3565b828281518110610be457610be4611347565b60200260200101819052508080610bfa906114a7565b915050610b39565b506040517f9bce4e14000000000000000000000000000000000000000000000000000000008152731FA6A2152871D5A4D1f56511110C9a353CA4833990639bce4e1490610c53908490600401611532565b600060405180830381865af4158015610c70573d6000803e3d6000fd5b505050506040513d6000823e601f3d908101601f19168201604052610c98919081019061130c565b925050505b92915050565b60606106af83836000806106b6565b6060610a8184610cc3856001611240565b610cce856001611240565b6060833b80610ced5750506040805160208101909152600081526106af565b80841115610d0b5750506040805160208101909152600081526106af565b83831015610d4b578084846040517f2c4a89fa00000000000000000000000000000000000000000000000000000000815260040161036b93929190611543565b8383038482036000828210610d605782610d62565b815b60408051603f8301601f19168101909152818152955090508087602087018a3c505050509392505050565b60005b83811015610da8578181015183820152602001610d90565b83811115610db7576000848401525b50505050565b6000610dc7825190565b808452602084019350610dde818560208601610d8d565b601f01601f19169290920192915050565b602080825281016106af8184610dbd565b600073ffffffffffffffffffffffffffffffffffffffff8216610c9d565b610e2781610e00565b8114610e3257600080fd5b50565b8035610c9d81610e1e565b80610e27565b8035610c9d81610e40565b600080600060608486031215610e6957610e69600080fd5b6000610e758686610e35565b9350506020610e8686828701610e46565b9250506040610e9786828701610e46565b9150509250925092565b7fffffffff000000000000000000000000000000000000000000000000000000008116610e27565b8035610c9d81610ea1565b634e487b7160e01b600052604160045260246000fd5b601f19601f830116810181811067ffffffffffffffff82111715610f1057610f10610ed4565b6040525050565b6000610f2260405190565b9050610f2e8282610eea565b919050565b600067ffffffffffffffff821115610f4d57610f4d610ed4565b5060209081020190565b600067ffffffffffffffff821115610f7157610f71610ed4565b601f19601f83011660200192915050565b82818337506000910152565b6000610fa1610f9c84610f57565b610f17565b905082815260208101848484011115610fbc57610fbc600080fd5b610fc7848285610f82565b509392505050565b600082601f830112610fe357610fe3600080fd5b8135610a81848260208601610f8e565b6000611001610f9c84610f33565b8381529050602080820190840283018581111561102057611020600080fd5b835b8181101561105f57803567ffffffffffffffff81111561104457611044600080fd5b85016110508882610fcf565b84525060209283019201611022565b5050509392505050565b600082601f83011261107d5761107d600080fd5b8135610a81848260208601610ff3565b600080600080608085870312156110a6576110a6600080fd5b60006110b28787610ec9565b945050602085013567ffffffffffffffff8111156110d2576110d2600080fd5b6110de87828801611069565b93505060406110ef87828801610e46565b925050606061110087828801610e46565b91505092959194509250565b6000806040838503121561112257611122600080fd5b823567ffffffffffffffff81111561113c5761113c600080fd5b61114885828601610fcf565b925050602083013567ffffffffffffffff81111561116857611168600080fd5b61117485828601611069565b9150509250929050565b6000806040838503121561119457611194600080fd5b60006111488585610ec9565b61ffff8116610e27565b8051610c9d816111a0565b6000602082840312156111ca576111ca600080fd5b6000610a8184846111aa565b634e487b7160e01b600052601160045260246000fd5b61ffff9182169116600082821015611206576112066111d6565b500390565b805b82525050565b60208101610c9d828461120b565b600081600019048311821515161561123b5761123b6111d6565b500290565b60008219821115611253576112536111d6565b500190565b61ffff8116905061ffff8216915060008261ffff03821115611253576112536111d6565b6000610c9d6112888381565b90565b61120d8161127c565b604080825281016112a58185610dbd565b90506106af602083018461128b565b60006112c2610f9c84610f57565b9050828152602081018484840111156112dd576112dd600080fd5b610fc7848285610d8d565b600082601f8301126112fc576112fc600080fd5b8151610a818482602086016112b4565b60006020828403121561132157611321600080fd5b815167ffffffffffffffff81111561133b5761133b600080fd5b610a81848285016112e8565b634e487b7160e01b600052603260045260246000fd5b6000611367825190565b611375818560208601610d8d565b9290920192915050565b611389818d61135d565b9050611395818c61135d565b90506113a1818b61135d565b90506113ad818a61135d565b90506113b9818961135d565b90506113c5818861135d565b90506113d1818761135d565b90506113dd818661135d565b90506113e9818561135d565b90506113f5818461135d565b9050611401818361135d565b9c9b505050505050505050505050565b634e487b7160e01b600052601260045260246000fd5b60008261143657611436611411565b500690565b60008261144a5761144a611411565b500490565b604080825281016114608185610dbd565b90506106af602083018461120b565b63ffffffff8116610e27565b8051610c9d8161146f565b60006020828403121561149b5761149b600080fd5b6000610a81848461147b565b60006000198214156114bb576114bb6111d6565b5060010190565b60006106af8383610dbd565b60006114d8825190565b808452602084019350836020820285016114f28560200190565b60005b84811015611526578383038852815161150e84826114c2565b935050602082016020989098019791506001016114f5565b50909695505050505050565b602080825281016106af81846114ce565b60608101611551828661120b565b61155e602083018561120b565b610a81604083018461120b56fea2646970667358221220ebaa3db64f5246b8fb0ad30acb7709a56e4f65b4681a32f36b6f39df787554c164736f6c634300080c0033",
  "deployedBytecode": "0x73000000000000000000000000000000000000000030146080604052600436106100c85760003560e01c80635e99a63011610080578063999086e311610065578063999086e314610235578063b674b76114610248578063f258feb11461028457600080fd5b80635e99a630146101e657806369db9ed0146101f957600080fd5b80634239abe4116100b15780634239abe41461015b57806343c8ecbe1461016e5780634d32bd7d146101aa57600080fd5b8063146f9480146100cd578063407134de1461011f575b600080fd5b6101096040518060400160405280601081526020017f2532372532306865696768743d2532370000000000000000000000000000000081525081565b6040516101169190610def565b60405180910390f35b6101096040518060400160405280600781526020017f2532372f2533650000000000000000000000000000000000000000000000000081525081565b610109610169366004610e51565b610297565b6101096040518060400160405280600f81526020017f25323725323077696474683d253237000000000000000000000000000000000081525081565b6101096040518060400160405280600b81526020017f253237253230793d25323700000000000000000000000000000000000000000081525081565b6101096101f436600461108d565b6106b6565b6101096040518060400160405280600f81526020017f25336372656374253230783d253237000000000000000000000000000000000081525081565b61010961024336600461110c565b610a89565b6101096040518060400160405280601181526020017f25323725323066696c6c3d25323725323300000000000000000000000000000081525081565b61010961029236600461117e565b610ca3565b606060006102a88560006002610cb2565b6040516326b3515760e11b815273__$dcaad1777d2b99f53d9a752b008027c0a6$__91634d66a2ae916102de9190600401610def565b602060405180830381865af41580156102fb573d6000803e3d6000fd5b505050506040513d601f19601f8201168201806040525081019061031f91906111b5565b90508361032d6001836111ec565b61ffff16101561037457836040517f475e819200000000000000000000000000000000000000000000000000000000815260040161036b9190611213565b60405180910390fd5b60006103b686610385876002611221565b610390906002611240565b61039b886002611221565b6103a6906002611240565b6103b1906002611240565b610cb2565b6040516326b3515760e11b815273__$dcaad1777d2b99f53d9a752b008027c0a6$__91634d66a2ae916103ec9190600401610def565b602060405180830381865af4158015610409573d6000803e3d6000fd5b505050506040513d601f19601f8201168201806040525081019061042d91906111b5565b9050600060016104508861ffff8516610447866002611258565b61ffff16610cb2565b6040516326b3515760e11b815273__$dcaad1777d2b99f53d9a752b008027c0a6$__91634d66a2ae916104869190600401610def565b602060405180830381865af41580156104a3573d6000803e3d6000fd5b505050506040513d601f19601f820116820180604052508101906104c791906111b5565b6104d191906111ec565b9050846104df6001836111ec565b61ffff16101561051d57846040517fab074d5200000000000000000000000000000000000000000000000000000000815260040161036b9190611213565b60006105768861052e886002611221565b610539866002611258565b61ffff166105479190611240565b610552896002611221565b61055d876002611258565b61ffff1661056b9190611240565b6103b1906004611240565b6040517fbe8b34300000000000000000000000000000000000000000000000000000000081529091506106a890899073__$dcaad1777d2b99f53d9a752b008027c0a6$__9063be8b3430906105d2908690600090600401611294565b602060405180830381865af41580156105ef573d6000803e3d6000fd5b505050506040513d601f19601f8201168201806040525081019061061391906111b5565b61061d9086611258565b61ffff168373__$dcaad1777d2b99f53d9a752b008027c0a6$__63be8b3430909160026040518363ffffffff1660e01b815260040161065d929190611294565b602060405180830381865af415801561067a573d6000803e3d6000fd5b505050506040513d601f19601f8201168201806040525081019061069e91906111b5565b6104479087611258565b9450505050505b9392505050565b60408051808201909152600f81527f25336372656374253230783d253237000000000000000000000000000000000060208201526060906106fb8460fa88901c611240565b60405163348051d760e11b815273__$bddea793ab3ab242e0f42fcbbce9ecfcb5$__91636900a3ae916107319190600401611213565b600060405180830381865af415801561074e573d6000803e3d6000fd5b505050506040513d6000823e601f3d908101601f19168201604052610776919081019061130c565b60408051808201909152600b81527f253237253230793d25323700000000000000000000000000000000000000000060208201526107bb85603f60f48b901c16611240565b60405163348051d760e11b815273__$bddea793ab3ab242e0f42fcbbce9ecfcb5$__91636900a3ae916107f19190600401611213565b600060405180830381865af415801561080e573d6000803e3d6000fd5b505050506040513d6000823e601f3d908101601f19168201604052610836919081019061130c565b604080518082018252600f81527f25323725323077696474683d25323700000000000000000000000000000000006020820152905163348051d760e11b815273__$bddea793ab3ab242e0f42fcbbce9ecfcb5$__90636900a3ae906108a690603f60ee8f901c1690600401611213565b600060405180830381865af41580156108c3573d6000803e3d6000fd5b505050506040513d6000823e601f3d908101601f191682016040526108eb919081019061130c565b6040518060400160405280601081526020017f2532372532306865696768743d2532370000000000000000000000000000000081525060088c7bffffffffffffffffffffffffffffffffffffffffffffffffffffffff1916901c60e01c603f1660ff1673__$bddea793ab3ab242e0f42fcbbce9ecfcb5$__636900a3ae90916040518263ffffffff1660e01b81526004016109869190611213565b600060405180830381865af41580156109a3573d6000803e3d6000fd5b505050506040513d6000823e601f3d908101601f191682016040526109cb919081019061130c565b60408051808201909152601181527f25323725323066696c6c3d25323725323300000000000000000000000000000060208201528c8e6003825191901a908110610a1757610a17611347565b60200260200101516040518060400160405280600781526020017f2532372f25336500000000000000000000000000000000000000000000000000815250604051602001610a6f9b9a9998979695949392919061137f565b60405160208183030381529060405290505b949350505050565b606060048351610a999190611427565b15610ad35782516040517fc67eee4b00000000000000000000000000000000000000000000000000000000815260040161036b9190611213565b600060048451610ae3919061143b565b905060008167ffffffffffffffff811115610b0057610b00610ed4565b604051908082528060200260200182016040528015610b3357816020015b6060815260200190600190039081610b1e5790505b50905060005b8151811015610c0257610bd273__$dcaad1777d2b99f53d9a752b008027c0a6$__6305d3bb7488610b6b856004611221565b6040518363ffffffff1660e01b8152600401610b8892919061144f565b602060405180830381865af4158015610ba5573d6000803e3d6000fd5b505050506040513d601f19601f82011682018060405250810190610bc99190611486565b60e01b86610ca3565b828281518110610be457610be4611347565b60200260200101819052508080610bfa906114a7565b915050610b39565b506040517f9bce4e1400000000000000000000000000000000000000000000000000000000815273__$3d939fd680257e7df63fc3436eced304ff$__90639bce4e1490610c53908490600401611532565b600060405180830381865af4158015610c70573d6000803e3d6000fd5b505050506040513d6000823e601f3d908101601f19168201604052610c98919081019061130c565b925050505b92915050565b60606106af83836000806106b6565b6060610a8184610cc3856001611240565b610cce856001611240565b6060833b80610ced5750506040805160208101909152600081526106af565b80841115610d0b5750506040805160208101909152600081526106af565b83831015610d4b578084846040517f2c4a89fa00000000000000000000000000000000000000000000000000000000815260040161036b93929190611543565b8383038482036000828210610d605782610d62565b815b60408051603f8301601f19168101909152818152955090508087602087018a3c505050509392505050565b60005b83811015610da8578181015183820152602001610d90565b83811115610db7576000848401525b50505050565b6000610dc7825190565b808452602084019350610dde818560208601610d8d565b601f01601f19169290920192915050565b602080825281016106af8184610dbd565b600073ffffffffffffffffffffffffffffffffffffffff8216610c9d565b610e2781610e00565b8114610e3257600080fd5b50565b8035610c9d81610e1e565b80610e27565b8035610c9d81610e40565b600080600060608486031215610e6957610e69600080fd5b6000610e758686610e35565b9350506020610e8686828701610e46565b9250506040610e9786828701610e46565b9150509250925092565b7fffffffff000000000000000000000000000000000000000000000000000000008116610e27565b8035610c9d81610ea1565b634e487b7160e01b600052604160045260246000fd5b601f19601f830116810181811067ffffffffffffffff82111715610f1057610f10610ed4565b6040525050565b6000610f2260405190565b9050610f2e8282610eea565b919050565b600067ffffffffffffffff821115610f4d57610f4d610ed4565b5060209081020190565b600067ffffffffffffffff821115610f7157610f71610ed4565b601f19601f83011660200192915050565b82818337506000910152565b6000610fa1610f9c84610f57565b610f17565b905082815260208101848484011115610fbc57610fbc600080fd5b610fc7848285610f82565b509392505050565b600082601f830112610fe357610fe3600080fd5b8135610a81848260208601610f8e565b6000611001610f9c84610f33565b8381529050602080820190840283018581111561102057611020600080fd5b835b8181101561105f57803567ffffffffffffffff81111561104457611044600080fd5b85016110508882610fcf565b84525060209283019201611022565b5050509392505050565b600082601f83011261107d5761107d600080fd5b8135610a81848260208601610ff3565b600080600080608085870312156110a6576110a6600080fd5b60006110b28787610ec9565b945050602085013567ffffffffffffffff8111156110d2576110d2600080fd5b6110de87828801611069565b93505060406110ef87828801610e46565b925050606061110087828801610e46565b91505092959194509250565b6000806040838503121561112257611122600080fd5b823567ffffffffffffffff81111561113c5761113c600080fd5b61114885828601610fcf565b925050602083013567ffffffffffffffff81111561116857611168600080fd5b61117485828601611069565b9150509250929050565b6000806040838503121561119457611194600080fd5b60006111488585610ec9565b61ffff8116610e27565b8051610c9d816111a0565b6000602082840312156111ca576111ca600080fd5b6000610a8184846111aa565b634e487b7160e01b600052601160045260246000fd5b61ffff9182169116600082821015611206576112066111d6565b500390565b805b82525050565b60208101610c9d828461120b565b600081600019048311821515161561123b5761123b6111d6565b500290565b60008219821115611253576112536111d6565b500190565b61ffff8116905061ffff8216915060008261ffff03821115611253576112536111d6565b6000610c9d6112888381565b90565b61120d8161127c565b604080825281016112a58185610dbd565b90506106af602083018461128b565b60006112c2610f9c84610f57565b9050828152602081018484840111156112dd576112dd600080fd5b610fc7848285610d8d565b600082601f8301126112fc576112fc600080fd5b8151610a818482602086016112b4565b60006020828403121561132157611321600080fd5b815167ffffffffffffffff81111561133b5761133b600080fd5b610a81848285016112e8565b634e487b7160e01b600052603260045260246000fd5b6000611367825190565b611375818560208601610d8d565b9290920192915050565b611389818d61135d565b9050611395818c61135d565b90506113a1818b61135d565b90506113ad818a61135d565b90506113b9818961135d565b90506113c5818861135d565b90506113d1818761135d565b90506113dd818661135d565b90506113e9818561135d565b90506113f5818461135d565b9050611401818361135d565b9c9b505050505050505050505050565b634e487b7160e01b600052601260045260246000fd5b60008261143657611436611411565b500690565b60008261144a5761144a611411565b500490565b604080825281016114608185610dbd565b90506106af602083018461120b565b63ffffffff8116610e27565b8051610c9d8161146f565b60006020828403121561149b5761149b600080fd5b6000610a81848461147b565b60006000198214156114bb576114bb6111d6565b5060010190565b60006106af8383610dbd565b60006114d8825190565b808452602084019350836020820285016114f28560200190565b60005b84811015611526578383038852815161150e84826114c2565b935050602082016020989098019791506001016114f5565b50909695505050505050565b602080825281016106af81846114ce565b60608101611551828661120b565b61155e602083018561120b565b610a81604083018461120b56fea2646970667358221220ebaa3db64f5246b8fb0ad30acb7709a56e4f65b4681a32f36b6f39df787554c164736f6c634300080c0033",
  "libraries": {
    "Array": "0x1FA6A2152871D5A4D1f56511110C9a353CA48339",
    "Bytes": "0xB0464EBF65D8F453a9056eEFE11167411B1d1855",
    "Integers": "0xFD60cDD345feB6011fDeb4Dc3d69aD2319f8508C"
  },
  "devdoc": {
    "author": "Clement Walter <clement0walter@gmail.com>",
    "kind": "dev",
    "methods": {
      "getTraitBytes(address,uint256,uint256)": {
        "details": "Retrieve the bytes for the given trait from the traits storage.",
        "params": {
          "characteristicIndex": "The index of the characteristic in the collection.",
          "pointer": "The pointer to the traits stored with SSTORE2.",
          "traitIndex": "The index of the trait in the characteristic."
        },
        "returns": {
          "_0": "The bytes of the trait."
        }
      }
    },
    "title": "RectRenderer   This library can be used to render on-chain images stored as a layering of rectangles.   The returned images is an url safe encoded image uri.",
    "version": 1
  },
  "userdoc": {
    "kind": "user",
    "methods": {},
    "version": 1
  },
  "storageLayout": {
    "storage": [],
    "types": null
  }
}