{
  "address": "0x98eA186a6AeDDD4dB001246E02600CF15625558A",
  "abi": [
    {
      "inputs": [
        {
          "internalType": "uint256",
          "name": "characteristic",
          "type": "uint256"
        }
      ],
      "name": "CharacteristicOutOfRange",
      "type": "error"
    },
    {
      "inputs": [
        {
          "internalType": "uint256",
          "name": "_size",
          "type": "uint256"
        },
        {
          "internalType": "uint256",
          "name": "_start",
          "type": "uint256"
        },
        {
          "internalType": "uint256",
          "name": "_end",
          "type": "uint256"
        }
      ],
      "name": "InvalidCodeAtRange",
      "type": "error"
    },
    {
      "inputs": [
        {
          "internalType": "uint256",
          "name": "length",
          "type": "uint256"
        }
      ],
      "name": "InvalidLength",
      "type": "error"
    },
    {
      "inputs": [
        {
          "internalType": "uint256",
          "name": "trait",
          "type": "uint256"
        }
      ],
      "name": "TraitOutOfRange",
      "type": "error"
    },
    {
      "inputs": [],
      "name": "FILL_TAG",
      "outputs": [
        {
          "internalType": "string",
          "name": "",
          "type": "string"
        }
      ],
      "stateMutability": "view",
      "type": "function"
    },
    {
      "inputs": [],
      "name": "HEIGHT_TAG",
      "outputs": [
        {
          "internalType": "string",
          "name": "",
          "type": "string"
        }
      ],
      "stateMutability": "view",
      "type": "function"
    },
    {
      "inputs": [],
      "name": "RECT_TAG_END",
      "outputs": [
        {
          "internalType": "string",
          "name": "",
          "type": "string"
        }
      ],
      "stateMutability": "view",
      "type": "function"
    },
    {
      "inputs": [],
      "name": "RECT_TAG_START",
      "outputs": [
        {
          "internalType": "string",
          "name": "",
          "type": "string"
        }
      ],
      "stateMutability": "view",
      "type": "function"
    },
    {
      "inputs": [],
      "name": "WIDTH_TAG",
      "outputs": [
        {
          "internalType": "string",
          "name": "",
          "type": "string"
        }
      ],
      "stateMutability": "view",
      "type": "function"
    },
    {
      "inputs": [],
      "name": "Y_TAG",
      "outputs": [
        {
          "internalType": "string",
          "name": "",
          "type": "string"
        }
      ],
      "stateMutability": "view",
      "type": "function"
    },
    {
      "inputs": [
        {
          "internalType": "bytes4",
          "name": "rectBytes",
          "type": "bytes4"
        },
        {
          "internalType": "string[]",
          "name": "palette",
          "type": "string[]"
        },
        {
          "internalType": "uint256",
          "name": "offsetX",
          "type": "uint256"
        },
        {
          "internalType": "uint256",
          "name": "offsetY",
          "type": "uint256"
        }
      ],
      "name": "decodeBytes4ToRect",
      "outputs": [
        {
          "internalType": "string",
          "name": "",
          "type": "string"
        }
      ],
      "stateMutability": "pure",
      "type": "function"
    },
    {
      "inputs": [
        {
          "internalType": "bytes4",
          "name": "rectBytes",
          "type": "bytes4"
        },
        {
          "internalType": "string[]",
          "name": "palette",
          "type": "string[]"
        }
      ],
      "name": "decodeBytes4ToRect",
      "outputs": [
        {
          "internalType": "string",
          "name": "",
          "type": "string"
        }
      ],
      "stateMutability": "pure",
      "type": "function"
    },
    {
      "inputs": [
        {
          "internalType": "bytes",
          "name": "rectsBytes",
          "type": "bytes"
        },
        {
          "internalType": "string[]",
          "name": "palette",
          "type": "string[]"
        }
      ],
      "name": "decodeBytesMemoryToRects",
      "outputs": [
        {
          "internalType": "string",
          "name": "",
          "type": "string"
        }
      ],
      "stateMutability": "pure",
      "type": "function"
    },
    {
      "inputs": [
        {
          "internalType": "bytes",
          "name": "names",
          "type": "bytes"
        }
      ],
      "name": "decodeNames",
      "outputs": [
        {
          "internalType": "string",
          "name": "description",
          "type": "string"
        },
        {
          "internalType": "string[]",
          "name": "characteristicNames",
          "type": "string[]"
        },
        {
          "internalType": "string[][]",
          "name": "traitNames",
          "type": "string[][]"
        }
      ],
      "stateMutability": "pure",
      "type": "function"
    },
    {
      "inputs": [
        {
          "internalType": "address",
          "name": "pointer",
          "type": "address"
        },
        {
          "internalType": "uint256",
          "name": "characteristicIndex",
          "type": "uint256"
        },
        {
          "internalType": "uint256",
          "name": "traitIndex",
          "type": "uint256"
        }
      ],
      "name": "getTraitBytes",
      "outputs": [
        {
          "internalType": "bytes",
          "name": "",
          "type": "bytes"
        }
      ],
      "stateMutability": "view",
      "type": "function"
    }
  ],
  "transactionHash": "0x372f421e6e72c8f2481f9e83f6cb373a848724f8e11f5290ccabf55234831cc6",
  "args": [],
  "numDeployments": 6,
  "solcInputHash": "ddd242d1243945fc4c82f236fa01e6bd",
  "bytecode": "0x6118e361003a600b82828239805160001a60731461002d57634e487b7160e01b600052600060045260246000fd5b30600052607381538281f3fe73000000000000000000000000000000000000000030146080604052600436106100d35760003560e01c80635e99a6301161008b578063999086e311610065578063999086e314610262578063b674b76114610275578063f258feb1146102b157600080fd5b80635e99a630146101f15780636102cd041461020457806369db9ed01461022657600080fd5b80634239abe4116100bc5780634239abe41461016657806343c8ecbe146101795780634d32bd7d146101b557600080fd5b8063146f9480146100d8578063407134de1461012a575b600080fd5b6101146040518060400160405280601081526020017f2532372532306865696768743d2532370000000000000000000000000000000081525081565b6040516101219190610e42565b60405180910390f35b6101146040518060400160405280600781526020017f2532372f2533650000000000000000000000000000000000000000000000000081525081565b610114610174366004610ea4565b6102c4565b6101146040518060400160405280600f81526020017f25323725323077696474683d253237000000000000000000000000000000000081525081565b6101146040518060400160405280600b81526020017f253237253230793d25323700000000000000000000000000000000000000000081525081565b6101146101ff3660046110e0565b6106e3565b61021761021236600461115f565b610ab6565b604051610121939291906112c6565b6101146040518060400160405280600f81526020017f25336372656374253230783d253237000000000000000000000000000000000081525081565b610114610270366004611308565b610adc565b6101146040518060400160405280601181526020017f25323725323066696c6c3d25323725323300000000000000000000000000000081525081565b6101146102bf36600461137a565b610cf6565b606060006102d58560006002610d05565b6040516326b3515760e11b815273B0464EBF65D8F453a9056eEFE11167411B1d185591634d66a2ae9161030b9190600401610e42565b602060405180830381865af4158015610328573d6000803e3d6000fd5b505050506040513d601f19601f8201168201806040525081019061034c91906113b1565b90508361035a6001836113e8565b61ffff1610156103a157836040517f475e8192000000000000000000000000000000000000000000000000000000008152600401610398919061140f565b60405180910390fd5b60006103e3866103b287600261141d565b6103bd90600261143c565b6103c888600261141d565b6103d390600261143c565b6103de90600261143c565b610d05565b6040516326b3515760e11b815273B0464EBF65D8F453a9056eEFE11167411B1d185591634d66a2ae916104199190600401610e42565b602060405180830381865af4158015610436573d6000803e3d6000fd5b505050506040513d601f19601f8201168201806040525081019061045a91906113b1565b90506000600161047d8861ffff8516610474866002611454565b61ffff16610d05565b6040516326b3515760e11b815273B0464EBF65D8F453a9056eEFE11167411B1d185591634d66a2ae916104b39190600401610e42565b602060405180830381865af41580156104d0573d6000803e3d6000fd5b505050506040513d601f19601f820116820180604052508101906104f491906113b1565b6104fe91906113e8565b90508461050c6001836113e8565b61ffff16101561054a57846040517fab074d52000000000000000000000000000000000000000000000000000000008152600401610398919061140f565b60006105a38861055b88600261141d565b610566866002611454565b61ffff16610574919061143c565b61057f89600261141d565b61058a876002611454565b61ffff16610598919061143c565b6103de90600461143c565b6040517fbe8b34300000000000000000000000000000000000000000000000000000000081529091506106d590899073B0464EBF65D8F453a9056eEFE11167411B1d18559063be8b3430906105ff908690600090600401611490565b602060405180830381865af415801561061c573d6000803e3d6000fd5b505050506040513d601f19601f8201168201806040525081019061064091906113b1565b61064a9086611454565b61ffff168373B0464EBF65D8F453a9056eEFE11167411B1d185563be8b3430909160026040518363ffffffff1660e01b815260040161068a929190611490565b602060405180830381865af41580156106a7573d6000803e3d6000fd5b505050506040513d601f19601f820116820180604052508101906106cb91906113b1565b6104749087611454565b9450505050505b9392505050565b60408051808201909152600f81527f25336372656374253230783d253237000000000000000000000000000000000060208201526060906107288460fa88901c61143c565b60405163348051d760e11b815273FD60cDD345feB6011fDeb4Dc3d69aD2319f8508C91636900a3ae9161075e919060040161140f565b600060405180830381865af415801561077b573d6000803e3d6000fd5b505050506040513d6000823e601f3d908101601f191682016040526107a39190810190611508565b60408051808201909152600b81527f253237253230793d25323700000000000000000000000000000000000000000060208201526107e885603f60f48b901c1661143c565b60405163348051d760e11b815273FD60cDD345feB6011fDeb4Dc3d69aD2319f8508C91636900a3ae9161081e919060040161140f565b600060405180830381865af415801561083b573d6000803e3d6000fd5b505050506040513d6000823e601f3d908101601f191682016040526108639190810190611508565b604080518082018252600f81527f25323725323077696474683d25323700000000000000000000000000000000006020820152905163348051d760e11b815273FD60cDD345feB6011fDeb4Dc3d69aD2319f8508C90636900a3ae906108d390603f60ee8f901c169060040161140f565b600060405180830381865af41580156108f0573d6000803e3d6000fd5b505050506040513d6000823e601f3d908101601f191682016040526109189190810190611508565b6040518060400160405280601081526020017f2532372532306865696768743d2532370000000000000000000000000000000081525060088c7bffffffffffffffffffffffffffffffffffffffffffffffffffffffff1916901c60e01c603f1660ff1673FD60cDD345feB6011fDeb4Dc3d69aD2319f8508C636900a3ae90916040518263ffffffff1660e01b81526004016109b3919061140f565b600060405180830381865af41580156109d0573d6000803e3d6000fd5b505050506040513d6000823e601f3d908101601f191682016040526109f89190810190611508565b60408051808201909152601181527f25323725323066696c6c3d25323725323300000000000000000000000000000060208201528c8e6003825191901a908110610a4457610a44611543565b60200260200101516040518060400160405280600781526020017f2532372f25336500000000000000000000000000000000000000000000000000815250604051602001610a9c9b9a9998979695949392919061157b565b60405160208183030381529060405290505b949350505050565b606080606083806020019051810190610acf919061172d565b9250925092509193909250565b606060048351610aec91906117d9565b15610b265782516040517fc67eee4b000000000000000000000000000000000000000000000000000000008152600401610398919061140f565b600060048451610b3691906117ed565b905060008167ffffffffffffffff811115610b5357610b53610f27565b604051908082528060200260200182016040528015610b8657816020015b6060815260200190600190039081610b715790505b50905060005b8151811015610c5557610c2573B0464EBF65D8F453a9056eEFE11167411B1d18556305d3bb7488610bbe85600461141d565b6040518363ffffffff1660e01b8152600401610bdb929190611801565b602060405180830381865af4158015610bf8573d6000803e3d6000fd5b505050506040513d601f19601f82011682018060405250810190610c1c9190611838565b60e01b86610cf6565b828281518110610c3757610c37611543565b60200260200101819052508080610c4d90611859565b915050610b8c565b506040517f9bce4e14000000000000000000000000000000000000000000000000000000008152731FA6A2152871D5A4D1f56511110C9a353CA4833990639bce4e1490610ca6908490600401611874565b600060405180830381865af4158015610cc3573d6000803e3d6000fd5b505050506040513d6000823e601f3d908101601f19168201604052610ceb9190810190611508565b925050505b92915050565b60606106dc83836000806106e3565b6060610aae84610d1685600161143c565b610d2185600161143c565b6060833b80610d405750506040805160208101909152600081526106dc565b80841115610d5e5750506040805160208101909152600081526106dc565b83831015610d9e578084846040517f2c4a89fa00000000000000000000000000000000000000000000000000000000815260040161039893929190611885565b8383038482036000828210610db35782610db5565b815b60408051603f8301601f19168101909152818152955090508087602087018a3c505050509392505050565b60005b83811015610dfb578181015183820152602001610de3565b83811115610e0a576000848401525b50505050565b6000610e1a825190565b808452602084019350610e31818560208601610de0565b601f01601f19169290920192915050565b602080825281016106dc8184610e10565b600073ffffffffffffffffffffffffffffffffffffffff8216610cf0565b610e7a81610e53565b8114610e8557600080fd5b50565b8035610cf081610e71565b80610e7a565b8035610cf081610e93565b600080600060608486031215610ebc57610ebc600080fd5b6000610ec88686610e88565b9350506020610ed986828701610e99565b9250506040610eea86828701610e99565b9150509250925092565b7fffffffff000000000000000000000000000000000000000000000000000000008116610e7a565b8035610cf081610ef4565b634e487b7160e01b600052604160045260246000fd5b601f19601f830116810181811067ffffffffffffffff82111715610f6357610f63610f27565b6040525050565b6000610f7560405190565b9050610f818282610f3d565b919050565b600067ffffffffffffffff821115610fa057610fa0610f27565b5060209081020190565b600067ffffffffffffffff821115610fc457610fc4610f27565b601f19601f83011660200192915050565b82818337506000910152565b6000610ff4610fef84610faa565b610f6a565b90508281526020810184848401111561100f5761100f600080fd5b61101a848285610fd5565b509392505050565b600082601f83011261103657611036600080fd5b8135610aae848260208601610fe1565b6000611054610fef84610f86565b8381529050602080820190840283018581111561107357611073600080fd5b835b818110156110b257803567ffffffffffffffff81111561109757611097600080fd5b85016110a38882611022565b84525060209283019201611075565b5050509392505050565b600082601f8301126110d0576110d0600080fd5b8135610aae848260208601611046565b600080600080608085870312156110f9576110f9600080fd5b60006111058787610f1c565b945050602085013567ffffffffffffffff81111561112557611125600080fd5b611131878288016110bc565b935050604061114287828801610e99565b925050606061115387828801610e99565b91505092959194509250565b60006020828403121561117457611174600080fd5b813567ffffffffffffffff81111561118e5761118e600080fd5b610aae84828501611022565b60006106dc8383610e10565b60006111b0825190565b808452602084019350836020820285016111ca8560200190565b60005b848110156111fe57838303885281516111e6848261119a565b935050602082016020989098019791506001016111cd565b50909695505050505050565b6000611214825190565b8084526020840193508360208202850161122e8560200190565b60005b848110156111fe578383038852815161124a848261119a565b93505060208201602098909801979150600101611231565b60006106dc838361120a565b6000611278825190565b808452602084019350836020820285016112928560200190565b60005b848110156111fe57838303885281516112ae8482611262565b93505060208201602098909801979150600101611295565b606080825281016112d78186610e10565b905081810360208301526112eb81856111a6565b905081810360408301526112ff818461126e565b95945050505050565b6000806040838503121561131e5761131e600080fd5b823567ffffffffffffffff81111561133857611338600080fd5b61134485828601611022565b925050602083013567ffffffffffffffff81111561136457611364600080fd5b611370858286016110bc565b9150509250929050565b6000806040838503121561139057611390600080fd5b60006113448585610f1c565b61ffff8116610e7a565b8051610cf08161139c565b6000602082840312156113c6576113c6600080fd5b6000610aae84846113a6565b634e487b7160e01b600052601160045260246000fd5b61ffff9182169116600082821015611402576114026113d2565b500390565b805b82525050565b60208101610cf08284611407565b6000816000190483118215151615611437576114376113d2565b500290565b6000821982111561144f5761144f6113d2565b500190565b61ffff8116905061ffff8216915060008261ffff0382111561144f5761144f6113d2565b6000610cf06114848381565b90565b61140981611478565b604080825281016114a18185610e10565b90506106dc6020830184611487565b60006114be610fef84610faa565b9050828152602081018484840111156114d9576114d9600080fd5b61101a848285610de0565b600082601f8301126114f8576114f8600080fd5b8151610aae8482602086016114b0565b60006020828403121561151d5761151d600080fd5b815167ffffffffffffffff81111561153757611537600080fd5b610aae848285016114e4565b634e487b7160e01b600052603260045260246000fd5b6000611563825190565b611571818560208601610de0565b9290920192915050565b611585818d611559565b9050611591818c611559565b905061159d818b611559565b90506115a9818a611559565b90506115b58189611559565b90506115c18188611559565b90506115cd8187611559565b90506115d98186611559565b90506115e58185611559565b90506115f18184611559565b90506115fd8183611559565b9c9b505050505050505050505050565b600061161b610fef84610f86565b8381529050602080820190840283018581111561163a5761163a600080fd5b835b818110156110b257805167ffffffffffffffff81111561165e5761165e600080fd5b850161166a88826114e4565b8452506020928301920161163c565b600082601f83011261168d5761168d600080fd5b8151610aae84826020860161160d565b60006116ab610fef84610f86565b838152905060208082019084028301858111156116ca576116ca600080fd5b835b818110156110b257805167ffffffffffffffff8111156116ee576116ee600080fd5b85016116fa8882611679565b845250602092830192016116cc565b600082601f83011261171d5761171d600080fd5b8151610aae84826020860161169d565b60008060006060848603121561174557611745600080fd5b835167ffffffffffffffff81111561175f5761175f600080fd5b61176b868287016114e4565b935050602084015167ffffffffffffffff81111561178b5761178b600080fd5b61179786828701611679565b925050604084015167ffffffffffffffff8111156117b7576117b7600080fd5b610eea86828701611709565b634e487b7160e01b600052601260045260246000fd5b6000826117e8576117e86117c3565b500690565b6000826117fc576117fc6117c3565b500490565b604080825281016118128185610e10565b90506106dc6020830184611407565b63ffffffff8116610e7a565b8051610cf081611821565b60006020828403121561184d5761184d600080fd5b6000610aae848461182d565b600060001982141561186d5761186d6113d2565b5060010190565b602080825281016106dc81846111a6565b606081016118938286611407565b6118a06020830185611407565b610aae604083018461140756fea264697066735822122000fa654eea0785ffffe8b39d6a0601348200e1749e42cb4c78297f856486de2a64736f6c634300080c0033",
  "deployedBytecode": "0x73000000000000000000000000000000000000000030146080604052600436106100d35760003560e01c80635e99a6301161008b578063999086e311610065578063999086e314610262578063b674b76114610275578063f258feb1146102b157600080fd5b80635e99a630146101f15780636102cd041461020457806369db9ed01461022657600080fd5b80634239abe4116100bc5780634239abe41461016657806343c8ecbe146101795780634d32bd7d146101b557600080fd5b8063146f9480146100d8578063407134de1461012a575b600080fd5b6101146040518060400160405280601081526020017f2532372532306865696768743d2532370000000000000000000000000000000081525081565b6040516101219190610e42565b60405180910390f35b6101146040518060400160405280600781526020017f2532372f2533650000000000000000000000000000000000000000000000000081525081565b610114610174366004610ea4565b6102c4565b6101146040518060400160405280600f81526020017f25323725323077696474683d253237000000000000000000000000000000000081525081565b6101146040518060400160405280600b81526020017f253237253230793d25323700000000000000000000000000000000000000000081525081565b6101146101ff3660046110e0565b6106e3565b61021761021236600461115f565b610ab6565b604051610121939291906112c6565b6101146040518060400160405280600f81526020017f25336372656374253230783d253237000000000000000000000000000000000081525081565b610114610270366004611308565b610adc565b6101146040518060400160405280601181526020017f25323725323066696c6c3d25323725323300000000000000000000000000000081525081565b6101146102bf36600461137a565b610cf6565b606060006102d58560006002610d05565b6040516326b3515760e11b815273__$dcaad1777d2b99f53d9a752b008027c0a6$__91634d66a2ae9161030b9190600401610e42565b602060405180830381865af4158015610328573d6000803e3d6000fd5b505050506040513d601f19601f8201168201806040525081019061034c91906113b1565b90508361035a6001836113e8565b61ffff1610156103a157836040517f475e8192000000000000000000000000000000000000000000000000000000008152600401610398919061140f565b60405180910390fd5b60006103e3866103b287600261141d565b6103bd90600261143c565b6103c888600261141d565b6103d390600261143c565b6103de90600261143c565b610d05565b6040516326b3515760e11b815273__$dcaad1777d2b99f53d9a752b008027c0a6$__91634d66a2ae916104199190600401610e42565b602060405180830381865af4158015610436573d6000803e3d6000fd5b505050506040513d601f19601f8201168201806040525081019061045a91906113b1565b90506000600161047d8861ffff8516610474866002611454565b61ffff16610d05565b6040516326b3515760e11b815273__$dcaad1777d2b99f53d9a752b008027c0a6$__91634d66a2ae916104b39190600401610e42565b602060405180830381865af41580156104d0573d6000803e3d6000fd5b505050506040513d601f19601f820116820180604052508101906104f491906113b1565b6104fe91906113e8565b90508461050c6001836113e8565b61ffff16101561054a57846040517fab074d52000000000000000000000000000000000000000000000000000000008152600401610398919061140f565b60006105a38861055b88600261141d565b610566866002611454565b61ffff16610574919061143c565b61057f89600261141d565b61058a876002611454565b61ffff16610598919061143c565b6103de90600461143c565b6040517fbe8b34300000000000000000000000000000000000000000000000000000000081529091506106d590899073__$dcaad1777d2b99f53d9a752b008027c0a6$__9063be8b3430906105ff908690600090600401611490565b602060405180830381865af415801561061c573d6000803e3d6000fd5b505050506040513d601f19601f8201168201806040525081019061064091906113b1565b61064a9086611454565b61ffff168373__$dcaad1777d2b99f53d9a752b008027c0a6$__63be8b3430909160026040518363ffffffff1660e01b815260040161068a929190611490565b602060405180830381865af41580156106a7573d6000803e3d6000fd5b505050506040513d601f19601f820116820180604052508101906106cb91906113b1565b6104749087611454565b9450505050505b9392505050565b60408051808201909152600f81527f25336372656374253230783d253237000000000000000000000000000000000060208201526060906107288460fa88901c61143c565b60405163348051d760e11b815273__$bddea793ab3ab242e0f42fcbbce9ecfcb5$__91636900a3ae9161075e919060040161140f565b600060405180830381865af415801561077b573d6000803e3d6000fd5b505050506040513d6000823e601f3d908101601f191682016040526107a39190810190611508565b60408051808201909152600b81527f253237253230793d25323700000000000000000000000000000000000000000060208201526107e885603f60f48b901c1661143c565b60405163348051d760e11b815273__$bddea793ab3ab242e0f42fcbbce9ecfcb5$__91636900a3ae9161081e919060040161140f565b600060405180830381865af415801561083b573d6000803e3d6000fd5b505050506040513d6000823e601f3d908101601f191682016040526108639190810190611508565b604080518082018252600f81527f25323725323077696474683d25323700000000000000000000000000000000006020820152905163348051d760e11b815273__$bddea793ab3ab242e0f42fcbbce9ecfcb5$__90636900a3ae906108d390603f60ee8f901c169060040161140f565b600060405180830381865af41580156108f0573d6000803e3d6000fd5b505050506040513d6000823e601f3d908101601f191682016040526109189190810190611508565b6040518060400160405280601081526020017f2532372532306865696768743d2532370000000000000000000000000000000081525060088c7bffffffffffffffffffffffffffffffffffffffffffffffffffffffff1916901c60e01c603f1660ff1673__$bddea793ab3ab242e0f42fcbbce9ecfcb5$__636900a3ae90916040518263ffffffff1660e01b81526004016109b3919061140f565b600060405180830381865af41580156109d0573d6000803e3d6000fd5b505050506040513d6000823e601f3d908101601f191682016040526109f89190810190611508565b60408051808201909152601181527f25323725323066696c6c3d25323725323300000000000000000000000000000060208201528c8e6003825191901a908110610a4457610a44611543565b60200260200101516040518060400160405280600781526020017f2532372f25336500000000000000000000000000000000000000000000000000815250604051602001610a9c9b9a9998979695949392919061157b565b60405160208183030381529060405290505b949350505050565b606080606083806020019051810190610acf919061172d565b9250925092509193909250565b606060048351610aec91906117d9565b15610b265782516040517fc67eee4b000000000000000000000000000000000000000000000000000000008152600401610398919061140f565b600060048451610b3691906117ed565b905060008167ffffffffffffffff811115610b5357610b53610f27565b604051908082528060200260200182016040528015610b8657816020015b6060815260200190600190039081610b715790505b50905060005b8151811015610c5557610c2573__$dcaad1777d2b99f53d9a752b008027c0a6$__6305d3bb7488610bbe85600461141d565b6040518363ffffffff1660e01b8152600401610bdb929190611801565b602060405180830381865af4158015610bf8573d6000803e3d6000fd5b505050506040513d601f19601f82011682018060405250810190610c1c9190611838565b60e01b86610cf6565b828281518110610c3757610c37611543565b60200260200101819052508080610c4d90611859565b915050610b8c565b506040517f9bce4e1400000000000000000000000000000000000000000000000000000000815273__$3d939fd680257e7df63fc3436eced304ff$__90639bce4e1490610ca6908490600401611874565b600060405180830381865af4158015610cc3573d6000803e3d6000fd5b505050506040513d6000823e601f3d908101601f19168201604052610ceb9190810190611508565b925050505b92915050565b60606106dc83836000806106e3565b6060610aae84610d1685600161143c565b610d2185600161143c565b6060833b80610d405750506040805160208101909152600081526106dc565b80841115610d5e5750506040805160208101909152600081526106dc565b83831015610d9e578084846040517f2c4a89fa00000000000000000000000000000000000000000000000000000000815260040161039893929190611885565b8383038482036000828210610db35782610db5565b815b60408051603f8301601f19168101909152818152955090508087602087018a3c505050509392505050565b60005b83811015610dfb578181015183820152602001610de3565b83811115610e0a576000848401525b50505050565b6000610e1a825190565b808452602084019350610e31818560208601610de0565b601f01601f19169290920192915050565b602080825281016106dc8184610e10565b600073ffffffffffffffffffffffffffffffffffffffff8216610cf0565b610e7a81610e53565b8114610e8557600080fd5b50565b8035610cf081610e71565b80610e7a565b8035610cf081610e93565b600080600060608486031215610ebc57610ebc600080fd5b6000610ec88686610e88565b9350506020610ed986828701610e99565b9250506040610eea86828701610e99565b9150509250925092565b7fffffffff000000000000000000000000000000000000000000000000000000008116610e7a565b8035610cf081610ef4565b634e487b7160e01b600052604160045260246000fd5b601f19601f830116810181811067ffffffffffffffff82111715610f6357610f63610f27565b6040525050565b6000610f7560405190565b9050610f818282610f3d565b919050565b600067ffffffffffffffff821115610fa057610fa0610f27565b5060209081020190565b600067ffffffffffffffff821115610fc457610fc4610f27565b601f19601f83011660200192915050565b82818337506000910152565b6000610ff4610fef84610faa565b610f6a565b90508281526020810184848401111561100f5761100f600080fd5b61101a848285610fd5565b509392505050565b600082601f83011261103657611036600080fd5b8135610aae848260208601610fe1565b6000611054610fef84610f86565b8381529050602080820190840283018581111561107357611073600080fd5b835b818110156110b257803567ffffffffffffffff81111561109757611097600080fd5b85016110a38882611022565b84525060209283019201611075565b5050509392505050565b600082601f8301126110d0576110d0600080fd5b8135610aae848260208601611046565b600080600080608085870312156110f9576110f9600080fd5b60006111058787610f1c565b945050602085013567ffffffffffffffff81111561112557611125600080fd5b611131878288016110bc565b935050604061114287828801610e99565b925050606061115387828801610e99565b91505092959194509250565b60006020828403121561117457611174600080fd5b813567ffffffffffffffff81111561118e5761118e600080fd5b610aae84828501611022565b60006106dc8383610e10565b60006111b0825190565b808452602084019350836020820285016111ca8560200190565b60005b848110156111fe57838303885281516111e6848261119a565b935050602082016020989098019791506001016111cd565b50909695505050505050565b6000611214825190565b8084526020840193508360208202850161122e8560200190565b60005b848110156111fe578383038852815161124a848261119a565b93505060208201602098909801979150600101611231565b60006106dc838361120a565b6000611278825190565b808452602084019350836020820285016112928560200190565b60005b848110156111fe57838303885281516112ae8482611262565b93505060208201602098909801979150600101611295565b606080825281016112d78186610e10565b905081810360208301526112eb81856111a6565b905081810360408301526112ff818461126e565b95945050505050565b6000806040838503121561131e5761131e600080fd5b823567ffffffffffffffff81111561133857611338600080fd5b61134485828601611022565b925050602083013567ffffffffffffffff81111561136457611364600080fd5b611370858286016110bc565b9150509250929050565b6000806040838503121561139057611390600080fd5b60006113448585610f1c565b61ffff8116610e7a565b8051610cf08161139c565b6000602082840312156113c6576113c6600080fd5b6000610aae84846113a6565b634e487b7160e01b600052601160045260246000fd5b61ffff9182169116600082821015611402576114026113d2565b500390565b805b82525050565b60208101610cf08284611407565b6000816000190483118215151615611437576114376113d2565b500290565b6000821982111561144f5761144f6113d2565b500190565b61ffff8116905061ffff8216915060008261ffff0382111561144f5761144f6113d2565b6000610cf06114848381565b90565b61140981611478565b604080825281016114a18185610e10565b90506106dc6020830184611487565b60006114be610fef84610faa565b9050828152602081018484840111156114d9576114d9600080fd5b61101a848285610de0565b600082601f8301126114f8576114f8600080fd5b8151610aae8482602086016114b0565b60006020828403121561151d5761151d600080fd5b815167ffffffffffffffff81111561153757611537600080fd5b610aae848285016114e4565b634e487b7160e01b600052603260045260246000fd5b6000611563825190565b611571818560208601610de0565b9290920192915050565b611585818d611559565b9050611591818c611559565b905061159d818b611559565b90506115a9818a611559565b90506115b58189611559565b90506115c18188611559565b90506115cd8187611559565b90506115d98186611559565b90506115e58185611559565b90506115f18184611559565b90506115fd8183611559565b9c9b505050505050505050505050565b600061161b610fef84610f86565b8381529050602080820190840283018581111561163a5761163a600080fd5b835b818110156110b257805167ffffffffffffffff81111561165e5761165e600080fd5b850161166a88826114e4565b8452506020928301920161163c565b600082601f83011261168d5761168d600080fd5b8151610aae84826020860161160d565b60006116ab610fef84610f86565b838152905060208082019084028301858111156116ca576116ca600080fd5b835b818110156110b257805167ffffffffffffffff8111156116ee576116ee600080fd5b85016116fa8882611679565b845250602092830192016116cc565b600082601f83011261171d5761171d600080fd5b8151610aae84826020860161169d565b60008060006060848603121561174557611745600080fd5b835167ffffffffffffffff81111561175f5761175f600080fd5b61176b868287016114e4565b935050602084015167ffffffffffffffff81111561178b5761178b600080fd5b61179786828701611679565b925050604084015167ffffffffffffffff8111156117b7576117b7600080fd5b610eea86828701611709565b634e487b7160e01b600052601260045260246000fd5b6000826117e8576117e86117c3565b500690565b6000826117fc576117fc6117c3565b500490565b604080825281016118128185610e10565b90506106dc6020830184611407565b63ffffffff8116610e7a565b8051610cf081611821565b60006020828403121561184d5761184d600080fd5b6000610aae848461182d565b600060001982141561186d5761186d6113d2565b5060010190565b602080825281016106dc81846111a6565b606081016118938286611407565b6118a06020830185611407565b610aae604083018461140756fea264697066735822122000fa654eea0785ffffe8b39d6a0601348200e1749e42cb4c78297f856486de2a64736f6c634300080c0033",
  "libraries": {
    "Array": "0x1FA6A2152871D5A4D1f56511110C9a353CA48339",
    "Bytes": "0xB0464EBF65D8F453a9056eEFE11167411B1d1855",
    "Integers": "0xFD60cDD345feB6011fDeb4Dc3d69aD2319f8508C"
  },
  "devdoc": {
    "author": "Clement Walter <clement0walter@gmail.com>",
    "kind": "dev",
    "methods": {
      "getTraitBytes(address,uint256,uint256)": {
        "details": "Retrieve the bytes for the given trait from the traits storage.",
        "params": {
          "characteristicIndex": "The index of the characteristic in the collection.",
          "pointer": "The pointer to the traits stored with SSTORE2.",
          "traitIndex": "The index of the trait in the characteristic."
        },
        "returns": {
          "_0": "The bytes of the trait."
        }
      }
    },
    "title": "RectRenderer   This library can be used to render on-chain images stored as a layering of rectangles.   The returned images is an url safe encoded image uri.",
    "version": 1
  },
  "userdoc": {
    "kind": "user",
    "methods": {},
    "version": 1
  },
  "storageLayout": {
    "storage": [],
    "types": null
  }
}