{
  "address": "0x91F59E8d53061DD2F7C4a405984D9a4297C54A0C",
  "abi": [
    {
      "inputs": [
        {
          "internalType": "uint256",
          "name": "_size",
          "type": "uint256"
        },
        {
          "internalType": "uint256",
          "name": "_start",
          "type": "uint256"
        },
        {
          "internalType": "uint256",
          "name": "_end",
          "type": "uint256"
        }
      ],
      "name": "InvalidCodeAtRange",
      "type": "error"
    },
    {
      "anonymous": false,
      "inputs": [
        {
          "indexed": false,
          "internalType": "address",
          "name": "pointer",
          "type": "address"
        }
      ],
      "name": "BytesStored",
      "type": "event"
    },
    {
      "inputs": [],
      "name": "DATA_URI",
      "outputs": [
        {
          "internalType": "string",
          "name": "",
          "type": "string"
        }
      ],
      "stateMutability": "view",
      "type": "function"
    },
    {
      "inputs": [],
      "name": "NUMBER_SIGN",
      "outputs": [
        {
          "internalType": "string",
          "name": "",
          "type": "string"
        }
      ],
      "stateMutability": "view",
      "type": "function"
    },
    {
      "inputs": [],
      "name": "QUOTE",
      "outputs": [
        {
          "internalType": "string",
          "name": "",
          "type": "string"
        }
      ],
      "stateMutability": "view",
      "type": "function"
    },
    {
      "inputs": [],
      "name": "SPACE",
      "outputs": [
        {
          "internalType": "string",
          "name": "",
          "type": "string"
        }
      ],
      "stateMutability": "view",
      "type": "function"
    },
    {
      "inputs": [],
      "name": "TAG_END",
      "outputs": [
        {
          "internalType": "string",
          "name": "",
          "type": "string"
        }
      ],
      "stateMutability": "view",
      "type": "function"
    },
    {
      "inputs": [],
      "name": "TAG_START",
      "outputs": [
        {
          "internalType": "string",
          "name": "",
          "type": "string"
        }
      ],
      "stateMutability": "view",
      "type": "function"
    },
    {
      "inputs": [],
      "name": "XMLNS_HEADER",
      "outputs": [
        {
          "internalType": "string",
          "name": "",
          "type": "string"
        }
      ],
      "stateMutability": "view",
      "type": "function"
    },
    {
      "inputs": [
        {
          "internalType": "bytes",
          "name": "names",
          "type": "bytes"
        }
      ],
      "name": "decodeNames",
      "outputs": [
        {
          "internalType": "string",
          "name": "description",
          "type": "string"
        },
        {
          "internalType": "string[]",
          "name": "characteristicNames",
          "type": "string[]"
        },
        {
          "internalType": "string[][]",
          "name": "traitNames",
          "type": "string[][]"
        }
      ],
      "stateMutability": "pure",
      "type": "function"
    },
    {
      "inputs": [
        {
          "internalType": "address",
          "name": "pointer",
          "type": "address"
        }
      ],
      "name": "decodeNames",
      "outputs": [
        {
          "internalType": "string",
          "name": "description",
          "type": "string"
        },
        {
          "internalType": "string[]",
          "name": "characteristicNames",
          "type": "string[]"
        },
        {
          "internalType": "string[][]",
          "name": "traitNames",
          "type": "string[][]"
        }
      ],
      "stateMutability": "view",
      "type": "function"
    },
    {
      "inputs": [
        {
          "internalType": "string[]",
          "name": "palette",
          "type": "string[]"
        }
      ],
      "name": "encodePalette",
      "outputs": [
        {
          "internalType": "string",
          "name": "",
          "type": "string"
        }
      ],
      "stateMutability": "pure",
      "type": "function"
    },
    {
      "inputs": [
        {
          "internalType": "bytes",
          "name": "palette",
          "type": "bytes"
        },
        {
          "internalType": "uint256",
          "name": "index",
          "type": "uint256"
        }
      ],
      "name": "getFill",
      "outputs": [
        {
          "internalType": "string",
          "name": "",
          "type": "string"
        }
      ],
      "stateMutability": "pure",
      "type": "function"
    },
    {
      "inputs": [
        {
          "internalType": "address",
          "name": "pointer",
          "type": "address"
        },
        {
          "internalType": "uint256",
          "name": "index",
          "type": "uint256"
        }
      ],
      "name": "getFill",
      "outputs": [
        {
          "internalType": "string",
          "name": "",
          "type": "string"
        }
      ],
      "stateMutability": "view",
      "type": "function"
    },
    {
      "inputs": [
        {
          "internalType": "address",
          "name": "pointer",
          "type": "address"
        }
      ],
      "name": "getPalette",
      "outputs": [
        {
          "internalType": "string[]",
          "name": "",
          "type": "string[]"
        }
      ],
      "stateMutability": "view",
      "type": "function"
    },
    {
      "inputs": [
        {
          "internalType": "bytes",
          "name": "palette",
          "type": "bytes"
        }
      ],
      "name": "getPalette",
      "outputs": [
        {
          "internalType": "string[]",
          "name": "",
          "type": "string[]"
        }
      ],
      "stateMutability": "pure",
      "type": "function"
    },
    {
      "inputs": [
        {
          "internalType": "address",
          "name": "pointer",
          "type": "address"
        },
        {
          "internalType": "uint256[]",
          "name": "items",
          "type": "uint256[]"
        }
      ],
      "name": "tokenAttributes",
      "outputs": [
        {
          "components": [
            {
              "internalType": "string",
              "name": "trait_type",
              "type": "string"
            },
            {
              "internalType": "string",
              "name": "value",
              "type": "string"
            }
          ],
          "internalType": "struct Attribute[]",
          "name": "",
          "type": "tuple[]"
        }
      ],
      "stateMutability": "view",
      "type": "function"
    }
  ],
  "transactionHash": "0x6059732368c4c17427789ae5f4f67719c647dc3142423c37ae3b2e9162188e70",
  "args": [],
  "numDeployments": 3,
  "solcInputHash": "0d61679bf3f7c8b776254ac5ea82c9f0",
  "bytecode": "0x61166561003a600b82828239805160001a60731461002d57634e487b7160e01b600052600060045260246000fd5b30600052607381538281f3fe73000000000000000000000000000000000000000030146080604052600436106100ff5760003560e01c8063890a161a116100a1578063c030f08d11610070578063c030f08d146102a0578063d875d87d146102b3578063df5f0e0e146102d3578063e0c9ae691461030f57600080fd5b8063890a161a146102025780639ad21855146102155780639c57983914610251578063b3e74d801461028d57600080fd5b80636102cd04116100dd5780636102cd041461017c578063657fb2e11461019e5780637be266cc146101be5780637df16521146101c657600080fd5b8063067b7f9e1461010457806315cb3a051461012d5780633774c79814610169575b600080fd5b610117610112366004610d77565b61034b565b6040516101249190610e14565b60405180910390f35b6101176040518060400160405280600481526020017f2f2533650000000000000000000000000000000000000000000000000000000081525081565b610117610177366004610e40565b610409565b61018f61018a366004610e97565b61063a565b60405161012493929190610ffe565b6101b16101ac366004611072565b610660565b6040516101249190611093565b61011761067f565b6101176040518060400160405280600381526020017f253363000000000000000000000000000000000000000000000000000000000081525081565b6101176102103660046110a4565b61069b565b6101176040518060400160405280601381526020017f646174613a696d6167652f7376672b786d6c2c0000000000000000000000000081525081565b6101176040518060400160405280600381526020017f253237000000000000000000000000000000000000000000000000000000000081525081565b61018f61029b366004611072565b6108c9565b6101b16102ae366004610e97565b6108da565b6102c66102c1366004611139565b61098c565b604051610124919061121d565b6101176040518060400160405280600381526020017f253233000000000000000000000000000000000000000000000000000000000081525081565b6101176040518060400160405280600381526020017f253230000000000000000000000000000000000000000000000000000000000081525081565b6040517f9bce4e14000000000000000000000000000000000000000000000000000000008152606090731FA6A2152871D5A4D1f56511110C9a353CA4833990639bce4e149061039e908590600401611093565b600060405180830381865af41580156103bb573d6000803e3d6000fd5b505050506040513d6000823e601f3d908101601f191682016040526103e39190810190611286565b6040516020016103f391906112e3565b6040516020818303038152906040529050919050565b606082610417836003611329565b8151811061042757610427611348565b016020015160405163c1338a6960e01b815273FD60cDD345feB6011fDeb4Dc3d69aD2319f8508C9163c1338a699161046b9160f81c9060109060029060040161137a565b600060405180830381865af4158015610488573d6000803e3d6000fd5b505050506040513d6000823e601f3d908101601f191682016040526104b09190810190611286565b836104bc846003611329565b6104c79060016113a2565b815181106104d7576104d7611348565b016020015160405163c1338a6960e01b815273FD60cDD345feB6011fDeb4Dc3d69aD2319f8508C9163c1338a699161051b9160f81c9060109060029060040161137a565b600060405180830381865af4158015610538573d6000803e3d6000fd5b505050506040513d6000823e601f3d908101601f191682016040526105609190810190611286565b8461056c856003611329565b6105779060026113a2565b8151811061058757610587611348565b016020015160405163c1338a6960e01b815273FD60cDD345feB6011fDeb4Dc3d69aD2319f8508C9163c1338a69916105cb9160f81c9060109060029060040161137a565b600060405180830381865af41580156105e8573d6000803e3d6000fd5b505050506040513d6000823e601f3d908101601f191682016040526106109190810190611286565b604051602001610622939291906113ba565b60405160208183030381529060405290505b92915050565b60608060608380602001905181019061065391906114fc565b9250925092509193909250565b6060600061066d83610ac5565b9050610678816108da565b9392505050565b60405180606001604052806026815260200161160a6026913981565b606060006106c9846106ae856003611329565b6106b9866003611329565b6106c49060036113a2565b610ad5565b9050806000815181106106de576106de611348565b016020015160405163c1338a6960e01b815273FD60cDD345feB6011fDeb4Dc3d69aD2319f8508C9163c1338a69916107229160f81c9060109060029060040161137a565b600060405180830381865af415801561073f573d6000803e3d6000fd5b505050506040513d6000823e601f3d908101601f191682016040526107679190810190611286565b8160018151811061077a5761077a611348565b016020015160405163c1338a6960e01b815273FD60cDD345feB6011fDeb4Dc3d69aD2319f8508C9163c1338a69916107be9160f81c9060109060029060040161137a565b600060405180830381865af41580156107db573d6000803e3d6000fd5b505050506040513d6000823e601f3d908101601f191682016040526108039190810190611286565b8260028151811061081657610816611348565b016020015160405163c1338a6960e01b815273FD60cDD345feB6011fDeb4Dc3d69aD2319f8508C9163c1338a699161085a9160f81c9060109060029060040161137a565b600060405180830381865af4158015610877573d6000803e3d6000fd5b505050506040513d6000823e601f3d908101601f1916820160405261089f9190810190611286565b6040516020016108b1939291906113ba565b60405160208183030381529060405291505092915050565b606080606061065361018a85610ac5565b60606000600383516108ec91906115b2565b905060008167ffffffffffffffff81111561090957610909610bc6565b60405190808252806020026020018201604052801561093c57816020015b60608152602001906001900390816109275790505b50905060005b82811015610984576109548582610409565b82828151811061096657610966611348565b6020026020010181905250808061097c906115c6565b915050610942565b509392505050565b606060008061099d61018a86610ac5565b92509250506000845167ffffffffffffffff8111156109be576109be610bc6565b604051908082528060200260200182016040528015610a0357816020015b60408051808201909152606080825260208201528152602001906001900390816109dc5790505b50905060005b8551811015610abb576040518060400160405280858381518110610a2f57610a2f611348565b60200260200101518152602001848381518110610a4e57610a4e611348565b6020026020010151888481518110610a6857610a68611348565b602002602001015181518110610a8057610a80611348565b6020026020010151815250828281518110610a9d57610a9d611348565b60200260200101819052508080610ab3906115c6565b915050610a09565b5095945050505050565b6060610634826001600019610afe565b6060610af684610ae68560016113a2565b610af18560016113a2565b610afe565b949350505050565b6060833b80610b1d575050604080516020810190915260008152610678565b80841115610b3b575050604080516020810190915260008152610678565b83831015610b84578084846040517f2c4a89fa000000000000000000000000000000000000000000000000000000008152600401610b7b939291906115e1565b60405180910390fd5b8383038482036000828210610b995782610b9b565b815b60408051603f8301601f19168101909152818152955090508087602087018a3c505050509392505050565b634e487b7160e01b600052604160045260246000fd5b601f19601f830116810181811067ffffffffffffffff82111715610c0257610c02610bc6565b6040525050565b6000610c1460405190565b9050610c208282610bdc565b919050565b600067ffffffffffffffff821115610c3f57610c3f610bc6565b5060209081020190565b600067ffffffffffffffff821115610c6357610c63610bc6565b601f19601f83011660200192915050565b82818337506000910152565b6000610c93610c8e84610c49565b610c09565b905082815260208101848484011115610cae57610cae600080fd5b610984848285610c74565b600082601f830112610ccd57610ccd600080fd5b8135610af6848260208601610c80565b6000610ceb610c8e84610c25565b83815290506020808201908402830185811115610d0a57610d0a600080fd5b835b81811015610d4957803567ffffffffffffffff811115610d2e57610d2e600080fd5b8501610d3a8882610cb9565b84525060209283019201610d0c565b5050509392505050565b600082601f830112610d6757610d67600080fd5b8135610af6848260208601610cdd565b600060208284031215610d8c57610d8c600080fd5b813567ffffffffffffffff811115610da657610da6600080fd5b610af684828501610d53565b60005b83811015610dcd578181015183820152602001610db5565b83811115610ddc576000848401525b50505050565b6000610dec825190565b808452602084019350610e03818560208601610db2565b601f01601f19169290920192915050565b602080825281016106788184610de2565b805b8114610e3257600080fd5b50565b803561063481610e25565b60008060408385031215610e5657610e56600080fd5b823567ffffffffffffffff811115610e7057610e70600080fd5b610e7c85828601610cb9565b9250506020610e8d85828601610e35565b9150509250929050565b600060208284031215610eac57610eac600080fd5b813567ffffffffffffffff811115610ec657610ec6600080fd5b610af684828501610cb9565b60006106788383610de2565b6000610ee8825190565b80845260208401935083602082028501610f028560200190565b60005b84811015610f365783830388528151610f1e8482610ed2565b93505060208201602098909801979150600101610f05565b50909695505050505050565b6000610f4c825190565b80845260208401935083602082028501610f668560200190565b60005b84811015610f365783830388528151610f828482610ed2565b93505060208201602098909801979150600101610f69565b60006106788383610f42565b6000610fb0825190565b80845260208401935083602082028501610fca8560200190565b60005b84811015610f365783830388528151610fe68482610f9a565b93505060208201602098909801979150600101610fcd565b6060808252810161100f8186610de2565b905081810360208301526110238185610ede565b905081810360408301526110378184610fa6565b95945050505050565b600073ffffffffffffffffffffffffffffffffffffffff8216610634565b610e2781611040565b80356106348161105e565b60006020828403121561108757611087600080fd5b6000610af68484611067565b602080825281016106788184610ede565b600080604083850312156110ba576110ba600080fd5b6000610e7c8585611067565b60006110d4610c8e84610c25565b838152905060208082019084028301858111156110f3576110f3600080fd5b835b81811015610d49576111078782610e35565b8352602092830192016110f5565b600082601f83011261112957611129600080fd5b8135610af68482602086016110c6565b6000806040838503121561114f5761114f600080fd5b600061115b8585611067565b925050602083013567ffffffffffffffff81111561117b5761117b600080fd5b610e8d85828601611115565b805160408084526000919084019061119f8282610de2565b915050602083015184820360208601526110378282610de2565b60006106788383611187565b60006111cf825190565b808452602084019350836020820285016111e98560200190565b60005b84811015610f36578383038852815161120584826111b9565b935050602082016020989098019791506001016111ec565b6020808252810161067881846111c5565b600061123c610c8e84610c49565b90508281526020810184848401111561125757611257600080fd5b610984848285610db2565b600082601f83011261127657611276600080fd5b8151610af684826020860161122e565b60006020828403121561129b5761129b600080fd5b815167ffffffffffffffff8111156112b5576112b5600080fd5b610af684828501611262565b60006112cb825190565b6112d9818560208601610db2565b9290920192915050565b7f3078000000000000000000000000000000000000000000000000000000000000815260020161063481836112c1565b634e487b7160e01b600052601160045260246000fd5b600081600019048311821515161561134357611343611313565b500290565b634e487b7160e01b600052603260045260246000fd5b805b82525050565b600060ff8216610634565b61136081611366565b60608101611388828661135e565b6113956020830185611371565b610af66040830184611371565b600082198211156113b5576113b5611313565b500190565b6113c481856112c1565b90506113d081846112c1565b9050610af681836112c1565b60006113ea610c8e84610c25565b8381529050602080820190840283018581111561140957611409600080fd5b835b81811015610d4957805167ffffffffffffffff81111561142d5761142d600080fd5b85016114398882611262565b8452506020928301920161140b565b600082601f83011261145c5761145c600080fd5b8151610af68482602086016113dc565b600061147a610c8e84610c25565b8381529050602080820190840283018581111561149957611499600080fd5b835b81811015610d4957805167ffffffffffffffff8111156114bd576114bd600080fd5b85016114c98882611448565b8452506020928301920161149b565b600082601f8301126114ec576114ec600080fd5b8151610af684826020860161146c565b60008060006060848603121561151457611514600080fd5b835167ffffffffffffffff81111561152e5761152e600080fd5b61153a86828701611262565b935050602084015167ffffffffffffffff81111561155a5761155a600080fd5b61156686828701611448565b925050604084015167ffffffffffffffff81111561158657611586600080fd5b611592868287016114d8565b9150509250925092565b634e487b7160e01b600052601260045260246000fd5b6000826115c1576115c161159c565b500490565b60006000198214156115da576115da611313565b5060010190565b606081016115ef828661135e565b6115fc602083018561135e565b610af6604083018461135e56fe786d6c6e733d253237687474703a2f2f7777772e77332e6f72672f323030302f737667253237a26469706673582212204544c730e5e0a599f4caa2566fbe1c57817968ecf00c4bf86f31663bda00485364736f6c634300080c0033",
  "deployedBytecode": "0x73000000000000000000000000000000000000000030146080604052600436106100ff5760003560e01c8063890a161a116100a1578063c030f08d11610070578063c030f08d146102a0578063d875d87d146102b3578063df5f0e0e146102d3578063e0c9ae691461030f57600080fd5b8063890a161a146102025780639ad21855146102155780639c57983914610251578063b3e74d801461028d57600080fd5b80636102cd04116100dd5780636102cd041461017c578063657fb2e11461019e5780637be266cc146101be5780637df16521146101c657600080fd5b8063067b7f9e1461010457806315cb3a051461012d5780633774c79814610169575b600080fd5b610117610112366004610d77565b61034b565b6040516101249190610e14565b60405180910390f35b6101176040518060400160405280600481526020017f2f2533650000000000000000000000000000000000000000000000000000000081525081565b610117610177366004610e40565b610409565b61018f61018a366004610e97565b61063a565b60405161012493929190610ffe565b6101b16101ac366004611072565b610660565b6040516101249190611093565b61011761067f565b6101176040518060400160405280600381526020017f253363000000000000000000000000000000000000000000000000000000000081525081565b6101176102103660046110a4565b61069b565b6101176040518060400160405280601381526020017f646174613a696d6167652f7376672b786d6c2c0000000000000000000000000081525081565b6101176040518060400160405280600381526020017f253237000000000000000000000000000000000000000000000000000000000081525081565b61018f61029b366004611072565b6108c9565b6101b16102ae366004610e97565b6108da565b6102c66102c1366004611139565b61098c565b604051610124919061121d565b6101176040518060400160405280600381526020017f253233000000000000000000000000000000000000000000000000000000000081525081565b6101176040518060400160405280600381526020017f253230000000000000000000000000000000000000000000000000000000000081525081565b6040517f9bce4e1400000000000000000000000000000000000000000000000000000000815260609073__$3d939fd680257e7df63fc3436eced304ff$__90639bce4e149061039e908590600401611093565b600060405180830381865af41580156103bb573d6000803e3d6000fd5b505050506040513d6000823e601f3d908101601f191682016040526103e39190810190611286565b6040516020016103f391906112e3565b6040516020818303038152906040529050919050565b606082610417836003611329565b8151811061042757610427611348565b016020015160405163c1338a6960e01b815273__$bddea793ab3ab242e0f42fcbbce9ecfcb5$__9163c1338a699161046b9160f81c9060109060029060040161137a565b600060405180830381865af4158015610488573d6000803e3d6000fd5b505050506040513d6000823e601f3d908101601f191682016040526104b09190810190611286565b836104bc846003611329565b6104c79060016113a2565b815181106104d7576104d7611348565b016020015160405163c1338a6960e01b815273__$bddea793ab3ab242e0f42fcbbce9ecfcb5$__9163c1338a699161051b9160f81c9060109060029060040161137a565b600060405180830381865af4158015610538573d6000803e3d6000fd5b505050506040513d6000823e601f3d908101601f191682016040526105609190810190611286565b8461056c856003611329565b6105779060026113a2565b8151811061058757610587611348565b016020015160405163c1338a6960e01b815273__$bddea793ab3ab242e0f42fcbbce9ecfcb5$__9163c1338a69916105cb9160f81c9060109060029060040161137a565b600060405180830381865af41580156105e8573d6000803e3d6000fd5b505050506040513d6000823e601f3d908101601f191682016040526106109190810190611286565b604051602001610622939291906113ba565b60405160208183030381529060405290505b92915050565b60608060608380602001905181019061065391906114fc565b9250925092509193909250565b6060600061066d83610ac5565b9050610678816108da565b9392505050565b60405180606001604052806026815260200161160a6026913981565b606060006106c9846106ae856003611329565b6106b9866003611329565b6106c49060036113a2565b610ad5565b9050806000815181106106de576106de611348565b016020015160405163c1338a6960e01b815273__$bddea793ab3ab242e0f42fcbbce9ecfcb5$__9163c1338a69916107229160f81c9060109060029060040161137a565b600060405180830381865af415801561073f573d6000803e3d6000fd5b505050506040513d6000823e601f3d908101601f191682016040526107679190810190611286565b8160018151811061077a5761077a611348565b016020015160405163c1338a6960e01b815273__$bddea793ab3ab242e0f42fcbbce9ecfcb5$__9163c1338a69916107be9160f81c9060109060029060040161137a565b600060405180830381865af41580156107db573d6000803e3d6000fd5b505050506040513d6000823e601f3d908101601f191682016040526108039190810190611286565b8260028151811061081657610816611348565b016020015160405163c1338a6960e01b815273__$bddea793ab3ab242e0f42fcbbce9ecfcb5$__9163c1338a699161085a9160f81c9060109060029060040161137a565b600060405180830381865af4158015610877573d6000803e3d6000fd5b505050506040513d6000823e601f3d908101601f1916820160405261089f9190810190611286565b6040516020016108b1939291906113ba565b60405160208183030381529060405291505092915050565b606080606061065361018a85610ac5565b60606000600383516108ec91906115b2565b905060008167ffffffffffffffff81111561090957610909610bc6565b60405190808252806020026020018201604052801561093c57816020015b60608152602001906001900390816109275790505b50905060005b82811015610984576109548582610409565b82828151811061096657610966611348565b6020026020010181905250808061097c906115c6565b915050610942565b509392505050565b606060008061099d61018a86610ac5565b92509250506000845167ffffffffffffffff8111156109be576109be610bc6565b604051908082528060200260200182016040528015610a0357816020015b60408051808201909152606080825260208201528152602001906001900390816109dc5790505b50905060005b8551811015610abb576040518060400160405280858381518110610a2f57610a2f611348565b60200260200101518152602001848381518110610a4e57610a4e611348565b6020026020010151888481518110610a6857610a68611348565b602002602001015181518110610a8057610a80611348565b6020026020010151815250828281518110610a9d57610a9d611348565b60200260200101819052508080610ab3906115c6565b915050610a09565b5095945050505050565b6060610634826001600019610afe565b6060610af684610ae68560016113a2565b610af18560016113a2565b610afe565b949350505050565b6060833b80610b1d575050604080516020810190915260008152610678565b80841115610b3b575050604080516020810190915260008152610678565b83831015610b84578084846040517f2c4a89fa000000000000000000000000000000000000000000000000000000008152600401610b7b939291906115e1565b60405180910390fd5b8383038482036000828210610b995782610b9b565b815b60408051603f8301601f19168101909152818152955090508087602087018a3c505050509392505050565b634e487b7160e01b600052604160045260246000fd5b601f19601f830116810181811067ffffffffffffffff82111715610c0257610c02610bc6565b6040525050565b6000610c1460405190565b9050610c208282610bdc565b919050565b600067ffffffffffffffff821115610c3f57610c3f610bc6565b5060209081020190565b600067ffffffffffffffff821115610c6357610c63610bc6565b601f19601f83011660200192915050565b82818337506000910152565b6000610c93610c8e84610c49565b610c09565b905082815260208101848484011115610cae57610cae600080fd5b610984848285610c74565b600082601f830112610ccd57610ccd600080fd5b8135610af6848260208601610c80565b6000610ceb610c8e84610c25565b83815290506020808201908402830185811115610d0a57610d0a600080fd5b835b81811015610d4957803567ffffffffffffffff811115610d2e57610d2e600080fd5b8501610d3a8882610cb9565b84525060209283019201610d0c565b5050509392505050565b600082601f830112610d6757610d67600080fd5b8135610af6848260208601610cdd565b600060208284031215610d8c57610d8c600080fd5b813567ffffffffffffffff811115610da657610da6600080fd5b610af684828501610d53565b60005b83811015610dcd578181015183820152602001610db5565b83811115610ddc576000848401525b50505050565b6000610dec825190565b808452602084019350610e03818560208601610db2565b601f01601f19169290920192915050565b602080825281016106788184610de2565b805b8114610e3257600080fd5b50565b803561063481610e25565b60008060408385031215610e5657610e56600080fd5b823567ffffffffffffffff811115610e7057610e70600080fd5b610e7c85828601610cb9565b9250506020610e8d85828601610e35565b9150509250929050565b600060208284031215610eac57610eac600080fd5b813567ffffffffffffffff811115610ec657610ec6600080fd5b610af684828501610cb9565b60006106788383610de2565b6000610ee8825190565b80845260208401935083602082028501610f028560200190565b60005b84811015610f365783830388528151610f1e8482610ed2565b93505060208201602098909801979150600101610f05565b50909695505050505050565b6000610f4c825190565b80845260208401935083602082028501610f668560200190565b60005b84811015610f365783830388528151610f828482610ed2565b93505060208201602098909801979150600101610f69565b60006106788383610f42565b6000610fb0825190565b80845260208401935083602082028501610fca8560200190565b60005b84811015610f365783830388528151610fe68482610f9a565b93505060208201602098909801979150600101610fcd565b6060808252810161100f8186610de2565b905081810360208301526110238185610ede565b905081810360408301526110378184610fa6565b95945050505050565b600073ffffffffffffffffffffffffffffffffffffffff8216610634565b610e2781611040565b80356106348161105e565b60006020828403121561108757611087600080fd5b6000610af68484611067565b602080825281016106788184610ede565b600080604083850312156110ba576110ba600080fd5b6000610e7c8585611067565b60006110d4610c8e84610c25565b838152905060208082019084028301858111156110f3576110f3600080fd5b835b81811015610d49576111078782610e35565b8352602092830192016110f5565b600082601f83011261112957611129600080fd5b8135610af68482602086016110c6565b6000806040838503121561114f5761114f600080fd5b600061115b8585611067565b925050602083013567ffffffffffffffff81111561117b5761117b600080fd5b610e8d85828601611115565b805160408084526000919084019061119f8282610de2565b915050602083015184820360208601526110378282610de2565b60006106788383611187565b60006111cf825190565b808452602084019350836020820285016111e98560200190565b60005b84811015610f36578383038852815161120584826111b9565b935050602082016020989098019791506001016111ec565b6020808252810161067881846111c5565b600061123c610c8e84610c49565b90508281526020810184848401111561125757611257600080fd5b610984848285610db2565b600082601f83011261127657611276600080fd5b8151610af684826020860161122e565b60006020828403121561129b5761129b600080fd5b815167ffffffffffffffff8111156112b5576112b5600080fd5b610af684828501611262565b60006112cb825190565b6112d9818560208601610db2565b9290920192915050565b7f3078000000000000000000000000000000000000000000000000000000000000815260020161063481836112c1565b634e487b7160e01b600052601160045260246000fd5b600081600019048311821515161561134357611343611313565b500290565b634e487b7160e01b600052603260045260246000fd5b805b82525050565b600060ff8216610634565b61136081611366565b60608101611388828661135e565b6113956020830185611371565b610af66040830184611371565b600082198211156113b5576113b5611313565b500190565b6113c481856112c1565b90506113d081846112c1565b9050610af681836112c1565b60006113ea610c8e84610c25565b8381529050602080820190840283018581111561140957611409600080fd5b835b81811015610d4957805167ffffffffffffffff81111561142d5761142d600080fd5b85016114398882611262565b8452506020928301920161140b565b600082601f83011261145c5761145c600080fd5b8151610af68482602086016113dc565b600061147a610c8e84610c25565b8381529050602080820190840283018581111561149957611499600080fd5b835b81811015610d4957805167ffffffffffffffff8111156114bd576114bd600080fd5b85016114c98882611448565b8452506020928301920161149b565b600082601f8301126114ec576114ec600080fd5b8151610af684826020860161146c565b60008060006060848603121561151457611514600080fd5b835167ffffffffffffffff81111561152e5761152e600080fd5b61153a86828701611262565b935050602084015167ffffffffffffffff81111561155a5761155a600080fd5b61156686828701611448565b925050604084015167ffffffffffffffff81111561158657611586600080fd5b611592868287016114d8565b9150509250925092565b634e487b7160e01b600052601260045260246000fd5b6000826115c1576115c161159c565b500490565b60006000198214156115da576115da611313565b5060010190565b606081016115ef828661135e565b6115fc602083018561135e565b610af6604083018461135e56fe786d6c6e733d253237687474703a2f2f7777772e77332e6f72672f323030302f737667253237a26469706673582212204544c730e5e0a599f4caa2566fbe1c57817968ecf00c4bf86f31663bda00485364736f6c634300080c0033",
  "libraries": {
    "Integers": "0xFD60cDD345feB6011fDeb4Dc3d69aD2319f8508C",
    "Array": "0x1FA6A2152871D5A4D1f56511110C9a353CA48339"
  },
  "devdoc": {
    "author": "Clement Walter <clement0walter@gmail.com>",
    "kind": "dev",
    "methods": {
      "decodeNames(address)": {
        "details": "Retrieve the names encoded with the collection: description, characteristics and traits names array.",
        "params": {
          "pointer": "The address of the SSTORE2 contract for the names."
        }
      },
      "decodeNames(bytes)": {
        "details": "Retrieve the names encoded with the collection: description, characteristics and traits names array.",
        "params": {
          "names": "The bytes the names encoded by the RectEncoder."
        }
      },
      "encodePalette(string[])": {
        "details": "Usually colors are already defined in hex color space so we just concat all the colors. No check is made      and this function only concatenates the input colors.",
        "params": {
          "palette": "The list of colors as hex strings, without the leading #."
        },
        "returns": {
          "_0": "The concatenated colors as string. To be used as bytes afterwards."
        }
      },
      "getFill(address,uint256)": {
        "details": "Returns one single color reading directly from the storage.",
        "params": {
          "index": "The index of the color to retrieve",
          "pointer": "The pointer to the palette bytes array where each color is R, G, B at storage i, i+1, i+2."
        },
        "returns": {
          "_0": "The hexstring representation of the color, e.g. \"a3120f\"."
        }
      },
      "getFill(bytes,uint256)": {
        "details": "Returns one single color from a pre-loaded whole palette as a bytes array.",
        "params": {
          "index": "The index of the color to retrieve",
          "palette": "A bytes array encoding several RGB colors. Length should be a multiple of 3."
        },
        "returns": {
          "_0": "The hexstring representation of the color, e.g. \"a3120f\"."
        }
      },
      "getPalette(address)": {
        "details": "Decode the whole palette once for all and returns an array of hexstrings.",
        "params": {
          "pointer": "The pointer to the palette bytes array where each color is at storage at i, i+1, i+2."
        },
        "returns": {
          "_0": "An array of hexstring representation of the color, e.g. \"a3120f\"."
        }
      }
    },
    "title": "BaseRenderer   This library contains shared functionality and constants for the renderers.",
    "version": 1
  },
  "userdoc": {
    "kind": "user",
    "methods": {},
    "version": 1
  },
  "storageLayout": {
    "storage": [],
    "types": null
  }
}