{
  "address": "0xDc64a140Aa3E981100a9becA4E685f962f0cF6C9",
  "abi": [
    {
      "inputs": [
        {
          "internalType": "uint256",
          "name": "characteristic",
          "type": "uint256"
        }
      ],
      "name": "CharacteristicOutOfRange",
      "type": "error"
    },
    {
      "inputs": [
        {
          "internalType": "uint256",
          "name": "_size",
          "type": "uint256"
        },
        {
          "internalType": "uint256",
          "name": "_start",
          "type": "uint256"
        },
        {
          "internalType": "uint256",
          "name": "_end",
          "type": "uint256"
        }
      ],
      "name": "InvalidCodeAtRange",
      "type": "error"
    },
    {
      "inputs": [
        {
          "internalType": "uint256",
          "name": "length",
          "type": "uint256"
        }
      ],
      "name": "InvalidLength",
      "type": "error"
    },
    {
      "inputs": [
        {
          "internalType": "uint256",
          "name": "trait",
          "type": "uint256"
        }
      ],
      "name": "TraitOutOfRange",
      "type": "error"
    },
    {
      "inputs": [],
      "name": "FILL_TAG",
      "outputs": [
        {
          "internalType": "string",
          "name": "",
          "type": "string"
        }
      ],
      "stateMutability": "view",
      "type": "function"
    },
    {
      "inputs": [],
      "name": "HEIGHT_TAG",
      "outputs": [
        {
          "internalType": "string",
          "name": "",
          "type": "string"
        }
      ],
      "stateMutability": "view",
      "type": "function"
    },
    {
      "inputs": [],
      "name": "RECT_TAG_END",
      "outputs": [
        {
          "internalType": "string",
          "name": "",
          "type": "string"
        }
      ],
      "stateMutability": "view",
      "type": "function"
    },
    {
      "inputs": [],
      "name": "RECT_TAG_START",
      "outputs": [
        {
          "internalType": "string",
          "name": "",
          "type": "string"
        }
      ],
      "stateMutability": "view",
      "type": "function"
    },
    {
      "inputs": [],
      "name": "WIDTH_TAG",
      "outputs": [
        {
          "internalType": "string",
          "name": "",
          "type": "string"
        }
      ],
      "stateMutability": "view",
      "type": "function"
    },
    {
      "inputs": [],
      "name": "Y_TAG",
      "outputs": [
        {
          "internalType": "string",
          "name": "",
          "type": "string"
        }
      ],
      "stateMutability": "view",
      "type": "function"
    },
    {
      "inputs": [
        {
          "internalType": "bytes4",
          "name": "rectBytes",
          "type": "bytes4"
        },
        {
          "internalType": "string[]",
          "name": "palette",
          "type": "string[]"
        },
        {
          "internalType": "uint256",
          "name": "offsetX",
          "type": "uint256"
        },
        {
          "internalType": "uint256",
          "name": "offsetY",
          "type": "uint256"
        }
      ],
      "name": "decodeBytes4ToRect",
      "outputs": [
        {
          "internalType": "string",
          "name": "",
          "type": "string"
        }
      ],
      "stateMutability": "pure",
      "type": "function"
    },
    {
      "inputs": [
        {
          "internalType": "bytes4",
          "name": "rectBytes",
          "type": "bytes4"
        },
        {
          "internalType": "string[]",
          "name": "palette",
          "type": "string[]"
        }
      ],
      "name": "decodeBytes4ToRect",
      "outputs": [
        {
          "internalType": "string",
          "name": "",
          "type": "string"
        }
      ],
      "stateMutability": "pure",
      "type": "function"
    },
    {
      "inputs": [
        {
          "internalType": "bytes",
          "name": "rectsBytes",
          "type": "bytes"
        },
        {
          "internalType": "string[]",
          "name": "palette",
          "type": "string[]"
        }
      ],
      "name": "decodeBytesMemoryToRects",
      "outputs": [
        {
          "internalType": "string",
          "name": "",
          "type": "string"
        }
      ],
      "stateMutability": "pure",
      "type": "function"
    },
    {
      "inputs": [
        {
          "internalType": "address",
          "name": "pointer",
          "type": "address"
        },
        {
          "internalType": "uint256",
          "name": "characteristicIndex",
          "type": "uint256"
        },
        {
          "internalType": "uint256",
          "name": "traitIndex",
          "type": "uint256"
        }
      ],
      "name": "getTraitBytes",
      "outputs": [
        {
          "internalType": "bytes",
          "name": "",
          "type": "bytes"
        }
      ],
      "stateMutability": "view",
      "type": "function"
    }
  ],
  "transactionHash": "0x3f56dd75bda55f390212694c641b1c728cfc691e9cb7850c821fde1c2e0aeb3a",
  "args": [],
  "numDeployments": 1,
  "solcInputHash": "76161a4d293fda067ec40d2b20404a49",
  "bytecode": "0x61159261003a600b82828239805160001a60731461002d57634e487b7160e01b600052600060045260246000fd5b30600052607381538281f3fe73000000000000000000000000000000000000000030146080604052600436106100c85760003560e01c80635e99a63011610080578063999086e311610065578063999086e314610235578063b674b76114610248578063f258feb11461028457600080fd5b80635e99a630146101e657806369db9ed0146101f957600080fd5b80634239abe4116100b15780634239abe41461015b57806343c8ecbe1461016e5780634d32bd7d146101aa57600080fd5b8063146f9480146100cd578063407134de1461011f575b600080fd5b6101096040518060400160405280601081526020017f2532372532306865696768743d2532370000000000000000000000000000000081525081565b6040516101169190610dec565b60405180910390f35b6101096040518060400160405280600781526020017f2532372f2533650000000000000000000000000000000000000000000000000081525081565b610109610169366004610e4e565b610297565b6101096040518060400160405280600f81526020017f25323725323077696474683d253237000000000000000000000000000000000081525081565b6101096040518060400160405280600b81526020017f253237253230793d25323700000000000000000000000000000000000000000081525081565b6101096101f436600461108a565b6106b6565b6101096040518060400160405280600f81526020017f25336372656374253230783d253237000000000000000000000000000000000081525081565b610109610243366004611109565b610a89565b6101096040518060400160405280601181526020017f25323725323066696c6c3d25323725323300000000000000000000000000000081525081565b61010961029236600461117b565b610ca0565b606060006102a88560006002610caf565b6040516326b3515760e11b815273e7f1725E7734CE288F8367e1Bb143E90bb3F051291634d66a2ae916102de9190600401610dec565b602060405180830381865af41580156102fb573d6000803e3d6000fd5b505050506040513d601f19601f8201168201806040525081019061031f91906111b2565b90508361032d6001836111e9565b61ffff16101561037457836040517f475e819200000000000000000000000000000000000000000000000000000000815260040161036b9190611210565b60405180910390fd5b60006103b68661038587600261121e565b61039090600261123d565b61039b88600261121e565b6103a690600261123d565b6103b190600261123d565b610caf565b6040516326b3515760e11b815273e7f1725E7734CE288F8367e1Bb143E90bb3F051291634d66a2ae916103ec9190600401610dec565b602060405180830381865af4158015610409573d6000803e3d6000fd5b505050506040513d601f19601f8201168201806040525081019061042d91906111b2565b9050600060016104508861ffff8516610447866002611255565b61ffff16610caf565b6040516326b3515760e11b815273e7f1725E7734CE288F8367e1Bb143E90bb3F051291634d66a2ae916104869190600401610dec565b602060405180830381865af41580156104a3573d6000803e3d6000fd5b505050506040513d601f19601f820116820180604052508101906104c791906111b2565b6104d191906111e9565b9050846104df6001836111e9565b61ffff16101561051d57846040517fab074d5200000000000000000000000000000000000000000000000000000000815260040161036b9190611210565b60006105768861052e88600261121e565b610539866002611255565b61ffff16610547919061123d565b61055289600261121e565b61055d876002611255565b61ffff1661056b919061123d565b6103b190600461123d565b6040517fbe8b34300000000000000000000000000000000000000000000000000000000081529091506106a890899073e7f1725E7734CE288F8367e1Bb143E90bb3F05129063be8b3430906105d2908690600090600401611291565b602060405180830381865af41580156105ef573d6000803e3d6000fd5b505050506040513d601f19601f8201168201806040525081019061061391906111b2565b61061d9086611255565b61ffff168373e7f1725E7734CE288F8367e1Bb143E90bb3F051263be8b3430909160026040518363ffffffff1660e01b815260040161065d929190611291565b602060405180830381865af415801561067a573d6000803e3d6000fd5b505050506040513d601f19601f8201168201806040525081019061069e91906111b2565b6104479087611255565b9450505050505b9392505050565b60408051808201909152600f81527f25336372656374253230783d253237000000000000000000000000000000000060208201526060906106fb8460fa88901c61123d565b60405163348051d760e11b8152739fE46736679d2D9a65F0992F2272dE9f3c7fa6e091636900a3ae916107319190600401611210565b600060405180830381865af415801561074e573d6000803e3d6000fd5b505050506040513d6000823e601f3d908101601f191682016040526107769190810190611309565b60408051808201909152600b81527f253237253230793d25323700000000000000000000000000000000000000000060208201526107bb85603f60f48b901c1661123d565b60405163348051d760e11b8152739fE46736679d2D9a65F0992F2272dE9f3c7fa6e091636900a3ae916107f19190600401611210565b600060405180830381865af415801561080e573d6000803e3d6000fd5b505050506040513d6000823e601f3d908101601f191682016040526108369190810190611309565b604080518082018252600f81527f25323725323077696474683d25323700000000000000000000000000000000006020820152905163348051d760e11b8152739fE46736679d2D9a65F0992F2272dE9f3c7fa6e090636900a3ae906108a690603f60ee8f901c1690600401611210565b600060405180830381865af41580156108c3573d6000803e3d6000fd5b505050506040513d6000823e601f3d908101601f191682016040526108eb9190810190611309565b6040518060400160405280601081526020017f2532372532306865696768743d2532370000000000000000000000000000000081525060088c7bffffffffffffffffffffffffffffffffffffffffffffffffffffffff1916901c60e01c603f1660ff16739fE46736679d2D9a65F0992F2272dE9f3c7fa6e0636900a3ae90916040518263ffffffff1660e01b81526004016109869190611210565b600060405180830381865af41580156109a3573d6000803e3d6000fd5b505050506040513d6000823e601f3d908101601f191682016040526109cb9190810190611309565b60408051808201909152601181527f25323725323066696c6c3d25323725323300000000000000000000000000000060208201528c8e6003825191901a908110610a1757610a17611344565b60200260200101516040518060400160405280600781526020017f2532372f25336500000000000000000000000000000000000000000000000000815250604051602001610a6f9b9a9998979695949392919061137c565b60405160208183030381529060405290505b949350505050565b606060048351610a999190611424565b15610ad35782516040517fc67eee4b00000000000000000000000000000000000000000000000000000000815260040161036b9190611210565b600060048451610ae39190611438565b905060008167ffffffffffffffff811115610b0057610b00610ed1565b604051908082528060200260200182016040528015610b3357816020015b6060815260200190600190039081610b1e5790505b50905060005b8151811015610bff57610bcf73e7f1725E7734CE288F8367e1Bb143E90bb3F05126385581ce388610b6b85600461121e565b6040518363ffffffff1660e01b8152600401610b8892919061144c565b602060405180830381865af4158015610ba5573d6000803e3d6000fd5b505050506040513d601f19601f82011682018060405250810190610bc99190611477565b86610ca0565b828281518110610be157610be1611344565b60200260200101819052508080610bf790611498565b915050610b39565b506040517f9bce4e14000000000000000000000000000000000000000000000000000000008152735FbDB2315678afecb367f032d93F642f64180aa390639bce4e1490610c50908490600401611523565b600060405180830381865af4158015610c6d573d6000803e3d6000fd5b505050506040513d6000823e601f3d908101601f19168201604052610c959190810190611309565b925050505b92915050565b60606106af83836000806106b6565b6060610a8184610cc085600161123d565b610ccb85600161123d565b6060833b80610cea5750506040805160208101909152600081526106af565b80841115610d085750506040805160208101909152600081526106af565b83831015610d48578084846040517f2c4a89fa00000000000000000000000000000000000000000000000000000000815260040161036b93929190611534565b8383038482036000828210610d5d5782610d5f565b815b60408051603f8301601f19168101909152818152955090508087602087018a3c505050509392505050565b60005b83811015610da5578181015183820152602001610d8d565b83811115610db4576000848401525b50505050565b6000610dc4825190565b808452602084019350610ddb818560208601610d8a565b601f01601f19169290920192915050565b602080825281016106af8184610dba565b600073ffffffffffffffffffffffffffffffffffffffff8216610c9a565b610e2481610dfd565b8114610e2f57600080fd5b50565b8035610c9a81610e1b565b80610e24565b8035610c9a81610e3d565b600080600060608486031215610e6657610e66600080fd5b6000610e728686610e32565b9350506020610e8386828701610e43565b9250506040610e9486828701610e43565b9150509250925092565b7fffffffff000000000000000000000000000000000000000000000000000000008116610e24565b8035610c9a81610e9e565b634e487b7160e01b600052604160045260246000fd5b601f19601f830116810181811067ffffffffffffffff82111715610f0d57610f0d610ed1565b6040525050565b6000610f1f60405190565b9050610f2b8282610ee7565b919050565b600067ffffffffffffffff821115610f4a57610f4a610ed1565b5060209081020190565b600067ffffffffffffffff821115610f6e57610f6e610ed1565b601f19601f83011660200192915050565b82818337506000910152565b6000610f9e610f9984610f54565b610f14565b905082815260208101848484011115610fb957610fb9600080fd5b610fc4848285610f7f565b509392505050565b600082601f830112610fe057610fe0600080fd5b8135610a81848260208601610f8b565b6000610ffe610f9984610f30565b8381529050602080820190840283018581111561101d5761101d600080fd5b835b8181101561105c57803567ffffffffffffffff81111561104157611041600080fd5b850161104d8882610fcc565b8452506020928301920161101f565b5050509392505050565b600082601f83011261107a5761107a600080fd5b8135610a81848260208601610ff0565b600080600080608085870312156110a3576110a3600080fd5b60006110af8787610ec6565b945050602085013567ffffffffffffffff8111156110cf576110cf600080fd5b6110db87828801611066565b93505060406110ec87828801610e43565b92505060606110fd87828801610e43565b91505092959194509250565b6000806040838503121561111f5761111f600080fd5b823567ffffffffffffffff81111561113957611139600080fd5b61114585828601610fcc565b925050602083013567ffffffffffffffff81111561116557611165600080fd5b61117185828601611066565b9150509250929050565b6000806040838503121561119157611191600080fd5b60006111458585610ec6565b61ffff8116610e24565b8051610c9a8161119d565b6000602082840312156111c7576111c7600080fd5b6000610a8184846111a7565b634e487b7160e01b600052601160045260246000fd5b61ffff9182169116600082821015611203576112036111d3565b500390565b805b82525050565b60208101610c9a8284611208565b6000816000190483118215151615611238576112386111d3565b500290565b60008219821115611250576112506111d3565b500190565b61ffff8116905061ffff8216915060008261ffff03821115611250576112506111d3565b6000610c9a6112858381565b90565b61120a81611279565b604080825281016112a28185610dba565b90506106af6020830184611288565b60006112bf610f9984610f54565b9050828152602081018484840111156112da576112da600080fd5b610fc4848285610d8a565b600082601f8301126112f9576112f9600080fd5b8151610a818482602086016112b1565b60006020828403121561131e5761131e600080fd5b815167ffffffffffffffff81111561133857611338600080fd5b610a81848285016112e5565b634e487b7160e01b600052603260045260246000fd5b6000611364825190565b611372818560208601610d8a565b9290920192915050565b611386818d61135a565b9050611392818c61135a565b905061139e818b61135a565b90506113aa818a61135a565b90506113b6818961135a565b90506113c2818861135a565b90506113ce818761135a565b90506113da818661135a565b90506113e6818561135a565b90506113f2818461135a565b90506113fe818361135a565b9c9b505050505050505050505050565b634e487b7160e01b600052601260045260246000fd5b6000826114335761143361140e565b500690565b6000826114475761144761140e565b500490565b6040808252810161145d8185610dba565b90506106af6020830184611208565b8051610c9a81610e9e565b60006020828403121561148c5761148c600080fd5b6000610a81848461146c565b60006000198214156114ac576114ac6111d3565b5060010190565b60006106af8383610dba565b60006114c9825190565b808452602084019350836020820285016114e38560200190565b60005b8481101561151757838303885281516114ff84826114b3565b935050602082016020989098019791506001016114e6565b50909695505050505050565b602080825281016106af81846114bf565b606081016115428286611208565b61154f6020830185611208565b610a81604083018461120856fea26469706673582212203326c0ee13c5648d5a54a5558f39ddcf02437cb03a149281e9e6ed36c2ffc50564736f6c634300080c0033",
  "deployedBytecode": "0x73000000000000000000000000000000000000000030146080604052600436106100c85760003560e01c80635e99a63011610080578063999086e311610065578063999086e314610235578063b674b76114610248578063f258feb11461028457600080fd5b80635e99a630146101e657806369db9ed0146101f957600080fd5b80634239abe4116100b15780634239abe41461015b57806343c8ecbe1461016e5780634d32bd7d146101aa57600080fd5b8063146f9480146100cd578063407134de1461011f575b600080fd5b6101096040518060400160405280601081526020017f2532372532306865696768743d2532370000000000000000000000000000000081525081565b6040516101169190610dec565b60405180910390f35b6101096040518060400160405280600781526020017f2532372f2533650000000000000000000000000000000000000000000000000081525081565b610109610169366004610e4e565b610297565b6101096040518060400160405280600f81526020017f25323725323077696474683d253237000000000000000000000000000000000081525081565b6101096040518060400160405280600b81526020017f253237253230793d25323700000000000000000000000000000000000000000081525081565b6101096101f436600461108a565b6106b6565b6101096040518060400160405280600f81526020017f25336372656374253230783d253237000000000000000000000000000000000081525081565b610109610243366004611109565b610a89565b6101096040518060400160405280601181526020017f25323725323066696c6c3d25323725323300000000000000000000000000000081525081565b61010961029236600461117b565b610ca0565b606060006102a88560006002610caf565b6040516326b3515760e11b815273__$dcaad1777d2b99f53d9a752b008027c0a6$__91634d66a2ae916102de9190600401610dec565b602060405180830381865af41580156102fb573d6000803e3d6000fd5b505050506040513d601f19601f8201168201806040525081019061031f91906111b2565b90508361032d6001836111e9565b61ffff16101561037457836040517f475e819200000000000000000000000000000000000000000000000000000000815260040161036b9190611210565b60405180910390fd5b60006103b68661038587600261121e565b61039090600261123d565b61039b88600261121e565b6103a690600261123d565b6103b190600261123d565b610caf565b6040516326b3515760e11b815273__$dcaad1777d2b99f53d9a752b008027c0a6$__91634d66a2ae916103ec9190600401610dec565b602060405180830381865af4158015610409573d6000803e3d6000fd5b505050506040513d601f19601f8201168201806040525081019061042d91906111b2565b9050600060016104508861ffff8516610447866002611255565b61ffff16610caf565b6040516326b3515760e11b815273__$dcaad1777d2b99f53d9a752b008027c0a6$__91634d66a2ae916104869190600401610dec565b602060405180830381865af41580156104a3573d6000803e3d6000fd5b505050506040513d601f19601f820116820180604052508101906104c791906111b2565b6104d191906111e9565b9050846104df6001836111e9565b61ffff16101561051d57846040517fab074d5200000000000000000000000000000000000000000000000000000000815260040161036b9190611210565b60006105768861052e88600261121e565b610539866002611255565b61ffff16610547919061123d565b61055289600261121e565b61055d876002611255565b61ffff1661056b919061123d565b6103b190600461123d565b6040517fbe8b34300000000000000000000000000000000000000000000000000000000081529091506106a890899073__$dcaad1777d2b99f53d9a752b008027c0a6$__9063be8b3430906105d2908690600090600401611291565b602060405180830381865af41580156105ef573d6000803e3d6000fd5b505050506040513d601f19601f8201168201806040525081019061061391906111b2565b61061d9086611255565b61ffff168373__$dcaad1777d2b99f53d9a752b008027c0a6$__63be8b3430909160026040518363ffffffff1660e01b815260040161065d929190611291565b602060405180830381865af415801561067a573d6000803e3d6000fd5b505050506040513d601f19601f8201168201806040525081019061069e91906111b2565b6104479087611255565b9450505050505b9392505050565b60408051808201909152600f81527f25336372656374253230783d253237000000000000000000000000000000000060208201526060906106fb8460fa88901c61123d565b60405163348051d760e11b815273__$bddea793ab3ab242e0f42fcbbce9ecfcb5$__91636900a3ae916107319190600401611210565b600060405180830381865af415801561074e573d6000803e3d6000fd5b505050506040513d6000823e601f3d908101601f191682016040526107769190810190611309565b60408051808201909152600b81527f253237253230793d25323700000000000000000000000000000000000000000060208201526107bb85603f60f48b901c1661123d565b60405163348051d760e11b815273__$bddea793ab3ab242e0f42fcbbce9ecfcb5$__91636900a3ae916107f19190600401611210565b600060405180830381865af415801561080e573d6000803e3d6000fd5b505050506040513d6000823e601f3d908101601f191682016040526108369190810190611309565b604080518082018252600f81527f25323725323077696474683d25323700000000000000000000000000000000006020820152905163348051d760e11b815273__$bddea793ab3ab242e0f42fcbbce9ecfcb5$__90636900a3ae906108a690603f60ee8f901c1690600401611210565b600060405180830381865af41580156108c3573d6000803e3d6000fd5b505050506040513d6000823e601f3d908101601f191682016040526108eb9190810190611309565b6040518060400160405280601081526020017f2532372532306865696768743d2532370000000000000000000000000000000081525060088c7bffffffffffffffffffffffffffffffffffffffffffffffffffffffff1916901c60e01c603f1660ff1673__$bddea793ab3ab242e0f42fcbbce9ecfcb5$__636900a3ae90916040518263ffffffff1660e01b81526004016109869190611210565b600060405180830381865af41580156109a3573d6000803e3d6000fd5b505050506040513d6000823e601f3d908101601f191682016040526109cb9190810190611309565b60408051808201909152601181527f25323725323066696c6c3d25323725323300000000000000000000000000000060208201528c8e6003825191901a908110610a1757610a17611344565b60200260200101516040518060400160405280600781526020017f2532372f25336500000000000000000000000000000000000000000000000000815250604051602001610a6f9b9a9998979695949392919061137c565b60405160208183030381529060405290505b949350505050565b606060048351610a999190611424565b15610ad35782516040517fc67eee4b00000000000000000000000000000000000000000000000000000000815260040161036b9190611210565b600060048451610ae39190611438565b905060008167ffffffffffffffff811115610b0057610b00610ed1565b604051908082528060200260200182016040528015610b3357816020015b6060815260200190600190039081610b1e5790505b50905060005b8151811015610bff57610bcf73__$dcaad1777d2b99f53d9a752b008027c0a6$__6385581ce388610b6b85600461121e565b6040518363ffffffff1660e01b8152600401610b8892919061144c565b602060405180830381865af4158015610ba5573d6000803e3d6000fd5b505050506040513d601f19601f82011682018060405250810190610bc99190611477565b86610ca0565b828281518110610be157610be1611344565b60200260200101819052508080610bf790611498565b915050610b39565b506040517f9bce4e1400000000000000000000000000000000000000000000000000000000815273__$3d939fd680257e7df63fc3436eced304ff$__90639bce4e1490610c50908490600401611523565b600060405180830381865af4158015610c6d573d6000803e3d6000fd5b505050506040513d6000823e601f3d908101601f19168201604052610c959190810190611309565b925050505b92915050565b60606106af83836000806106b6565b6060610a8184610cc085600161123d565b610ccb85600161123d565b6060833b80610cea5750506040805160208101909152600081526106af565b80841115610d085750506040805160208101909152600081526106af565b83831015610d48578084846040517f2c4a89fa00000000000000000000000000000000000000000000000000000000815260040161036b93929190611534565b8383038482036000828210610d5d5782610d5f565b815b60408051603f8301601f19168101909152818152955090508087602087018a3c505050509392505050565b60005b83811015610da5578181015183820152602001610d8d565b83811115610db4576000848401525b50505050565b6000610dc4825190565b808452602084019350610ddb818560208601610d8a565b601f01601f19169290920192915050565b602080825281016106af8184610dba565b600073ffffffffffffffffffffffffffffffffffffffff8216610c9a565b610e2481610dfd565b8114610e2f57600080fd5b50565b8035610c9a81610e1b565b80610e24565b8035610c9a81610e3d565b600080600060608486031215610e6657610e66600080fd5b6000610e728686610e32565b9350506020610e8386828701610e43565b9250506040610e9486828701610e43565b9150509250925092565b7fffffffff000000000000000000000000000000000000000000000000000000008116610e24565b8035610c9a81610e9e565b634e487b7160e01b600052604160045260246000fd5b601f19601f830116810181811067ffffffffffffffff82111715610f0d57610f0d610ed1565b6040525050565b6000610f1f60405190565b9050610f2b8282610ee7565b919050565b600067ffffffffffffffff821115610f4a57610f4a610ed1565b5060209081020190565b600067ffffffffffffffff821115610f6e57610f6e610ed1565b601f19601f83011660200192915050565b82818337506000910152565b6000610f9e610f9984610f54565b610f14565b905082815260208101848484011115610fb957610fb9600080fd5b610fc4848285610f7f565b509392505050565b600082601f830112610fe057610fe0600080fd5b8135610a81848260208601610f8b565b6000610ffe610f9984610f30565b8381529050602080820190840283018581111561101d5761101d600080fd5b835b8181101561105c57803567ffffffffffffffff81111561104157611041600080fd5b850161104d8882610fcc565b8452506020928301920161101f565b5050509392505050565b600082601f83011261107a5761107a600080fd5b8135610a81848260208601610ff0565b600080600080608085870312156110a3576110a3600080fd5b60006110af8787610ec6565b945050602085013567ffffffffffffffff8111156110cf576110cf600080fd5b6110db87828801611066565b93505060406110ec87828801610e43565b92505060606110fd87828801610e43565b91505092959194509250565b6000806040838503121561111f5761111f600080fd5b823567ffffffffffffffff81111561113957611139600080fd5b61114585828601610fcc565b925050602083013567ffffffffffffffff81111561116557611165600080fd5b61117185828601611066565b9150509250929050565b6000806040838503121561119157611191600080fd5b60006111458585610ec6565b61ffff8116610e24565b8051610c9a8161119d565b6000602082840312156111c7576111c7600080fd5b6000610a8184846111a7565b634e487b7160e01b600052601160045260246000fd5b61ffff9182169116600082821015611203576112036111d3565b500390565b805b82525050565b60208101610c9a8284611208565b6000816000190483118215151615611238576112386111d3565b500290565b60008219821115611250576112506111d3565b500190565b61ffff8116905061ffff8216915060008261ffff03821115611250576112506111d3565b6000610c9a6112858381565b90565b61120a81611279565b604080825281016112a28185610dba565b90506106af6020830184611288565b60006112bf610f9984610f54565b9050828152602081018484840111156112da576112da600080fd5b610fc4848285610d8a565b600082601f8301126112f9576112f9600080fd5b8151610a818482602086016112b1565b60006020828403121561131e5761131e600080fd5b815167ffffffffffffffff81111561133857611338600080fd5b610a81848285016112e5565b634e487b7160e01b600052603260045260246000fd5b6000611364825190565b611372818560208601610d8a565b9290920192915050565b611386818d61135a565b9050611392818c61135a565b905061139e818b61135a565b90506113aa818a61135a565b90506113b6818961135a565b90506113c2818861135a565b90506113ce818761135a565b90506113da818661135a565b90506113e6818561135a565b90506113f2818461135a565b90506113fe818361135a565b9c9b505050505050505050505050565b634e487b7160e01b600052601260045260246000fd5b6000826114335761143361140e565b500690565b6000826114475761144761140e565b500490565b6040808252810161145d8185610dba565b90506106af6020830184611208565b8051610c9a81610e9e565b60006020828403121561148c5761148c600080fd5b6000610a81848461146c565b60006000198214156114ac576114ac6111d3565b5060010190565b60006106af8383610dba565b60006114c9825190565b808452602084019350836020820285016114e38560200190565b60005b8481101561151757838303885281516114ff84826114b3565b935050602082016020989098019791506001016114e6565b50909695505050505050565b602080825281016106af81846114bf565b606081016115428286611208565b61154f6020830185611208565b610a81604083018461120856fea26469706673582212203326c0ee13c5648d5a54a5558f39ddcf02437cb03a149281e9e6ed36c2ffc50564736f6c634300080c0033",
  "libraries": {
    "Array": "0x5FbDB2315678afecb367f032d93F642f64180aa3",
    "Bytes": "0xe7f1725E7734CE288F8367e1Bb143E90bb3F0512",
    "Integers": "0x9fE46736679d2D9a65F0992F2272dE9f3c7fa6e0"
  },
  "devdoc": {
    "author": "Clement Walter <clement0walter@gmail.com>",
    "kind": "dev",
    "methods": {
      "getTraitBytes(address,uint256,uint256)": {
        "details": "Retrieve the bytes for the given trait from the traits storage.",
        "params": {
          "characteristicIndex": "The index of the characteristic in the collection.",
          "pointer": "The pointer to the traits stored with SSTORE2.",
          "traitIndex": "The index of the trait in the characteristic."
        },
        "returns": {
          "_0": "The bytes of the trait."
        }
      }
    },
    "title": "RectRenderer   This library can be used to render on-chain images stored as a layering of rectangles.   The returned images is an url safe encoded image uri.",
    "version": 1
  },
  "userdoc": {
    "kind": "user",
    "methods": {},
    "version": 1
  },
  "storageLayout": {
    "storage": [],
    "types": null
  }
}