{
  "address": "0x5FC8d32690cc91D4c39d9d3abcBD16989F875707",
  "abi": [
    {
      "inputs": [
        {
          "internalType": "uint256",
          "name": "_size",
          "type": "uint256"
        },
        {
          "internalType": "uint256",
          "name": "_start",
          "type": "uint256"
        },
        {
          "internalType": "uint256",
          "name": "_end",
          "type": "uint256"
        }
      ],
      "name": "InvalidCodeAtRange",
      "type": "error"
    },
    {
      "anonymous": false,
      "inputs": [
        {
          "indexed": false,
          "internalType": "address",
          "name": "pointer",
          "type": "address"
        }
      ],
      "name": "BytesStored",
      "type": "event"
    },
    {
      "inputs": [],
      "name": "DATA_URI",
      "outputs": [
        {
          "internalType": "string",
          "name": "",
          "type": "string"
        }
      ],
      "stateMutability": "view",
      "type": "function"
    },
    {
      "inputs": [],
      "name": "NUMBER_SIGN",
      "outputs": [
        {
          "internalType": "string",
          "name": "",
          "type": "string"
        }
      ],
      "stateMutability": "view",
      "type": "function"
    },
    {
      "inputs": [],
      "name": "QUOTE",
      "outputs": [
        {
          "internalType": "string",
          "name": "",
          "type": "string"
        }
      ],
      "stateMutability": "view",
      "type": "function"
    },
    {
      "inputs": [],
      "name": "SPACE",
      "outputs": [
        {
          "internalType": "string",
          "name": "",
          "type": "string"
        }
      ],
      "stateMutability": "view",
      "type": "function"
    },
    {
      "inputs": [],
      "name": "TAG_END",
      "outputs": [
        {
          "internalType": "string",
          "name": "",
          "type": "string"
        }
      ],
      "stateMutability": "view",
      "type": "function"
    },
    {
      "inputs": [],
      "name": "TAG_START",
      "outputs": [
        {
          "internalType": "string",
          "name": "",
          "type": "string"
        }
      ],
      "stateMutability": "view",
      "type": "function"
    },
    {
      "inputs": [],
      "name": "XMLNS_HEADER",
      "outputs": [
        {
          "internalType": "string",
          "name": "",
          "type": "string"
        }
      ],
      "stateMutability": "view",
      "type": "function"
    },
    {
      "inputs": [
        {
          "internalType": "string[]",
          "name": "palette",
          "type": "string[]"
        }
      ],
      "name": "encodePalette",
      "outputs": [
        {
          "internalType": "string",
          "name": "",
          "type": "string"
        }
      ],
      "stateMutability": "pure",
      "type": "function"
    },
    {
      "inputs": [
        {
          "internalType": "bytes",
          "name": "palette",
          "type": "bytes"
        },
        {
          "internalType": "uint256",
          "name": "index",
          "type": "uint256"
        }
      ],
      "name": "getFill",
      "outputs": [
        {
          "internalType": "string",
          "name": "",
          "type": "string"
        }
      ],
      "stateMutability": "pure",
      "type": "function"
    },
    {
      "inputs": [
        {
          "internalType": "address",
          "name": "pointer",
          "type": "address"
        },
        {
          "internalType": "uint256",
          "name": "index",
          "type": "uint256"
        }
      ],
      "name": "getFill",
      "outputs": [
        {
          "internalType": "string",
          "name": "",
          "type": "string"
        }
      ],
      "stateMutability": "view",
      "type": "function"
    },
    {
      "inputs": [
        {
          "internalType": "address",
          "name": "pointer",
          "type": "address"
        }
      ],
      "name": "getPalette",
      "outputs": [
        {
          "internalType": "string[]",
          "name": "",
          "type": "string[]"
        }
      ],
      "stateMutability": "view",
      "type": "function"
    },
    {
      "inputs": [
        {
          "internalType": "bytes",
          "name": "palette",
          "type": "bytes"
        }
      ],
      "name": "getPalette",
      "outputs": [
        {
          "internalType": "string[]",
          "name": "",
          "type": "string[]"
        }
      ],
      "stateMutability": "pure",
      "type": "function"
    }
  ],
  "transactionHash": "0x80edbc8049214d21c978d79f6de184a94cb9c191f6ed7536b5a893f2f76d4004",
  "args": [],
  "numDeployments": 1,
  "solcInputHash": "76161a4d293fda067ec40d2b20404a49",
  "bytecode": "0x61105961003a600b82828239805160001a60731461002d57634e487b7160e01b600052600060045260246000fd5b30600052607381538281f3fe73000000000000000000000000000000000000000030146080604052600436106100de5760003560e01c8063890a161a1161008b578063c030f08d11610065578063c030f08d1461024a578063df5f0e0e1461025d578063e0c9ae691461029957600080fd5b8063890a161a146101bf5780639ad21855146101d25780639c5798391461020e57600080fd5b8063657fb2e1116100bc578063657fb2e11461015b5780637be266cc1461017b5780637df165211461018357600080fd5b8063067b7f9e146100e357806315cb3a051461010c5780633774c79814610148575b600080fd5b6100f66100f1366004610b91565b6102d5565b6040516101039190610c2e565b60405180910390f35b6100f66040518060400160405280600481526020017f2f2533650000000000000000000000000000000000000000000000000000000081525081565b6100f6610156366004610c5a565b610393565b61016e610169366004610ce3565b6105c4565b6040516101039190610d74565b6100f66105e3565b6100f66040518060400160405280600381526020017f253363000000000000000000000000000000000000000000000000000000000081525081565b6100f66101cd366004610d85565b6105ff565b6100f66040518060400160405280601381526020017f646174613a696d6167652f7376672b786d6c2c0000000000000000000000000081525081565b6100f66040518060400160405280600381526020017f253237000000000000000000000000000000000000000000000000000000000081525081565b61016e610258366004610da7565b61082d565b6100f66040518060400160405280600381526020017f253233000000000000000000000000000000000000000000000000000000000081525081565b6100f66040518060400160405280600381526020017f253230000000000000000000000000000000000000000000000000000000000081525081565b6040517f9bce4e14000000000000000000000000000000000000000000000000000000008152606090735FbDB2315678afecb367f032d93F642f64180aa390639bce4e1490610328908590600401610d74565b600060405180830381865af4158015610345573d6000803e3d6000fd5b505050506040513d6000823e601f3d908101601f1916820160405261036d9190810190610e3a565b60405160200161037d9190610e97565b6040516020818303038152906040529050919050565b6060826103a1836003610edd565b815181106103b1576103b1610efc565b016020015160405163c1338a6960e01b8152739fE46736679d2D9a65F0992F2272dE9f3c7fa6e09163c1338a69916103f59160f81c90601090600290600401610f2e565b600060405180830381865af4158015610412573d6000803e3d6000fd5b505050506040513d6000823e601f3d908101601f1916820160405261043a9190810190610e3a565b83610446846003610edd565b610451906001610f56565b8151811061046157610461610efc565b016020015160405163c1338a6960e01b8152739fE46736679d2D9a65F0992F2272dE9f3c7fa6e09163c1338a69916104a59160f81c90601090600290600401610f2e565b600060405180830381865af41580156104c2573d6000803e3d6000fd5b505050506040513d6000823e601f3d908101601f191682016040526104ea9190810190610e3a565b846104f6856003610edd565b610501906002610f56565b8151811061051157610511610efc565b016020015160405163c1338a6960e01b8152739fE46736679d2D9a65F0992F2272dE9f3c7fa6e09163c1338a69916105559160f81c90601090600290600401610f2e565b600060405180830381865af4158015610572573d6000803e3d6000fd5b505050506040513d6000823e601f3d908101601f1916820160405261059a9190810190610e3a565b6040516020016105ac93929190610f6e565b60405160208183030381529060405290505b92915050565b606060006105d1836108df565b90506105dc8161082d565b9392505050565b604051806060016040528060268152602001610ffe6026913981565b6060600061062d84610612856003610edd565b61061d866003610edd565b610628906003610f56565b6108ef565b90508060008151811061064257610642610efc565b016020015160405163c1338a6960e01b8152739fE46736679d2D9a65F0992F2272dE9f3c7fa6e09163c1338a69916106869160f81c90601090600290600401610f2e565b600060405180830381865af41580156106a3573d6000803e3d6000fd5b505050506040513d6000823e601f3d908101601f191682016040526106cb9190810190610e3a565b816001815181106106de576106de610efc565b016020015160405163c1338a6960e01b8152739fE46736679d2D9a65F0992F2272dE9f3c7fa6e09163c1338a69916107229160f81c90601090600290600401610f2e565b600060405180830381865af415801561073f573d6000803e3d6000fd5b505050506040513d6000823e601f3d908101601f191682016040526107679190810190610e3a565b8260028151811061077a5761077a610efc565b016020015160405163c1338a6960e01b8152739fE46736679d2D9a65F0992F2272dE9f3c7fa6e09163c1338a69916107be9160f81c90601090600290600401610f2e565b600060405180830381865af41580156107db573d6000803e3d6000fd5b505050506040513d6000823e601f3d908101601f191682016040526108039190810190610e3a565b60405160200161081593929190610f6e565b60405160208183030381529060405291505092915050565b606060006003835161083f9190610fa6565b905060008167ffffffffffffffff81111561085c5761085c6109e0565b60405190808252806020026020018201604052801561088f57816020015b606081526020019060019003908161087a5790505b50905060005b828110156108d7576108a78582610393565b8282815181106108b9576108b9610efc565b602002602001018190525080806108cf90610fba565b915050610895565b509392505050565b60606105be826001600019610918565b606061091084610900856001610f56565b61090b856001610f56565b610918565b949350505050565b6060833b806109375750506040805160208101909152600081526105dc565b808411156109555750506040805160208101909152600081526105dc565b8383101561099e578084846040517f2c4a89fa00000000000000000000000000000000000000000000000000000000815260040161099593929190610fd5565b60405180910390fd5b83830384820360008282106109b357826109b5565b815b60408051603f8301601f19168101909152818152955090508087602087018a3c505050509392505050565b634e487b7160e01b600052604160045260246000fd5b601f19601f830116810181811067ffffffffffffffff82111715610a1c57610a1c6109e0565b6040525050565b6000610a2e60405190565b9050610a3a82826109f6565b919050565b600067ffffffffffffffff821115610a5957610a596109e0565b5060209081020190565b600067ffffffffffffffff821115610a7d57610a7d6109e0565b601f19601f83011660200192915050565b82818337506000910152565b6000610aad610aa884610a63565b610a23565b905082815260208101848484011115610ac857610ac8600080fd5b6108d7848285610a8e565b600082601f830112610ae757610ae7600080fd5b8135610910848260208601610a9a565b6000610b05610aa884610a3f565b83815290506020808201908402830185811115610b2457610b24600080fd5b835b81811015610b6357803567ffffffffffffffff811115610b4857610b48600080fd5b8501610b548882610ad3565b84525060209283019201610b26565b5050509392505050565b600082601f830112610b8157610b81600080fd5b8135610910848260208601610af7565b600060208284031215610ba657610ba6600080fd5b813567ffffffffffffffff811115610bc057610bc0600080fd5b61091084828501610b6d565b60005b83811015610be7578181015183820152602001610bcf565b83811115610bf6576000848401525b50505050565b6000610c06825190565b808452602084019350610c1d818560208601610bcc565b601f01601f19169290920192915050565b602080825281016105dc8184610bfc565b805b8114610c4c57600080fd5b50565b80356105be81610c3f565b60008060408385031215610c7057610c70600080fd5b823567ffffffffffffffff811115610c8a57610c8a600080fd5b610c9685828601610ad3565b9250506020610ca785828601610c4f565b9150509250929050565b600073ffffffffffffffffffffffffffffffffffffffff82166105be565b610c4181610cb1565b80356105be81610ccf565b600060208284031215610cf857610cf8600080fd5b60006109108484610cd8565b60006105dc8383610bfc565b6000610d1a825190565b80845260208401935083602082028501610d348560200190565b60005b84811015610d685783830388528151610d508482610d04565b93505060208201602098909801979150600101610d37565b50909695505050505050565b602080825281016105dc8184610d10565b60008060408385031215610d9b57610d9b600080fd5b6000610c968585610cd8565b600060208284031215610dbc57610dbc600080fd5b813567ffffffffffffffff811115610dd657610dd6600080fd5b61091084828501610ad3565b6000610df0610aa884610a63565b905082815260208101848484011115610e0b57610e0b600080fd5b6108d7848285610bcc565b600082601f830112610e2a57610e2a600080fd5b8151610910848260208601610de2565b600060208284031215610e4f57610e4f600080fd5b815167ffffffffffffffff811115610e6957610e69600080fd5b61091084828501610e16565b6000610e7f825190565b610e8d818560208601610bcc565b9290920192915050565b7f307800000000000000000000000000000000000000000000000000000000000081526002016105be8183610e75565b634e487b7160e01b600052601160045260246000fd5b6000816000190483118215151615610ef757610ef7610ec7565b500290565b634e487b7160e01b600052603260045260246000fd5b805b82525050565b600060ff82166105be565b610f1481610f1a565b60608101610f3c8286610f12565b610f496020830185610f25565b6109106040830184610f25565b60008219821115610f6957610f69610ec7565b500190565b610f788185610e75565b9050610f848184610e75565b90506109108183610e75565b634e487b7160e01b600052601260045260246000fd5b600082610fb557610fb5610f90565b500490565b6000600019821415610fce57610fce610ec7565b5060010190565b60608101610fe38286610f12565b610ff06020830185610f12565b6109106040830184610f1256fe786d6c6e733d253237687474703a2f2f7777772e77332e6f72672f323030302f737667253237a2646970667358221220b8831a5fcac878061975fa6fb77f7007cd7679bc00000eed895401eb3f1232fb64736f6c634300080c0033",
  "deployedBytecode": "0x73000000000000000000000000000000000000000030146080604052600436106100de5760003560e01c8063890a161a1161008b578063c030f08d11610065578063c030f08d1461024a578063df5f0e0e1461025d578063e0c9ae691461029957600080fd5b8063890a161a146101bf5780639ad21855146101d25780639c5798391461020e57600080fd5b8063657fb2e1116100bc578063657fb2e11461015b5780637be266cc1461017b5780637df165211461018357600080fd5b8063067b7f9e146100e357806315cb3a051461010c5780633774c79814610148575b600080fd5b6100f66100f1366004610b91565b6102d5565b6040516101039190610c2e565b60405180910390f35b6100f66040518060400160405280600481526020017f2f2533650000000000000000000000000000000000000000000000000000000081525081565b6100f6610156366004610c5a565b610393565b61016e610169366004610ce3565b6105c4565b6040516101039190610d74565b6100f66105e3565b6100f66040518060400160405280600381526020017f253363000000000000000000000000000000000000000000000000000000000081525081565b6100f66101cd366004610d85565b6105ff565b6100f66040518060400160405280601381526020017f646174613a696d6167652f7376672b786d6c2c0000000000000000000000000081525081565b6100f66040518060400160405280600381526020017f253237000000000000000000000000000000000000000000000000000000000081525081565b61016e610258366004610da7565b61082d565b6100f66040518060400160405280600381526020017f253233000000000000000000000000000000000000000000000000000000000081525081565b6100f66040518060400160405280600381526020017f253230000000000000000000000000000000000000000000000000000000000081525081565b6040517f9bce4e1400000000000000000000000000000000000000000000000000000000815260609073__$3d939fd680257e7df63fc3436eced304ff$__90639bce4e1490610328908590600401610d74565b600060405180830381865af4158015610345573d6000803e3d6000fd5b505050506040513d6000823e601f3d908101601f1916820160405261036d9190810190610e3a565b60405160200161037d9190610e97565b6040516020818303038152906040529050919050565b6060826103a1836003610edd565b815181106103b1576103b1610efc565b016020015160405163c1338a6960e01b815273__$bddea793ab3ab242e0f42fcbbce9ecfcb5$__9163c1338a69916103f59160f81c90601090600290600401610f2e565b600060405180830381865af4158015610412573d6000803e3d6000fd5b505050506040513d6000823e601f3d908101601f1916820160405261043a9190810190610e3a565b83610446846003610edd565b610451906001610f56565b8151811061046157610461610efc565b016020015160405163c1338a6960e01b815273__$bddea793ab3ab242e0f42fcbbce9ecfcb5$__9163c1338a69916104a59160f81c90601090600290600401610f2e565b600060405180830381865af41580156104c2573d6000803e3d6000fd5b505050506040513d6000823e601f3d908101601f191682016040526104ea9190810190610e3a565b846104f6856003610edd565b610501906002610f56565b8151811061051157610511610efc565b016020015160405163c1338a6960e01b815273__$bddea793ab3ab242e0f42fcbbce9ecfcb5$__9163c1338a69916105559160f81c90601090600290600401610f2e565b600060405180830381865af4158015610572573d6000803e3d6000fd5b505050506040513d6000823e601f3d908101601f1916820160405261059a9190810190610e3a565b6040516020016105ac93929190610f6e565b60405160208183030381529060405290505b92915050565b606060006105d1836108df565b90506105dc8161082d565b9392505050565b604051806060016040528060268152602001610ffe6026913981565b6060600061062d84610612856003610edd565b61061d866003610edd565b610628906003610f56565b6108ef565b90508060008151811061064257610642610efc565b016020015160405163c1338a6960e01b815273__$bddea793ab3ab242e0f42fcbbce9ecfcb5$__9163c1338a69916106869160f81c90601090600290600401610f2e565b600060405180830381865af41580156106a3573d6000803e3d6000fd5b505050506040513d6000823e601f3d908101601f191682016040526106cb9190810190610e3a565b816001815181106106de576106de610efc565b016020015160405163c1338a6960e01b815273__$bddea793ab3ab242e0f42fcbbce9ecfcb5$__9163c1338a69916107229160f81c90601090600290600401610f2e565b600060405180830381865af415801561073f573d6000803e3d6000fd5b505050506040513d6000823e601f3d908101601f191682016040526107679190810190610e3a565b8260028151811061077a5761077a610efc565b016020015160405163c1338a6960e01b815273__$bddea793ab3ab242e0f42fcbbce9ecfcb5$__9163c1338a69916107be9160f81c90601090600290600401610f2e565b600060405180830381865af41580156107db573d6000803e3d6000fd5b505050506040513d6000823e601f3d908101601f191682016040526108039190810190610e3a565b60405160200161081593929190610f6e565b60405160208183030381529060405291505092915050565b606060006003835161083f9190610fa6565b905060008167ffffffffffffffff81111561085c5761085c6109e0565b60405190808252806020026020018201604052801561088f57816020015b606081526020019060019003908161087a5790505b50905060005b828110156108d7576108a78582610393565b8282815181106108b9576108b9610efc565b602002602001018190525080806108cf90610fba565b915050610895565b509392505050565b60606105be826001600019610918565b606061091084610900856001610f56565b61090b856001610f56565b610918565b949350505050565b6060833b806109375750506040805160208101909152600081526105dc565b808411156109555750506040805160208101909152600081526105dc565b8383101561099e578084846040517f2c4a89fa00000000000000000000000000000000000000000000000000000000815260040161099593929190610fd5565b60405180910390fd5b83830384820360008282106109b357826109b5565b815b60408051603f8301601f19168101909152818152955090508087602087018a3c505050509392505050565b634e487b7160e01b600052604160045260246000fd5b601f19601f830116810181811067ffffffffffffffff82111715610a1c57610a1c6109e0565b6040525050565b6000610a2e60405190565b9050610a3a82826109f6565b919050565b600067ffffffffffffffff821115610a5957610a596109e0565b5060209081020190565b600067ffffffffffffffff821115610a7d57610a7d6109e0565b601f19601f83011660200192915050565b82818337506000910152565b6000610aad610aa884610a63565b610a23565b905082815260208101848484011115610ac857610ac8600080fd5b6108d7848285610a8e565b600082601f830112610ae757610ae7600080fd5b8135610910848260208601610a9a565b6000610b05610aa884610a3f565b83815290506020808201908402830185811115610b2457610b24600080fd5b835b81811015610b6357803567ffffffffffffffff811115610b4857610b48600080fd5b8501610b548882610ad3565b84525060209283019201610b26565b5050509392505050565b600082601f830112610b8157610b81600080fd5b8135610910848260208601610af7565b600060208284031215610ba657610ba6600080fd5b813567ffffffffffffffff811115610bc057610bc0600080fd5b61091084828501610b6d565b60005b83811015610be7578181015183820152602001610bcf565b83811115610bf6576000848401525b50505050565b6000610c06825190565b808452602084019350610c1d818560208601610bcc565b601f01601f19169290920192915050565b602080825281016105dc8184610bfc565b805b8114610c4c57600080fd5b50565b80356105be81610c3f565b60008060408385031215610c7057610c70600080fd5b823567ffffffffffffffff811115610c8a57610c8a600080fd5b610c9685828601610ad3565b9250506020610ca785828601610c4f565b9150509250929050565b600073ffffffffffffffffffffffffffffffffffffffff82166105be565b610c4181610cb1565b80356105be81610ccf565b600060208284031215610cf857610cf8600080fd5b60006109108484610cd8565b60006105dc8383610bfc565b6000610d1a825190565b80845260208401935083602082028501610d348560200190565b60005b84811015610d685783830388528151610d508482610d04565b93505060208201602098909801979150600101610d37565b50909695505050505050565b602080825281016105dc8184610d10565b60008060408385031215610d9b57610d9b600080fd5b6000610c968585610cd8565b600060208284031215610dbc57610dbc600080fd5b813567ffffffffffffffff811115610dd657610dd6600080fd5b61091084828501610ad3565b6000610df0610aa884610a63565b905082815260208101848484011115610e0b57610e0b600080fd5b6108d7848285610bcc565b600082601f830112610e2a57610e2a600080fd5b8151610910848260208601610de2565b600060208284031215610e4f57610e4f600080fd5b815167ffffffffffffffff811115610e6957610e69600080fd5b61091084828501610e16565b6000610e7f825190565b610e8d818560208601610bcc565b9290920192915050565b7f307800000000000000000000000000000000000000000000000000000000000081526002016105be8183610e75565b634e487b7160e01b600052601160045260246000fd5b6000816000190483118215151615610ef757610ef7610ec7565b500290565b634e487b7160e01b600052603260045260246000fd5b805b82525050565b600060ff82166105be565b610f1481610f1a565b60608101610f3c8286610f12565b610f496020830185610f25565b6109106040830184610f25565b60008219821115610f6957610f69610ec7565b500190565b610f788185610e75565b9050610f848184610e75565b90506109108183610e75565b634e487b7160e01b600052601260045260246000fd5b600082610fb557610fb5610f90565b500490565b6000600019821415610fce57610fce610ec7565b5060010190565b60608101610fe38286610f12565b610ff06020830185610f12565b6109106040830184610f1256fe786d6c6e733d253237687474703a2f2f7777772e77332e6f72672f323030302f737667253237a2646970667358221220b8831a5fcac878061975fa6fb77f7007cd7679bc00000eed895401eb3f1232fb64736f6c634300080c0033",
  "libraries": {
    "Integers": "0x9fE46736679d2D9a65F0992F2272dE9f3c7fa6e0",
    "Array": "0x5FbDB2315678afecb367f032d93F642f64180aa3"
  },
  "devdoc": {
    "author": "Clement Walter <clement0walter@gmail.com>",
    "kind": "dev",
    "methods": {
      "encodePalette(string[])": {
        "details": "Usually colors are already defined in hex color space so we just concat all the colors. No check is made      and this function only concatenates the input colors.",
        "params": {
          "palette": "The list of colors as hex strings, without the leading #."
        },
        "returns": {
          "_0": "The concatenated colors as string. To be used as bytes afterwards."
        }
      },
      "getFill(address,uint256)": {
        "details": "Returns one single color reading directly from the storage.",
        "params": {
          "index": "The index of the color to retrieve",
          "pointer": "The pointer to the palette bytes array where each color is R, G, B at storage i, i+1, i+2."
        },
        "returns": {
          "_0": "The hexstring representation of the color, e.g. \"a3120f\"."
        }
      },
      "getFill(bytes,uint256)": {
        "details": "Returns one single color from a pre-loaded whole palette as a bytes array.",
        "params": {
          "index": "The index of the color to retrieve",
          "palette": "A bytes array encoding several RGB colors. Length should be a multiple of 3."
        },
        "returns": {
          "_0": "The hexstring representation of the color, e.g. \"a3120f\"."
        }
      },
      "getPalette(address)": {
        "details": "Decode the whole palette once for all and returns an array of hexstrings.",
        "params": {
          "pointer": "The pointer to the palette bytes array where each color is at storage at i, i+1, i+2."
        },
        "returns": {
          "_0": "An array of hexstring representation of the color, e.g. \"a3120f\"."
        }
      }
    },
    "title": "BaseRenderer   This library contains shared functionality and constants for the renderers.",
    "version": 1
  },
  "userdoc": {
    "kind": "user",
    "methods": {},
    "version": 1
  },
  "storageLayout": {
    "storage": [],
    "types": null
  }
}